:0400000002002632A2
:03000B000217B029
:0100130032BA
:01001B0032B2
:0300230002294867
:1017A1000217A412180580FE438E0C90000022C07F
:1017B100E0C0F0C082C083C002C003C004C005C045
:1017C10006C007C000C001C0D075D000C28D758AA7
:1017D10000758CFC122131D0D0D001D000D007D0BF
:1017E10006D005D004D003D002D083D082D0F0D06F
:1017F100E03243A8824389015389F1758A00758CCF
:10180100FCD28C22900004740AF0900005740DF053
:10181100900006744DF0900007746FF0900008740A
:101821006EF09000097469F090000A7473F09000F2
:101831000B7468F090000C7420F090000D744EF061
:1018410090000E7465F090000F746EF090001074AB
:1018510065F09000117420F09000127445F0900032
:10186100137453F09000147444F09000157420F038
:101871009000167453F09000177470F09000187473
:1018810072F09000197469F090001A746EF0900073
:101891001B7467F090001C7420F090001D7432F0EE
:1018A10090001E7430F090001F7431F0900020748D
:1018B10038F09000217420F0900022744CF09000D8
:1018C100237461F09000247462F09000257420F07C
:1018D1009000267434F09000277420F09000287452
:1018E10053F09000297475F090002A7470F0900004
:1018F1002B7470F090002C746CF090002D7465F0D6
:1019010090002E746DF090002F7465F0900030748B
:101911006EF09000317474F09000327461F09000B8
:1019210033746CF0900034E4F0900035744DF09015
:101931000036746FF0900037746EF090003874695F
:10194100F09000397473F090003A7468F090003BA5
:101951007420F090003C744EF090003D7465F0905E
:10196100003E746EF090003F7465F090004074206A
:10197100F09000417445F09000427453F0900043A0
:101981007444F09000447420F09000457453F0903A
:1019910000467470F09000477472F09000487469CA
:1019A100F0900049746EF090004A7467F090004B1B
:1019B1007427F090004C7431F090004D7438F09021
:1019C100004E7420F090004F744CF0900050746100
:1019D100F09000517462F09000527420F090005326
:1019E1007434F0900054E4F0900055740AF09000C3
:1019F10056740DF09000577427F09000587444F01D
:101A01009000597427F090005A742DF090005B7487
:101A11003EF090005C7444F090005D7441F09000E1
:101A21005E7443F090005F7420F09000607444F0A5
:101A31009000617461F09000627474F090006374BE
:101A410061F09000647420F09000657449F090009A
:101A510066746EF09000677470F09000687475F0B1
:101A61009000697474F090006A742CF090006B74AB
:101A710020F090006C7427F090006D745AF0900083
:101A81006E7427F090006F742DF0900070743EF02A
:101A91009000717420F0900072746DF09000737476
:101AA1006FF09000747464F09000757465F09000AC
:101AB100767420F09000777463F09000787468F089
:101AC1009000797461F090007A746EF090007B74EC
:101AD10067F090007C7465F090007D742CF09000AC
:101AE1007E7420F090007F7427F0900080744EF097
:101AF1009000817427F0900082742DF0900083741F
:101B01003EF09000847420F0900085744EF09000B7
:101B1100867465F09000877478F09000887474F092
:101B21009000897420F090008A7477F090008B7493
:101B310061F090008C7476F090008D7465F09000E7
:101B41008E742CF090008F7420F09000907427F028
:101B5100900091742BF09000927427F09000937490
:101B61002DF0900094743EF09000957420F0900058
:101B7100967449F0900097746EF09000987463F039
:101B81009000997472F090009A7465F090009B74C3
:101B910061F090009C7473F090009D7465F090006A
:101BA1009E7420F090009F7444F09000A07441F066
:101BB1009000A17443F09000A27420F09000A374EF
:101BC10076F09000A4746FF09000A5746CF0900012
:101BD100A67474F09000A77461F09000A87467F087
:101BE1009000A97465F09000AA742CF09000AB7479
:101BF10020F09000AC7427F09000AD742DF09000AF
:101C0100AE7427F09000AF742DF09000B0743EF0E8
:101C11009000B17420F09000B27444F09000B3745D
:101C210065F09000B47463F09000B57472F09000A8
:101C3100B67465F09000B77461F09000B87473F0F9
:101C41009000B97465F09000BA7420F09000BB74F4
:101C510044F09000BC7441F09000BD7443F09000DA
:101C6100BE7420F09000BF7476F09000C0746FF0E5
:101C71009000C1746CF09000C27474F09000C37451
:101C810061F09000C47467F09000C57465F0900035
:101C9100C6742CF09000C7740AF09000C8740DF05F
:101CA1009000C97427F09000CA743FF09000CB7483
:101CB10027F09000CC742DF09000CD743EF0900090
:101CC100CE7420F09000CF7444F09000D07469F08D
:101CD1009000D17473F09000D27470F09000D374BE
:101CE1006CF09000D47461F09000D57479F090009C
:101CF100D67420F09000D7744DF09000D87465F040
:101D01009000D9746EF09000DA7475F09000DBE405
:101D1100F09000DC7469F09000DD7473F09000DEE7
:101D21007420F09000DF744FF09000E0746EF0903A
:101D310000E1E4F09000E27469F09000E37473F064
:101D41009000E47420F09000E5744FF09000E67488
:101D510066F09000E77466F09000E8E4F09000E926
:101D6100740AF09000EA740DF09000EB7445F09065
:101D710000EC746EF09000ED7474F09000EE7465F8
:101D8100F09000EF7472F09000F07420F09000F188
:101D91007444F09000F27461F09000F37474F09068
:101DA10000F47461F09000F57420F09000F6E4F016
:101DB1009000F7740AF09000F8740DF09000F97437
:101DC10044F09000FA7441F09000FB7443F09000ED
:101DD100FC7420F09000FD746FF09000FE7475F0BB
:101DE1009000FF7474F09001007470F09001017420
:101DF10075F09001027474F09001037420F0900169
:101E0100047463F09001057468F09001067461F048
:101E1100900107746EF0900108746EF090010974DE
:101E210065F090010A746CF090010B7420F0900140
:101E31000C7441F090010D7420F090010EE4F090CB
:101E4100010F740AF0900110740DF09001117444A7
:101E5100F09001127441F09001137443F090011459
:101E61007420F0900115746FF09001167475F09064
:101E710001177474F09001187470F0900119747561
:101E8100F090011A7474F090011B7420F090011C01
:101E91007463F090011D7468F090011E7461F090FC
:101EA100011F746EF0900120746EF0900121746531
:101EB100F0900122746CF09001237420F0900124C1
:101EC1007442F09001257420F0900126E4F0900115
:101ED10027740AF0900128740DF09001297467F0BD
:101EE10090012A7461F090012B7469F090012C74B7
:101EF1006EF090012D7420F090012E7469F0900124
:101F01002F746EF09001307463F09001317472F0AF
:101F11009001327465F09001337461F09001347472
:101F210073F09001357465F09001367464F090019E
:101F310037E4F0900138740AF0900139740DF09093
:101F4100013A7467F090013B7461F090013C74694F
:101F5100F090013D746EF090013E7420F090013FCD
:101F61007464F09001407465F09001417463F090E5
:101F710001427472F09001437465F0900144746100
:101F8100F09001457473F09001467465F09001473B
:101F91007464F0900148E4F0900149740AF09001F2
:101FA1004A740DF090014B746DF090014C746FF018
:101FB10090014D7464F090014E7465F090014F747E
:101FC10020F09001507463F09001517468F0900119
:101FD100527461F0900153746EF09001547467F083
:101FE1009001557465F09001567464F0900157E4C6
:101FF100F0900158740AF0900159740DF090015A53
:10200100746EF090015B7465F090015C7478F090EF
:10201100015D7474F090015E7420F090015F74773B
:10202100F09001607461F09001617476F09001624A
:102031007465F09001637420F0900164E4F012255E
:10204100449000041225599000551225591217F396
:10205100122529AA82900003E0FB7002C28CBA2BE0
:1020610002804EBA2D028054BA3F02800FBA440258
:102071008028BA4E028018BA5A4D80089000551235
:1020810025598048122268900149122559803D90B6
:10209100015812255912228180329000E9122559E6
:1020A1007582101226D5AB827C008C8312221D8092
:1020B1001B122298900127122559801012229F90FD
:1020C100013812255980058A82122532900003E0D9
:0B20D100FA6003022051D28C02205163
:10007F0090016BE4F0A3F090016D7480F090016E2D
:10008F007483F090016F7486F09001707489F09012
:10009F000171748CF09001727490F09001737493ED
:1000AF00F09001747496F09001757499F090017648
:1000BF00749CF0900177749FF090017874A2F09087
:1000CF00017974A5F090017A74A8F090017B74AB5C
:1000DF00F090017C74AEF090017D74B1F090017ED0
:1000EF0074B4F090017F74B6F090018074B9F09001
:1000FF00018174BCF090018274BFF090018374C2CF
:10010F00F090018474C4F090018574C7F09001865B
:10011F0074C9F090018774CCF090018874CEF09080
:10012F00018974D1F090018A74D3F090018B74D649
:10013F00F090018C74D8F090018D74DAF090018EEC
:10014F0074DCF090018F74DEF090019074E0F09009
:10015F00019174E2F090019274E4F090019374E6CF
:10016F00F090019474E8F090019574EAF090019684
:10017F0074ECF090019774EDF090019874EFF0909B
:10018F00019974F0F090019A74F2F090019B74F35E
:10019F00F090019C74F4F090019D74F6F090019E24
:1001AF0074F7F090019F74F8F09001A074F9F0903B
:1001BF0001A174FAF09001A274FBF09001A374FBFB
:1001CF00F09001A474FCF09001A574FDF09001A6CD
:1001DF0074FDF09001A774FEF09001A874FEF090EA
:1001EF0001A974FEF09001AA74FFF09001AB74FFA7
:1001FF00F09001AC74FFF09001AD74FFF09001AE80
:10020F0074FFF09001AF74FFF09001B074FFF090A5
:10021F0001B174FEF09001B274FEF09001B374FD61
:10022F00F09001B474FDF09001B574FCF09001B63C
:10023F0074FCF09001B774FBF09001B874FAF09071
:10024F0001B974F9F09001BA74F8F09001BB74F72A
:10025F00F09001BC74F6F09001BD74F5F09001BE02
:10026F0074F4F09001BF74F2F09001C074F1F0904B
:10027F0001C174F0F09001C274EEF09001C374EC00
:10028F00F09001C474EBF09001C574E9F09001C6D1
:10029F0074E7F09001C774E5F09001C874E3F09033
:1002AF0001C974E1F09001CA74DFF09001CB74DDE5
:1002BF00F09001CC74DBF09001CD74D9F09001CEA9
:1002CF0074D7F09001CF74D4F09001D074D2F09025
:1002DF0001D174D0F09001D274CDF09001D374CBD2
:1002EF00F09001D474C8F09001D574C5F09001D688
:1002FF0074C3F09001D774C0F09001D874BDF09022
:10030F0001D974BBF09001DA74B8F09001DB74B5C9
:10031F00F09001DC74B2F09001DD74AFF09001DE6B
:10032F0074ACF09001DF74A9F09001E074A7F09025
:10033F0001E174A4F09001E274A0F09001E3749DC8
:10034F00F09001E4749AF09001E57497F09001E653
:10035F007494F09001E77491F09001E8748EF0902E
:10036F0001E9748BF09001EA7488F09001EB7485C9
:10037F00F09001EC7482F09001ED747EF09001EE3C
:10038F00747BF09001EF7478F09001F07475F09039
:10039F0001F17472F09001F2746FF09001F3746CCC
:1003AF00F09001F47469F09001F57466F09001F625
:1003BF007463F09001F77460F09001F8745CF09042
:1003CF0001F97459F09001FA7457F09001FB7454CD
:1003DF00F09001FC7451F09001FD744EF09001FE0D
:1003EF00744BF09001FF7448F09002007445F09048
:1003FF0002017443F09002027440F0900203743DC6
:10040F00F0900204743BF09002057438F0900206ED
:10041F007435F09002077433F09002087430F09046
:10042F000209742EF090020A742CF090020B7429BA
:10043F00F090020C7427F090020D7425F090020ECC
:10044F007423F090020F7421F0900210741FF0903B
:10045F000211741DF0900212741BF09002137419A4
:10046F00F09002147417F09002157415F0900216A4
:10047F007414F09002177412F09002187410F09028
:10048F000219740FF090021A740EF090021B740C84
:10049F00F090021C740BF090021D740AF090021E73
:1004AF007409F090021F7408F09002207407F09006
:1004BF0002217406F09002227405F0900223740456
:1004CF00F09002247404F09002257403F090022639
:1004DF007403F09002277402F09002287402F090D7
:1004EF0002297401F090022A7401F090022B74011A
:1004FF00F090022C7401F090022D7401F090022EF6
:10050F007401F090022F7401F09002307402F09099
:10051F0002317402F09002327402F09002337403CD
:10052F00F09002347403F09002357404F0900236A8
:10053F007405F09002377405F09002387406F0904D
:10054F0002397407F090023A7408F090023B740974
:10055F00F090023C740AF090023D740CF090023E51
:10056F00740DF090023F740EF09002407410F090F2
:10057F0002417411F09002427413F090024374140C
:10058F00F09002447416F09002457418F0900246F1
:10059F00741AF0900247741CF0900248741EF09089
:1005AF0002497420F090024A7422F090024B742496
:1005BF00F090024C7426F090024D7428F090024E89
:1005CF00742AF090024F742DF0900250742FF09017
:1005DF0002517432F09002527434F0900253743717
:1005EF00F09002547439F0900255743CF09002561A
:1005FF00743EF09002577441F09002587444F0909A
:10060F0002597447F090025A744AF090025B744C8E
:10061F00F090025C744FF090025D7452F090025EA5
:10062F007455F090025F7458F0900260745BF09014
:10063F000261745EF09002627461F0900263746400
:10064F00F09002647467F0900265746AF09002662D
:10065F00746DF09002677470F09002687474F0908B
:10066F0002697477F090026A747AF090026B747D6D
:10067F00F090026C7480F090026DE4F090026EF0D6
:10068F0090026FF0900270F0900271E4F09002729D
:10069F00F0900273F0900274F0900275E4F0900203
:1006AF0076F0900277F0900278F0900279E4F09073
:1006BF00027AF090027BF090027CF090027DE4F0E1
:1006CF0090027EF090027FF0900280F0900281E421
:1006DF00F0900282F0900283F0900284F0900285F5
:1006EF00E4F0900286F0900287F0900288F090027A
:1006FF0089E4F090028AF090028BF090028CF090D7
:10070F00028DE4F090028EF090028FF0900290F044
:10071F00900291E4F0900292F0900293F090029484
:10072F00F0900295E4F0900296F0900297F090020C
:10073F0098F0900299E4F090029AF090029BF0905A
:10074F00029CF090029DE4F090029EF090029FF0C8
:10075F009002A0F09002A1E4F09002A2F09002A308
:10076F00F09002A4F09002A5E4F09002A6F090029F
:10077F00A7F09002A8F09002A9E4F09002AAF090DE
:10078F0002ABF09002ACF09002ADE4F09002AEF04C
:10079F009002AFF09002B0F09002B1E4F09002B28C
:1007AF00F09002B3F09002B4F09002B5E4F0900232
:1007BF00B6F09002B7F09002B8F09002B9E4F09062
:1007CF0002BAF09002BBF09002BCF09002BDE4F0D0
:1007DF009002BEF09002BFF09002C0F09002C1E410
:1007EF00F09002C2F09002C3F09002C4F09002C5E4
:1007FF00E4F09002C6F09002C7F09002C8F09002A9
:10080F00C9E4F09002CAF09002CBF09002CCF090C5
:10081F0002CDE4F09002CEF09002CFF09002D0F033
:10082F009002D1E4F09002D2F09002D3F09002D473
:10083F00F09002D5E4F09002D6F09002D7F090023B
:10084F00D8F09002D9E4F09002DAF09002DBF09049
:10085F0002DCF09002DDE4F09002DEF09002DFF0B7
:10086F009002E0F09002E1E4F09002E2F09002E3F7
:10087F00F09002E4F09002E5E4F09002E6F09002CE
:10088F00E7F09002E8F09002E9E4F09002EAF090CD
:10089F0002EBF09002ECF09002EDE4F09002EEF03B
:1008AF009002EF74FFF09002F074FFF09002F17479
:1008BF00FFF09002F274FFF09002F374FFF09002D9
:1008CF00F474FFF09002F574FFF09002F674FFF0ED
:1008DF009002F774FFF09002F874FFF09002F97431
:1008EF00FFF09002FA74FFF09002FB74FFF0900299
:1008FF00FC74FFF09002FD74FFF09002FE74FFF0A5
:10090F009002FF74FFF090030074FFF090030174E6
:10091F00FFF090030274FFF090030374FFF0900355
:10092F000474FFF090030574FFF090030674FFF05A
:10093F0090030774FFF090030874FFF0900309749D
:10094F00FFF090030A74FFF090030B74FFF0900315
:10095F000C74FFF090030D74FFF090030E74FFF012
:10096F0090030F74FFF090031074FFF09003117455
:10097F00FFF090031274FFF090031374FFF09003D5
:10098F001474FFF090031574FFF090031674FFF0CA
:10099F0090031774FFF090031874FFF0900319740D
:1009AF00FFF090031A74FFF090031B74FFF0900395
:1009BF001C74FFF090031D74FFF090031E74FFF082
:1009CF0090031F74FFF090032074FFF090032174C5
:1009DF00FFF090032274FFF090032374FFF0900355
:1009EF002474FFF090032574FFF090032674FFF03A
:1009FF0090032774FFF090032874FFF0900329747D
:100A0F00FFF090032A74FFF090032B74FFF0900314
:100A1F002C74FFF090032D74FFF090032E74FFF0F1
:100A2F0090032F74FFF090033074FFF09003317434
:100A3F00FFF090033274FFF090033374FFF09003D4
:100A4F003474FFF090033574FFF090033674FFF0A9
:100A5F0090033774FFF090033874FFF090033974EC
:100A6F00FFF090033A74FFF090033B74FFF0900394
:100A7F003C74FFF090033D74FFF090033E74FFF061
:100A8F0090033F74FFF090034074FFF090034174A4
:100A9F00FFF090034274FFF090034374FFF0900354
:100AAF004474FFF090034574FFF090034674FFF019
:100ABF0090034774FFF090034874FFF0900349745C
:100ACF00FFF090034A74FFF090034B74FFF0900314
:100ADF004C74FFF090034D74FFF090034E74FFF0D1
:100AEF0090034F74FFF090035074FFF09003517414
:100AFF00FFF090035274FFF090035374FFF09003D4
:100B0F005474FFF090035574FFF090035674FFF088
:100B1F0090035774FFF090035874FFF090035974CB
:100B2F00FFF090035A74FFF090035B74FFF0900393
:100B3F005C74FFF090035D74FFF090035E74FFF040
:100B4F0090035F74FFF090036074FFF09003617483
:100B5F00FFF090036274FFF090036374FFF0900353
:100B6F006474FFF090036574FFF090036674FFF0F8
:100B7F0090036774FFF090036874FFF0900369743B
:100B8F00FFF090036A74FFF090036B74FFF0900313
:100B9F006C74FFF090036DE4F090036E7402F090AC
:100BAF00036F7404F09003707406F090037174086F
:100BBF00F0900372740AF0900373740CF090037446
:100BCF00740EF09003757410F09003767412F09019
:100BDF0003777414F09003787416F09003797418F7
:100BEF00F090037A741AF090037B741CF090037CDE
:100BFF00741EF090037D7420F090037E7422F090A9
:100C0F00037F7424F09003807426F090038174287E
:100C1F00F0900382742AF0900383742CF090038475
:100C2F00742EF09003857430F09003867432F09038
:100C3F0003877434F09003887436F0900389743806
:100C4F00F090038A743AF090038B743CF090038C0D
:100C5F00743EF090038D7440F090038E7442F090C8
:100C6F00038F7444F09003907446F090039174488E
:100C7F00F0900392744AF0900393744CF0900394A5
:100C8F00744EF09003957450F09003967452F09058
:100C9F0003977454F09003987456F0900399745816
:100CAF00F090039A745AF090039B745CF090039C3D
:100CBF00745EF090039D7460F090039E7462F090E8
:100CCF00039F7464F09003A07466F09003A174689E
:100CDF00F09003A2746AF09003A3746CF09003A4D5
:100CEF00746EF09003A57470F09003A67472F09078
:100CFF0003A77474F09003A87476F09003A9747826
:100D0F00F09003AA747AF09003AB747CF09003AC6C
:100D1F00747EF09003AD7480F09003AE7482F09007
:100D2F0003AF7484F09003B07486F09003B17488AD
:100D3F00F09003B2748AF09003B3748CF09003B404
:100D4F00748EF09003B57490F09003B67492F09097
:100D5F0003B77494F09003B87496F09003B9749835
:100D6F00F09003BA749AF09003BB749CF09003BC9C
:100D7F00749EF09003BD74A0F09003BE74A2F09027
:100D8F0003BF74A4F09003C074A6F09003C174A8BD
:100D9F00F09003C274AAF09003C374ACF09003C434
:100DAF0074AEF09003C574B0F09003C674B2F090B7
:100DBF0003C774B4F09003C874B6F09003C974B845
:100DCF00F09003CA74BAF09003CB74BCF09003CCCC
:100DDF0074BEF09003CD74C0F09003CE74C2F09047
:100DEF0003CF74C4F09003D074C6F09003D174C8CD
:100DFF00F09003D274CAF09003D374CCF09003D464
:100E0F0074CEF09003D574D0F09003D674D2F090D6
:100E1F0003D774D4F09003D874D6F09003D974D854
:100E2F00F09003DA74DAF09003DB74DCF09003DCFB
:100E3F0074DEF09003DD74E0F09003DE74E2F09066
:100E4F0003DF74E4F09003E074E6F09003E174E8DC
:100E5F00F09003E274EAF09003E374ECF09003E493
:100E6F0074EEF09003E574F0F09003E674F2F090F6
:100E7F0003E774F4F09003E874F6F09003E974F864
:100E8F00F09003EA74FAF09003EB74FCF09003EC2B
:100E9F0074FEF09003ED74FFF09003EE74FEF0908B
:100EAF0003EF74FCF09003F074FAF09003F174F810
:100EBF00F09003F274F6F09003F374F4F09003F4EF
:100ECF0074F2F09003F574F0F09003F674EEF09076
:100EDF0003F774ECF09003F874EAF09003F974E8F8
:100EEF00F09003FA74E6F09003FB74E4F09003FCC7
:100EFF0074E2F09003FD74E0F09003FE74DEF09066
:100F0F0003FF74DCF090040074DAF090040174D8DD
:100F1F00F090040274D6F090040374D4F09004049B
:100F2F0074D2F090040574D0F090040674CEF09053
:100F3F00040774CCF090040874CAF090040974C8C4
:100F4F00F090040A74C6F090040B74C4F090040C73
:100F5F0074C2F090040D74C0F090040E74BEF09043
:100F6F00040F74BCF090041074BAF090041174B8AC
:100F7F00F090041274B6F090041374B4F09004144B
:100F8F0074B2F090041574B0F090041674AEF09033
:100F9F00041774ACF090041874AAF090041974A894
:100FAF00F090041A74A6F090041B74A4F090041C23
:100FBF0074A2F090041D74A0F090041E749EF09023
:100FCF00041F749CF0900420749AF090042174987C
:100FDF00F09004227496F09004237494F0900424FB
:100FEF007492F09004257490F0900426748EF09013
:100FFF000427748CF0900428748AF0900429748864
:10100F00F090042A7486F090042B7484F090042CD2
:10101F007482F090042D7480F090042E747EF09002
:10102F00042F747CF0900430747AF090043174784B
:10103F00F09004327476F09004337474F0900434AA
:10104F007472F09004357470F0900436746EF090F2
:10105F000437746CF0900438746AF0900439746833
:10106F00F090043A7466F090043B7464F090043C82
:10107F007462F090043D7460F090043E745EF090E2
:10108F00043F745CF0900440745AF090044174581B
:10109F00F09004427456F09004437454F09004445A
:1010AF007452F09004457450F0900446744EF090D2
:1010BF000447744CF0900448744AF0900449744803
:1010CF00F090044A7446F090044B7444F090044C32
:1010DF007442F090044D7440F090044E743EF090C2
:1010EF00044F743CF0900450743AF09004517438EB
:1010FF00F09004527436F09004537434F09004540A
:10110F007432F09004557430F0900456742EF090B1
:10111F000457742CF0900458742AF09004597428D2
:10112F00F090045A7426F090045B7424F090045CE1
:10113F007422F090045D7420F090045E741EF090A1
:10114F00045F741CF0900460741AF09004617418BA
:10115F00F09004627416F09004637414F0900464B9
:10116F007412F09004657410F0900466740EF09091
:10117F000467740CF0900468740AF09004697408A2
:10118F00F090046A7406F090046B7404F090046C91
:10119F007402F090046DE4F090046E7401F090040A
:1011AF006F7402F09004707403F09004717404F083
:1011BF009004727405F09004737406F090047474C4
:1011CF0007F09004757408F09004767409F0900499
:1011DF0077740AF0900478740BF0900479740CF023
:1011EF0090047A740DF090047B740EF090047C746C
:1011FF000FF090047D7410F090047E7411F0900441
:10120F007F7412F09004807413F09004817414F0C2
:10121F009004827415F09004837416F09004847413
:10122F0017F09004857418F09004867419F09004E8
:10123F0087741AF0900488741BF0900489741CF062
:10124F0090048A741DF090048B741EF090048C74BB
:10125F001FF090048D7420F090048E7421F0900490
:10126F008F7422F09004907423F09004917424F002
:10127F009004927425F09004937426F09004947463
:10128F0027F09004957428F09004967429F0900438
:10129F0097742AF0900498742BF0900499742CF0A2
:1012AF0090049A742DF090049B742EF090049C740B
:1012BF002FF090049D7430F090049E7431F09004E0
:1012CF009F7432F09004A07433F09004A17434F042
:1012DF009004A27435F09004A37436F09004A474B3
:1012EF0037F09004A57438F09004A67439F0900488
:1012FF00A7743AF09004A8743BF09004A9743CF0E2
:10130F009004AA743DF09004AB743EF09004AC745A
:10131F003FF09004AD7440F09004AE7441F090042F
:10132F00AF7442F09004B07443F09004B17444F081
:10133F009004B27445F09004B37446F09004B47402
:10134F0047F09004B57448F09004B67449F09004D7
:10135F00B7744AF09004B8744BF09004B9744CF021
:10136F009004BA744DF09004BB744EF09004BC74AA
:10137F004FF09004BD7450F09004BE7451F090047F
:10138F00BF7452F09004C07453F09004C17454F0C1
:10139F009004C27455F09004C37456F09004C47452
:1013AF0057F09004C57458F09004C67459F0900427
:1013BF00C7745AF09004C8745BF09004C9745CF061
:1013CF009004CA745DF09004CB745EF09004CC74FA
:1013DF005FF09004CD7460F09004CE7461F09004CF
:1013EF00CF7462F09004D07463F09004D17464F001
:1013FF009004D27465F09004D37466F09004D474A2
:10140F0067F09004D57468F09004D67469F0900476
:10141F00D7746AF09004D8746BF09004D9746CF0A0
:10142F009004DA746DF09004DB746EF09004DC7449
:10143F006FF09004DD7470F09004DE7471F090041E
:10144F00DF7472F09004E07473F09004E17474F040
:10145F009004E27475F09004E37476F09004E474F1
:10146F0077F09004E57478F09004E67479F09004C6
:10147F00E7747AF09004E8747BF09004E9747CF0E0
:10148F009004EA747DF09004EB747EF09004EC7499
:10149F007FF09004ED7480F09004EE7481F090046E
:1014AF00EF7482F09004F07483F09004F17484F080
:1014BF009004F27485F09004F37486F09004F47441
:1014CF0087F09004F57488F09004F67489F0900416
:1014DF00F7748AF09004F8748BF09004F9748CF020
:1014EF009004FA748DF09004FB748EF09004FC74E9
:1014FF008FF09004FD7490F09004FE7491F09004BE
:10150F00FF7492F09005007493F09005017494F0BD
:10151F009005027495F09005037496F0900504748D
:10152F0097F09005057498F09005067499F0900562
:10153F0007749AF0900508749BF0900509749CF05D
:10154F0090050A749DF090050B749EF090050C7435
:10155F009FF090050D74A0F090050E74A1F090050A
:10156F000F74A2F090051074A3F090051174A4F0FD
:10157F0090051274A5F090051374A6F090051474DD
:10158F00A7F090051574A8F090051674A9F09005B2
:10159F001774AAF090051874ABF090051974ACF09D
:1015AF0090051A74ADF090051B74AEF090051C7485
:1015BF00AFF090051D74B0F090051E74B1F090055A
:1015CF001F74B2F090052074B3F090052174B4F03D
:1015DF0090052274B5F090052374B6F0900524742D
:1015EF00B7F090052574B8F090052674B9F0900502
:1015FF002774BAF090052874BBF090052974BCF0DD
:10160F0090052A74BDF090052B74BEF090052C74D4
:10161F00BFF090052D74C0F090052E74C1F09005A9
:10162F002F74C2F090053074C3F090053174C4F07C
:10163F0090053274C5F090053374C6F0900534747C
:10164F00C7F090053574C8F090053674C9F0900551
:10165F003774CAF090053874CBF090053974CCF01C
:10166F0090053A74CDF090053B74CEF090053C7424
:10167F00CFF090053D74D0F090053E74D1F09005F9
:10168F003F74D2F090054074D3F090054174D4F0BC
:10169F0090054274D5F090054374D6F090054474CC
:1016AF00D7F090054574D8F090054674D9F09005A1
:1016BF004774DAF090054874DBF090054974DCF05C
:1016CF0090054A74DDF090054B74DEF090054C7474
:1016DF00DFF090054D74E0F090054E74E1F0900549
:1016EF004F74E2F090055074E3F090055174E4F0FC
:1016FF0090055274E5F090055374E6F0900554741C
:10170F00E7F090055574E8F090055674E9F09005F0
:10171F005774EAF090055874EBF090055974ECF09B
:10172F0090055A74EDF090055B74EEF090055C74C3
:10173F00EFF090055D74F0F090055E74F1F0900598
:10174F005F74F2F090056074F3F090056174F4F03B
:10175F0090056274F5F090056374F6F0900564746B
:10176F00F7F090056574F8F090056674F9F0900540
:10177F006774FAF090056874FBF090056974FCF0DB
:10178F0090056A74FDF090056B74FEF090056C7413
:02179F00FFF059
:1020DC00D295C29522AA83E582900169F0A3EAF019
:1020EC00C295D297C2937A00BA1000503190016910
:1020FC00E0FBA3E0FC30E704D2968002C296C0025B
:10210C001220DCD002900169E0FBA3E0FCCB25E0BF
:10211C00CB33FC900169EBF0A3ECF00A80CAD293AC
:10212C00C297C2952290056D746DF0A37401F09066
:10213C00056F746DF0A37402F0900571746DF0A3CB
:10214C007403F0900573746DF0A37404F09001683F
:10215C00E0FA60030221F8900166E025E0FA246DB4
:10216C00F582E43405F583E0FAA3E0FB90016BE023
:10217C00FCA3E0FDEC2AF582ED3BF583E0FAE4FBF1
:10218C00C454F0CAC4CA6ACA54F0CA6AFB8A04743A
:10219C007F5BFD430380430510430310900167E010
:1021AC00FEBE0216900575ECF074DF5DA3F0900591
:1021BC0077EAF074DF5BA3F08014900575ECF07493
:1021CC00204DA3F0900577EAF074204BA3F0900516
:1021DC0075E0FAA3E0FB8A828B831220E1900577ED
:1021EC00E0FAA3E0FB8A828B831220E190016BE082
:1021FC00FAA3E0FBBAFF0CBB000990016BE4F0A35F
:10220C00F0800B90016B74012AF0E43BA3F02222C6
:10221C0022AA83E582900579F0A3EAF0900579E093
:10222C00FAA3E0FBC454F0CAC4CA6ACA54F0CA6A1E
:10223C00FB8A04747F5BFD4303804305104303104A
:10224C005305DF5303DF8C828D83C002C003122041
:10225C00E1D003D0028A828B830220E1900168E0F6
:10226C00FA700A9001687401F0C28C8007900168C2
:10227C00E4F0D28C22900166E0FABA030790016672
:10228C00E4F0800790016674012AF02290016774D3
:10229C0002F0229001677401F022AA83E582900576
:1022AC007CF0A3EAF090057CE0FAA3E0FB30E703B6
:1022BC00022348C3740F9A74808BF063F08095F0FE
:1022CC005003022348EA2A2A9022D87302230C02D4
:1022DC00230802231002231402231802231C0223B6
:1022EC002002232402232802232C0223300223342D
:1022FC0002233802233C02234002234475823122FC
:10230C007582302275823222758233227582342294
:10231C007582352275823622758237227582382273
:10232C00758239227582412275824222758243223E
:10233C00758244227582452275824622758230222E
:10234C00E58290057EF090057EE0FABA3000400EF2
:10235C00EA24C64009EA24D090057EF08046900518
:10236C007EE0FABA6100401AEA24994015EA249FEB
:10237C0090057EF090057EE0FA90057E740A2AF0B6
:10238C00802290057EE0FABA41004018EA24994078
:10239C0013EA24BF90057EF090057EE0FA90057E4E
:1023AC00740A2AF090057EE0F58222AA82AB83ACF7
:1023BC00F0FD900580EAF0A3EBF0A3ECF0A3EDF0B8
:1023CC0090057FE0FA900580E0FBA3E0FCA3E0FD24
:1023DC00A3E0FEC3740F9BE49CE49DE49EE433FFF6
:1023EC00C374FF9BE49CE49DE49EE433F8C374FF48
:1023FC009B740F9CE49DE49EE433FBC374818AF0D0
:10240C0063F08095F0505FBA0202803EBA030280FE
:10241C001EBA044FEB704C758230C002C003C0076B
:10242C00C000122532D000D007D003D0028034E88F
:10243C007031758230C002C003C007C00012253253
:10244C00D000D007D003D0028019EF7016758230FF
:10245C00C002C003C007C000122532D000D007D084
:10246C0003D0021A8095EA2484FEE43405FF90051B
:10247C0080E0F508A3E0F509A3E0F50AA3E0F50B6D
:10248C00740F5508F97B007C007D0089828B83C01A
:10249C0002C006C0071222A6AB82D007D006D0021B
:1024AC008E828F83EBF0AB08E509C4CBC4540F6B61
:1024BC00CB540FCB6BCBFCE50AC454F04CFCAD0AEF
:1024CC00E50BC4CDC4540F6DCD540FCD6DCDFE9026
:1024DC000580EBF0A3ECF0A3EDF0A3EEF00A900571
:1024EC0080E0FBA3E0FCA3E0FDA3E0FEEB4C4D4E33
:1024FC006003022472EA1490058EF090058EE0FAC7
:10250C00EA20E718EA2484F582E43405F583E0FB3D
:10251C00F582C002122532D0021A80E422109802F1
:10252C0080FB85998222E58290058FF03099FD9091
:10253C00058FE0F599C2992243A88043B8104389CE
:10254C0020439850438840758DFDD29922AA83E58B
:10255C0082900590F0A3EAF0900590E0FAA3E0FBDE
:10256C008A828B83E0FC601C8C82C002C003122523
:10257C0032D003D0020ABA00010B900590EAF0A306
:10258C00EBF080DC900590EAF0A3EBF022AA82AB92
:10259C0083ACF0FD900592EAF0A3EBF0A3ECF0A372
:1025AC00EDF0900592E0FAA3E0FBA3E0FCA3E0FDC4
:1025BC0030E74375822DC002C003C004C00512254C
:1025CC0032D005D004D003D0029005E974FFF0A3FB
:1025DC00F0A374FFF0A3F08A828B838CF0ED122EA3
:1025EC0098AA82AB83ACF0FD900592EAF0A3EBF0D5
:1025FC00A3ECF0A3EDF07A00EA2496FEE43405FF98
:10260C00900592E0F50CA3E0F50DA3E0F50EA3E028
:10261C00F50F9005C2740AF0E4A3F0A3F0A3F085C3
:10262C000C82850D83850EF0E50FC002C006C00735
:10263C0012295AA982AB83ACF0FDD007D006D00288
:10264C00743029F98E828F83F09005D3740AF0E4EC
:10265C00A3F0A3F0A3F0850C82850D83850EF0E525
:10266C000FC002122B64AB82AC83ADF0FED0029093
:10267C000592EBF0A3ECF0A3EDF0A3EEF00A9005BD
:10268C0092E0FBA3E0FCA3E0FDA3E0FEC3E49BE42B
:10269C009CE49D74808EF063F08095F050030226CC
:1026AC0004EA149005A0F09005A0E0FAEA20E718DF
:1026BC00EA2496F582E43405F583E0FBF582C0024A
:1026CC00122532D0021A80E422E5829005A1F09006
:1026DC0005A2E4F09005B7F09005B8F0A3F09005D2
:1026EC00A2E0FABA0D0302277B122529AA829005D3
:1026FC00A2EAF0BA30004005EA24C65014BA6100D0
:10270C004005EA2499500ABA4100403CEA24B940F9
:10271C00378A82C002122532D0029005B7E0FB2422
:10272C00A3FCE43405FD8A82C003C004C005122357
:10273C004CAE82D005D004D0038C828D83EEF09009
:10274C0005B774012BF08096BA080280030226EAC2
:10275C007582081225327582201225327582081274
:10276C0025329005B7E0FA149005B7F00226EA90EE
:10277C0005A1E0FA9005B7E0FB7C00C3EC9B50533D
:10278C009005B8E0FDA3E0FE9005E7EAF0A3E4F0C5
:10279C008D828E83C002C003C004122E78E5828520
:1027AC0083F0D004D003D0029005B8F0A3E5F0F08C
:1027BC00EC24A3F582E43405F583E0FD7E0090055E
:1027CC00B8E0FFA3E0F89005B8ED2FF0EE38A3F0D9
:1027DC000C80A89005B8E0FAA3E08A82F58322AABF
:1027EC0082AB83ACF0FD9005BAEAF0A3EBF0A3EC5E
:1027FC00F0A3EDF09005BAE0FAA3E0FBA3E0FCA394
:10280C00E0FD7E007F0078007900C3EE9AEF9BE834
:10281C009CE99D5038751C60751D04751E00751F54
:10282C0000151C74FFB51C0C151DB51D07151EB528
:10283C001E02151FE51C451D451E451F70E30EBEEF
:10284C0000C80FBF00C408B800C00980BD22AA820E
:10285C00AB83ACF0FD9005BEEAF0A3EBF0A3ECF07B
:10286C00A3EDF09005BEE0F510A3E0F511A3E0F5A3
:10287C0012A3E0F5137E007F0078007900851082AA
:10288C008511838512F0E513C006C007C000C00196
:10289C00122E35AA82AB83ACF0FDD001D000D0074C
:1028AC00D006C006C007C000C0017429C0E0745C2B
:1028BC00C0E0748FC0E0743FC0E08A828B838CF0E0
:1028CC00ED122C2F85821485831585F016F517E5EE
:1028DC008124FCF581D001D000D007D0068E828FE8
:1028EC008388F0E9C006C007C000C001122E35AACB
:1028FC0082AB83ACF0FDD001D000D007D006C0066F
:10290C00C007C000C001C014C015C016C0178A8211
:10291C008B838CF0ED122E48AA82E58124FCF58184
:10292C00D001D000D007D006EA60100EBE00090F0F
:10293C00BF000508B800010902288922C0E0C08246
:10294C00C08390057BE4F0D083D082D0E032AA82A1
:10295C00AB83ACF0FD9005C6EAF0A3EBF0A3ECF072
:10296C00A3EDF09005C6E0FAA3E0FBA3E0FCA3E026
:10297C00FD30E70FC3E49AFEE49BFFE49CF8E49D72
:10298C00F980088A068B078C008D018E028F0388D4
:10299C000489059005C2E0FEA3E0FFA3E0F8A3E0E4
:1029AC00F930E713C3E49EF518E49FF519E498F5A4
:1029BC001AE499F51B80088E188F19881A891B90B8
:1029CC0005CAE518F0A3E519F0A3E51AF0A3E51B79
:1029DC00F08A828B838CF0ED122A1BAA82AB83AC1B
:1029EC00F0FD9005C6E0FEA3E0FFA3E0F8A3E0F93C
:1029FC0030E714C3E49AFEE49BFFE49CF8E49DF9F1
:102A0C008E828F8388F0228A828B838CF0ED22AAAF
:102A1C0082AB83ACF0FD9005CEEAF0A3EBF0A3EC17
:102A2C00F0A3EDF09005D2E4F09005CEE0FAA3E02F
:102A3C00FBA3E0FCA3E0FD7E009005CAE0F51CA31F
:102A4C00E0F51DA3E0F51EA3E0F51FE51F235401DF
:102A5C00FF7078C006E51C25E0FFE51D33F8E51E88
:102A6C0033F9E51F33FE9005CAEFF0A3E8F0A3E9B4
:102A7C00F0A3EEF09005CAE0F51CA3E0F51DA3E071
:102A8C00F51EA3E0F51FC3EA951CEB951DEC951EF6
:102A9C00ED951FE433D0066029E51FC313F51FE540
:102AAC001E13F51EE51D13F51DE51C13F51C9005F5
:102ABC00CAE51CF0A3E51DF0A3E51EF0A3E51FF08D
:102ACC0080090E9005D2EEF0022A459005D2E0FA6C
:102ADC009005CEE0FBA3E0FCA3E0FDA3E0FE900597
:102AEC00CAE0F51CA3E0F51DA3E0F51EA3E0F51F5D
:102AFC00C3EB951CEC951DED951EEE951F401790A4
:102B0C0005CEEBC3951CF0EC951DA3F0ED951EA323
:102B1C00F0EE951FA3F09005CAE0FBA3E0FCA3E048
:102B2C00FDA3E0FEC313FEED13FDEC13FCEB13FB56
:102B3C009005CAF0A3ECF0A3EDF0A3EEF08A031A13
:102B4C00EB708D9005CEE0FAA3E0FBA3E0FCA3E0D4
:102B5C00FD8A828B838CF022AA82AB83ACF0FD9031
:102B6C0005D7EAF0A3EBF0A3ECF0A3EDF09005D7BA
:102B7C00E0FAA3E0FBA3E0FCA3E0FD30E70FC3E425
:102B8C009AFEE49BFFE49CF8E49DF980088A068B8E
:102B9C00078C008D018E028F03880489059005D364
:102BAC00E0FEA3E0FFA3E0F8A3E0F933E433F52162
:102BBC00E5216013C3E49EF522E49FF523E498F528
:102BCC0024E499F52580088E228F2388248925906A
:102BDC0005DBE522F0A3E523F0A3E524F0A3E5252E
:102BEC00F08A828B838CF0ED122D00AA82AB83AC21
:102BFC00F0FD9005D7E0FEA3E0FFA3E0F8A3E0F919
:102C0C0033E43365216014C3E49AFEE49BFFE49C37
:102C1C00F8E49DF98E828F8388F0228A828B838CD4
:102C2C00F0ED22122CD2BC0003022F6EEF60FA30B2
:102C3C00D502B2D1E583B4FF03022F84E582B4FF41
:102C4C0003022F84258340072482400B022F6E241D
:102C5C0083145003022F84F582EA8DF0A4A8F0EAC5
:102C6C008EF0A428F8E435F0F9EB8DF0A428E935C2
:102C7C00F0F9E433CA8FF0A429F9EA35F0FAEBF84D
:102C8C008EF0A429F9EA35F0FAE433FBEC8DF0A4CC
:102C9C0029F9EA35F0FAE43BFBE88FF0A42AFAEBC9
:102CAC0035F0FBE433CCFD8EF0A42AFAEB35F0FBC7
:102CBC00E43CFCED8FF0A42BFBEC35F0FC20E7039F
:102CCC00122E0C022F4DAA82AB83A2F73392D16045
:102CDC0002D2F7F582ACF0E58124F9F8E6FD08E6BE
:102CEC00FE0886F008E6A2F73392D56002D2F7F51B
:102CFC0083AFF022AA82AB83ACF0FD9005DFEAF043
:102D0C00A3EBF0A3ECF0A3EDF09005E3E4F0A3F05B
:102D1C00A3F0A3F09005DBE0FAA3E0FBA3E0FCA397
:102D2C00E0FD751C209005DFE0FFA3E0F8A3E0F9BF
:102D3C00A3E0FE339200EF2FFFE833F8E933F9EE0E
:102D4C0033FE9005DFEFF0A3E8F0A3E9F0A3EEF07B
:102D5C009005E3E0FEA3E0FFA3E0F8A3E0F9EE2E7C
:102D6C00FEEF33FFE833F8E933F99005E3EEF0A317
:102D7C00EFF0A3E8F0A3E9F030001E9005E3E0FFCC
:102D8C00A3E0F8A3E0F9A3E0FE9005E374014FF093
:102D9C00A3E8F0A3E9F0A3EEF09005E3E0FEA3E0D6
:102DAC00FFA3E0F8A3E0F9C3EE9AEF9BE89CE99D42
:102DBC0040319005E3EEC39AF0EF9BA3F0E89CA39F
:102DCC00F0E99DA3F09005DFE0FEA3E0FFA3E0F89F
:102DDC00A3E0F99005DF74014EF0A3EFF0A3E8F047
:102DEC00A3E9F0D51C028003022D319005DFE0FA37
:102DFC00A3E0FBA3E0FCA3E0FD8A828B838CF02292
:06005500E478FFF6D8FD7F
:102E0C007804EC700DC9CACBFCE58224F8F582D8A5
:102E1C00F122782020E7111582C3E933F9EA33FA5D
:092E2C00EB33FBEC33FCD8EC2283
:100033007900E94400601B7A00902F9C78ED75A04D
:1000430005E493F2A308B8000205A0D9F4DAF27527
:02005300A0FF0C
:102E3500FCABF0AA83A982749EC2D1F582122E0C36
:102E4500022F4DFFA8811818122F22D2D133E64048
:102E55000730E70B7582002220E70675820122C242
:102E6500D1122F04E97003F5822220D101B3E43396
:102E7500F58222AA83AB828BF09005E7E0A4F8A93E
:102E8500F08AF0E0A429F98BF0A3E0A429F5838862
:102E9500822222A882A983AAF0FB88F09005E9E0A6
:102EA500A4FCADF089F0E0A42DFDE435F0FE88F03A
:102EB500A3E0A42DFDE5F03EFEE433FF89F0E0A498
:102EC5002EFEE5F03FFF88F0A3E0A42EFEE5F03FDF
:102ED500FF8AF09005E9E0A42EFEE5F03FFF8BF0B8
:102EE500E0A42FFF8AF0A3E0A42FFF89F0A3E0A4BC
:0F2EF5002FFF88F0A3E0A42F8EF08D838C822214
:10005B007800E84400600A790075A000E4F309D841
:10006B00FC78EDE84405600C7906900000E4F0A301
:04007B00D8FCD9FADA
:102F04007901AA82E68F82B5821318E6B5F00E180D
:102F1400E6B5830918E68A82B58202790022B48074
:102F24000FE5F0700AE5837006E58270027F00EF1A
:102F3400B6801518B6001018B6000B18B6000608AF
:102F4400080876002208080822B98003EA13B3406F
:102F540010EA2401FAE43BFBE43CFC50047C8005C9
:102F640082BC000EBB000BBA0008E4F5F0F583F553
:102F74008222A2D1E582138CF092F78B838A82227B
:102F8400E4F583F58275F080F4A2D11322E4F5838D
:082F9400F58275F0C0747F2284
:0D0026007581251217A9E58260030217A459
:00000001FF
