:060000000200060202AA44
:10005F0002006212093C80FEE582900400F07AFFF4
:10006F007BFF900400E0FC8A828B83F022438E0C8E
:10007F009000002210980280FB85998222E58290E1
:10008F000401F03099FD900401E0F599C2992275B1
:10009F008F0143A880438920439850438840758D32
:1000AF00FDD29922AA83E582900402F0A3EAF09090
:1000BF000402E0FAA3E0FB8A828B83E0FC601C8CD5
:1000CF0082C002C00312008CD003D0020ABA000112
:1000DF000B900402EAF0A3EBF080DC900402EAF04C
:1000EF00A3EBF022AA82AB83ACF0FD900404EAF0FC
:1000FF00A3EBF0A3ECF0A3EDF07A00EA2408FEE402
:10010F003404FF900404E0F508A3E0F509A3E0F53B
:10011F000AA3E0F50B900609740AF0E4A3F0A3F02C
:10012F00A3F0850882850983850AF0E50BC002C01C
:10013F0006C007120FA3A982AB83ACF0FDD007D086
:10014F0006D002743029F98E828F83F090061274D4
:10015F000AF0E4A3F0A3F0A3F08508828509838554
:10016F000AF0E50BC0021210ECAB82AC83ADF0FECF
:10017F00D002900404EBF0A3ECF0A3EDF0A3EEF0AB
:10018F000A900404E0FBA3E0FCA3E0FDA3E0FEEB78
:10019F004C4D4E600302010AEA14900412F09004D1
:1001AF0012E0FAEA20E718EA2408F582E43404F5AD
:1001BF0083E0FBF582C00212008CD0021A80E42289
:1001CF00900413E4F090041EF090041FF0A3F0903D
:1001DF000413E0FABA0D02805A120083AA82900427
:1001EF0013EAF0BA3000402AEA24C640258A82C0BA
:1001FF000212008CD00290041EE0FB2414F582E45E
:10020F003404F583EA24D0FCF090041E74012BF023
:10021F0080BDBA08BA75820812008C758220120050
:10022F008C75820812008C90041EE0FA1490041E44
:10023F00F0809C90041EE0FA7B00C3EB9A50509024
:10024F00041FE0FCA3E0FD90061E740AF0E4A3F087
:10025F008C828D83C002C0031211F8E5828583F072
:10026F00D003D00290041FF0A3E5F0F0EB2414F5B7
:10027F0082E43404F583E0FC7D0090041FE0FEA3CC
:10028F00E0FF90041FEC2EF0ED3FA3F00B80AB903E
:10029F00041FE0FAA3E08A82F5832253A8FE53B825
:1002AF00FE53D97F5387FE32900421740AF09004D5
:1002BF0022740DF09004237450F09004247457F0BE
:1002CF00900425744DF09004267420F09004277448
:1002DF0073F09004287474F09004297461F0900402
:1002EF002A7472F090042B7474F090042C7465F0DF
:1002FF0090042D7464F090042E7420F090042F74E9
:10030F006FF0900430746EF09004317420F090040C
:10031F00327450F09004337431F0900434742EF032
:10032F009004357433F0900436E4F09004211200F9
:10033F00B375D90275E90075F90075EA8C75FA8CF9
:10034F0075D84075DA4222900437740AF090043859
:10035F00740DF09004397448F090043A7469F09079
:10036F00043B7467F090043C7468F090043D742073
:10037F00F090043E7453F090043F7470F09004407A
:10038F007465F09004417465F09004427464F090C9
:10039F0004437420F09004447454F0900445746F37
:1003AF00F09004467467F09004477467F090044827
:1003BF00746CF09004497465F090044A7420F090C6
:1003CF00044B7473F090044C7474F090044D74618A
:1003DF00F090044E7472F090044F7474F0900450C7
:1003EF007465F09004517464F09004527420F0908E
:1003FF000453746FF0900454746EF090045574208D
:10040F00F09004567450F09004577431F0900458E3
:10041F00742EF09004597433F090045AE4F0900461
:10042F00371200B375D90275EA0075FA0075D84016
:10043F0075DA4C2290045B740AF090045C740DF032
:10044F0090045D7457F090045E7461F090045F74D3
:10045F0074F09004607463F09004617468F0900419
:10046F00627464F0900463746FF09004647467F0C6
:10047F009004657420F09004667469F090046774BA
:10048F0073F09004687420F0900469746FF0900416
:10049F006A746EF090046B742EF090046CE4F0901C
:1004AF00046D740AF090046E740DF090046F74571D
:1004BF00F09004707461F09004717474F090047291
:1004CF007463F09004737468F09004747464F09023
:1004DF000475746FF09004767467F090047774204D
:1004EF00F09004787469F09004797473F090047A42
:1004FF007420F090047B746FF090047C7466F0901D
:10050F00047D7466F090047E742EF090047FE4F006
:10051F00900620E0FA700D90045B1200B390062055
:10052F007401F02290046D1200B3900620E4F022C3
:10053F00900620E0FABA011175EE0075FEFF43D95F
:10054F004075D84043DE4C800353D9BF22900480BE
:10055F00740AF0900481740DF09004827450F0903E
:10056F0004837457F0900484744DF09004857420C4
:10057F00F09004867473F09004877474F09004887C
:10058F00746FF09004897470F090048A7470F09016
:10059F00048B7465F090048C7464F090048DE4F017
:1005AF009004801200B353DABD2290048E740AF0C7
:1005BF0090048F740DF0900490746DF0900491740A
:1005CF0069F0900492746EF09004937469F0900443
:1005DF0094746DF09004957475F0900496746DF0AA
:1005EF009004977420F09004987466F090049974B6
:1005FF0072F090049A7465F090049B7471F09004FB
:10060F009C7475F090049D7465F090049E746EF068
:10061F0090049F7463F09004A07479F09004A1E4A7
:10062F00F090048E1200B3759700229004A2740A02
:10063F00F09004A3740DF09004A4746DF09004A5D1
:10064F007461F09004A67478F09004A77469F09028
:10065F0004A8746DF09004A97475F09004AA746DD9
:10066F00F09004AB7420F09004AC7466F09004AD7D
:10067F007472F09004AE7465F09004AF7471F090E2
:10068F0004B07475F09004B17465F09004B2746E98
:10069F00F09004B37463F09004B47479F09004B5DF
:1006AF00E4F09004A21200B37597FF229004B67481
:1006BF000AF09004B7740DF09004B87449F09004E8
:1006CF00B97464F09004BA746CF09004BB7465F064
:1006DF009004BC7420F09004BD744DF09004BE746F
:1006EF006FF09004BF7464F09004C07465F09004D0
:1006FF00C1742EF09004C27420F09004C37450F0B3
:10070F009004C47472F09004C57465F09004C674BC
:10071F0073F09004C77473F09004C87420F09004C1
:10072F00C9742FF09004CA7449F09004CB744EF042
:10073F009004CC7454F09004CD7430F09004CE74C7
:10074F0020F09004CF7473F09004D07477F090047D
:10075F00D17469F09004D27474F09004D37463F080
:10076F009004D47468F09004D57420F09004D6747B
:10077F0074F09004D7746FF09004D87420F0900444
:10078F00D97457F09004DA7461F09004DB746BF055
:10079F009004DC7465F09004DD7420F09004DE7436
:1007AF0075F09004DF7470F09004E0742EF09004F4
:1007BF00E1E4F09004B61200B343A80143B801532B
:1007CF00D97F438701229004E2740AF09004E37406
:1007DF000DF09004E47450F09004E5746FF0900401
:1007EF00E67477F09004E77465F09004E87472F0A3
:1007FF009004E97420F09004EA7444F09004EB74D0
:10080F006FF09004EC7477F09004ED746EF0900438
:10081F00EE7420F09004EF744DF09004F0746FF0CC
:10082F009004F17464F09004F27465F09004F3E4B2
:10083F00F09004E21200B3438702229004F4740A8A
:10084F00F09004F5740DF09004F67449F09004F7ED
:10085F007473F09004F87420F09004F97474F090AD
:10086F0004FA7468F09004FB7465F09004FC742033
:10087F00F09004FD744CF09004FE7445F09004FF6A
:10088F007444F09005007420F09005017462F090AC
:10089F000502746CF09005037469F0900504746E92
:1008AF00F0900505746BF09005067469F0900507DC
:1008BF00746EF09005087467F0900509743FF0901E
:1008CF00050AE4F012053F9004F41200B37A007B9E
:1008DF00007C007D00C3EA9432EB9400EC9400EDB1
:1008EF00940050487E107F27780079001EBEFF09C4
:1008FF001FBFFF0518B8FF0119EE4F484970ED747F
:10090F00015AFE7F0078007900BE010EBF000BB8C0
:10091F000008B9000543900180035390FE0ABA0006
:10092F00090BBB00050CBC00AC0D80A92290050B78
:10093F00740AF090050C740DF090050D744DF09045
:10094F00050E746FF090050F746EF09005107469BA
:10095F00F09005117473F09005127468F090051300
:10096F007420F0900514744EF09005157465F09096
:10097F000516746EF09005177465F09005187420C5
:10098F00F09005197445F090051A7453F090051BFB
:10099F007444F090051C7420F090051D7453F09072
:1009AF00051E7470F090051F7472F0900520746925
:1009BF00F0900521746EF09005227467F090052376
:1009CF007420F09005247432F09005257430F09067
:1009DF0005267431F09005277438F090052874209F
:1009EF00F0900529744CF090052A7461F090052B56
:1009FF007462F090052C7420F090052D7433F090F4
:100A0F00052E7420F090052F7453F09005307475F7
:100A1F00F09005317470F09005327470F0900533DA
:100A2F00746CF09005347465F0900535746DF0902A
:100A3F0005367465F0900537746EF0900538747450
:100A4F00F09005397461F090053A746CF090053BA5
:100A5F00E4F090053C740AF090053D740DF090059C
:100A6F003E7450F090053F7472F09005407465F03D
:100A7F009005417473F09005427473F090054374C0
:100A8F0020F09005447427F09005457452F09005BE
:100A9F00467427F0900547742DF0900548743EF08A
:100AAF009005497420F090054A7472F090054B74CC
:100ABF0075F090054C746EF090054D7420F0900514
:100ACF004E7450F090054F7457F0900550744DF0E0
:100ADF00900551742CF09005527420F090055374CA
:100AEF0027F09005547453F09005557427F0900536
:100AFF0056742DF0900557743EF09005587420F001
:100B0F009005597473F090055A7474F090055B74E6
:100B1F006FF090055C7470F090055D7420F0900597
:100B2F005E7450F090055F7457F0900560744DF04F
:100B3F00900561742CF09005627420F09005637439
:100B4F0027F0900564742BF09005657427F09005DD
:100B5F0066742DF0900567743EF09005687420F070
:100B6F00900569744DF090056A7461F090056B748F
:100B7F0078F090056C7469F090056D746DF09005C8
:100B8F006E7475F090056F746DF09005707420F0B1
:100B9F009005717446F09005727472F0900573743D
:100BAF0071F09005747475F09005757465F090058B
:100BBF0076746EF09005777463F09005787479F021
:100BCF009005797420F090057A742CF090057B7461
:100BDF0027F090057C742DF090057D7427F090051B
:100BEF007E742DF090057F743EF09005807420F098
:100BFF00900581744DF09005827469F090058374AF
:100C0F006EF09005847469F0900585746DF0900511
:100C1F00867475F0900587746DF09005887420F0D8
:100C2F009005897446F090058A7472F090058B7464
:100C3F0065F090058C7471F090058D7475F09005CA
:100C4F008E7465F090058F746EF09005907463F05C
:100C5F009005917479F0900592742CF0900593742F
:100C6F0027F09005947449F09005957427F090053E
:100C7F0096742DF0900597743EF09005987420F0BF
:100C8F009005997445F090059A746EF090059B74D9
:100C9F0074F090059C7465F090059D7472F090054A
:100CAF009E7420F090059F7449F09005A07464F035
:100CBF009005A1746CF09005A27465F09005A37473
:100CCF0020F09005A4744DF09005A5746FF0900579
:100CDF00A67464F09005A77465F09005A8742CF0C5
:100CEF009005A97420F09005AA7427F09005AB74B5
:100CFF0050F09005AC7427F09005AD742DF0900571
:100D0F00AE743EF09005AF7445F09005B0746EF080
:100D1F009005B17474F09005B27465F09005B374DA
:100D2F0072F09005B47420F09005B57450F09005F2
:100D3F00B6746FF09005B77477F09005B87465F0DE
:100D4F009005B97472F09005BA7420F09005BB74D9
:100D5F0044F09005BC746FF09005BD7477F090056A
:100D6F00BE746EF09005BF7420F09005C0744DF006
:100D7F009005C1746FF09005C27464F09005C37450
:100D8F0065F09005C4742CF09005C57420F09005A3
:100D9F00C67427F09005C77457F09005C87427F0F4
:100DAF009005C9742DF09005CA743EF09005CB7470
:100DBF0020F09005CC7457F09005CD7461F090053C
:100DCF00CE7474F09005CF7463F09005D07468F012
:100DDF009005D17464F09005D2746FF09005D374C0
:100DEF0067F09005D47420F09005D57453F09005FA
:100DFF00D67477F09005D77469F09005D87474F0B5
:100E0F009005D97463F09005DA7468F09005DB747F
:100E1F002CF09005DC7420F09005DD7427F0900520
:100E2F00DE744CF09005DF7427F09005E07420F02D
:100E3F009005E1742DF09005E2743EF09005E37497
:100E4F0020F09005E4744CF09005E57445F09005A2
:100E5F00E67444F09005E77420F09005E87474F0A0
:100E6F009005E9746FF09005EA7467F09005EB74E4
:100E7F0067F09005EC746CF09005ED7465F09005DB
:100E8F00EE742CF09005EF7420F09005F07427F0BD
:100E9F009005F17448F09005F27427F09005F37403
:100EAF0020F09005F4742DF09005F5743EF0900548
:100EBF00F67420F09005F77448F09005F87469F017
:100ECF009005F97467F09005FA7468F09005FB745B
:100EDF0020F09005FC7453F09005FD7470F09005B0
:100EEF00FE7465F09005FF7465F09006007464F071
:100EFF009006017420F09006027454F0900603746B
:100F0F006FF09006047467F09006057467F0900612
:100F1F0006746CF09006077465F0900608E4F01202
:100F2F00009E90050B1200B390053C1200B3120007
:100F3F0083AA82BA2B028037BA2D02803CBA4802AC
:100F4F008032BA49028037BA4C02803CBA500280D4
:100F5F0032BA5202800ABA5302800FBA572F800555
:100F6F001202B780C912044380C412055C80BF12FD
:100F7F00063A80BA12035680B51205B980B0120630
:100F8F00BB80AB1207D580A612084A80A18A8212B5
:040F9F00008C809AA8
:0112180000D5
:100FA300AA82AB83ACF0FD90060DEAF0A3EBF0A3AD
:100FB300ECF0A3EDF0900611E4F090060DE0FAA337
:100FC300E0FBA3E0FCA3E0FD7E00900609E0F50C46
:100FD300A3E0F50DA3E0F50EA3E0F50FE50F235411
:100FE30001FF7078C006E50C25E0FFE50D33F8E559
:100FF3000E33F9E50F33FE900609EFF0A3E8F0A3F3
:10100300E9F0A3EEF0900609E0F50CA3E0F50DA3DB
:10101300E0F50EA3E0F50FC3EA950CEB950DEC9507
:101023000EED950FE433D0066029E50FC313F50FDA
:10103300E50E13F50EE50D13F50DE50C13F50C9008
:101043000609E50CF0A3E50DF0A3E50EF0A3E50F0B
:10105300F080090E900611EEF0020FCD900611E01C
:10106300FA90060DE0FBA3E0FCA3E0FDA3E0FE90F5
:101073000609E0F50CA3E0F50DA3E0F50EA3E0F5FA
:101083000FC3EB950CEC950DED950EEE950F4017F8
:1010930090060DEBC3950CF0EC950DA3F0ED950EBA
:1010A300A3F0EE950FA3F0900609E0FBA3E0FCA3E9
:1010B300E0FDA3E0FEC313FEED13FDEC13FCEB1305
:1010C300FB900609F0A3ECF0A3EDF0A3EEF08A0386
:1010D3001AEB708D90060DE0FAA3E0FBA3E0FCA3EE
:1010E300E0FD8A828B838CF022AA82AB83ACF0FD75
:1010F300900616EAF0A3EBF0A3ECF0A3EDF0900654
:101103001AE4F0A3F0A3F0A3F0900612E0FAA3E030
:10111300FBA3E0FCA3E0FD750C20900616E0FFA303
:10112300E0F8A3E0F9A3E0FE339200EF2FFFE833EA
:10113300F8E933F9EE33FE900616EFF0A3E8F0A3D7
:10114300E9F0A3EEF090061AE0FEA3E0FFA3E0F8B7
:10115300A3E0F9EE2EFEEF33FFE833F8E933F9901D
:10116300061AEEF0A3EFF0A3E8F0A3E9F030001EB7
:1011730090061AE0FFA3E0F8A3E0F9A3E0FE9006CF
:101183001A74014FF0A3E8F0A3E9F0A3EEF0900680
:101193001AE0FEA3E0FFA3E0F8A3E0F9C3EE9AEFA1
:1011A3009BE89CE99D403190061AEEC39AF0EF9BB1
:1011B300A3F0E89CA3F0E99DA3F0900616E0FEA33C
:1011C300E0FFA3E0F8A3E0F990061674014EF0A344
:1011D300EFF0A3E8F0A3E9F0D50C02800302111DA0
:1011E300900616E0FAA3E0FBA3E0FCA3E0FD8A82ED
:0511F3008B838CF0224B
:06003500E478FFF6D8FD9F
:100013007901E94400601B7A01901218782075A0D9
:1000230006E493F2A308B8000205A0D9F4DAF27546
:02003300A0FF2C
:1011F800AA83AB828BF090061EE0A4F8A9F08AF0CF
:10120800E0A429F98BF0A3E0A429F583888222229F
:10003B007800E84400600A790075A000E4F309D861
:10004B00FC7820E84402600C7903900400E4F0A3F0
:04005B00D8FCD9FAFA
:0D00060075812012007CE58260030200621B
:00000001FF
