:100082007582011200A67582000200A6E582900028
:1000920003F0900003E0FABA0104D2948005EA70FA
:1000A20002C29422E582900004F0900004E0FABAC1
:1000B2000104D2928005EA7002C2922212008220CA
:1000C20094FD227582001200A675820112008E75BF
:1000D20082011200A675820002008E758201120052
:1000E2008E7582011200A675820012008E75820042
:1000F2000200A675820012008E7582011200A6759A
:10010200820112008E7582000200A6E5829000052F
:10011200F07582001200A67A00BA080050339000EF
:1001220005E0FB30E70C758201C00212008ED0029E
:10013200800A758200C00212008ED002C002120034
:1001420082D002900005E025E0FB900005F00A80D5
:10015200C875820002008E900006E4F075820112DA
:10016200008E7A00BA08005037758201C002120070
:10017200A6D002900006E025E0FB900006F0309445
:100182000A900006E0FB4401F08008900006E0FBC4
:1001920054FEF0758200C0021200A6D0020A80C48A
:1001A200900006E0F58222AA83E582900008F0A37F
:1001B200EAF0900008E0FAA3E0FB90000AEAF0EB14
:1001C200A2E7CA33CA33CA5401FB900008EAF0A37B
:1001D200EBF0900008E0FAA3E0FB74A04A54AEFAF8
:1001E200C0021200DDD0028A8212010D1200BE90FE
:1001F200000AE0FAF58212010D1200BE900007E03B
:10020200FAF58212010D1200BE0200F5AA83E58200
:1002120090000BF0A3EAF090000BE0FAA3E0FB9051
:10022200000DEAF0EBA2E7CA33CA33CA5401FB90CD
:10023200000BEAF0A3EBF090000BE0FAA3E0FB74F2
:10024200A04A54AEFAC0021200DDD0028A82C00275
:1002520012010DD002C0021200BED00290000DE0C9
:10026200FBF582C00212010DD002C0021200BED004
:1002720002430201C0021200DDD0028A8212010D85
:100282001200BE120159AA82C0021200C5D002C0D9
:10029200021200F5D0028A822290000E740AF090B7
:1002A200000F740DF09000107449F0900011743238
:1002B200F09000127443F09000137420F090001438
:1002C2007445F09000157445F09000167450F0904B
:1002D20000177452F0900018744FF0900019744D8A
:1002E200F090001A7420F090001B7448F090001CEB
:1002F2007465F090001D7478F090001E7464F090A4
:10030200001F7475F0900020746DF09000217470DD
:10031200F0900022E4F090000E1226347A007B0066
:100322007C00BC8000400302040475820AC002C043
:1003320003C00412260DD004D003D00275820DC072
:1003420002C003C00412260DD004D003D0028A05D5
:100352008B067F0078009004347403F08D828E83C4
:100362008FF0E8C002C003C004122492D004D0036C
:10037200D00275823AC002C003C00412260DD00416
:10038200D003D0028A088B097F00BF10005068C0DA
:1003920004758220C002C003C004C00712260DD01B
:1003A20007D004D003D0028F007900E82508F8E9CD
:1003B2003509F988828983C002C003C004C00712CC
:1003C200020EA882D007D004D003D00279007C00AC
:1003D2007D009004347402F0888289838CF0EDC031
:1003E20002C003C004C007122492D007D004D00375
:1003F200D0020FD004809374102AFAE43BFB0C0263
:100402000324221200DD7A09758201C00212008ED5
:10041200D002C002120082D002DAED0200F5900092
:100422000FE4F5F01228669080007430F090000519
:10043200E4F5F01228669080007430F0900001E438
:10044200F5F01228669080007430F0758238120937
:10045200B97582081209B975820F1209B975820637
:100462001209B97582010209B99000267480F090D0
:10047200002774C0F09000287490F090002974D086
:10048200F0900025E0FABA03004007900025E4F05E
:10049200800790002574012AF0900025E0FA2426B6
:1004A200F582E43400F583E0FAF582020731909098
:1004B20000E0FA20E7F82290002A740AF090002B5C
:1004C200740DF090002C7444F090002D7444F09060
:1004D200002E7452F090002F7441F0900030744D51
:1004E200F09000317420F09000327448F0900033A4
:1004F2007465F09000347478F09000357464F09074
:1005020000367475F0900037746DF0900038747096
:10051200F0900039E4F07582801209B990002A1235
:1005220026347A807B007C00BC050040030205E291
:1005320075820AC002C003C00412260DD004D00383
:10054200D00275820DC002C003C00412260DD00471
:10055200D003D0028A058B067F00780090043474A1
:1005620002F08D828E838FF0E8C002C003C00412B5
:100572002492D004D003D00275823AC002C003C0D4
:100582000412260DD004D003D0027D00BD1000500D
:1005920044758220C002C003C004C00512260DD0DB
:1005A20005D004D003D00290B000E0FE7F007800B6
:1005B20079009004347402F08E828F8388F0E9C04F
:1005C20002C003C004C005122492D005D004D00397
:1005D200D0020D80B774102AFAE43BFB0C02052A04
:1005E200900025E0FA900024E0FB90005DF08A8202
:1005F20002085B90003A740AF090003B740DF09090
:10060200003C7443F090003D7447F090003E7452F9
:10061200F090003F7441F0900040744DF090004122
:100622007420F09000427448F09000437465F0909A
:1006320000447478F09000457464F090004674753C
:10064200F0900047746DF09000487470F09000498B
:10065200E4F07582401209B990003A1226347A0009
:100662007B007C00BC0400400302071E75820AC0A6
:1006720002C003C00412260DD004D003D00275823A
:100682000DC002C003C00412260DD004D003D00254
:100692008A058B067F0078009004347402F08D8204
:1006A2008E838FF0E8C002C003C004122492D004EB
:1006B200D003D00275823AC002C003C00412260DD4
:1006C200D004D003D0027D00BD10005044758220BA
:1006D200C002C003C004C00512260DD005D004D04C
:1006E20003D00290B000E0FE7F0078007900900411
:1006F200347402F08E828F8388F0E9C002C003C096
:1007020004C005122492D005D004D003D0020D807B
:10071200B774102AFAE43BFB0C020666900025E04F
:10072200FA900024E0FB90005DF08A8202085BE50B
:100732008290004AF090004B740AF090004C740DC5
:10074200F090004D7449F090004E746EF090004F9E
:100752007476F09000507461F0900051746CF090D7
:1007620000527469F09000537464F0900054742045
:10077200F09000557441F09000567464F090005768
:100782007464F09000587472F09000597465F0909F
:10079200005A7473F090005B7473F090005CE4F0A4
:1007A20090004AE0FABA90004005EA246050339083
:1007B200004AE0FABAD0004005EA24205024900012
:1007C2004AE0FABAC0004005EA2430501590004AC7
:1007D200E0FABA80005003020854EA24705003027F
:1007E20008541204B090004AE0FA4480F090004AA3
:1007F200E0FAF582C0021209B9D002900024740F07
:100802005AF0BAD000400BEA24204006900025742A
:1008120003F090004AE0FABA9000400BEA246040EC
:10082200069000257402F090004AE0FABAC0004037
:100832000BEA243040069000257401F090004AE053
:10084200FABA80004012EA2470400D900025E4F0CC
:10085200800690004B12263422E58290005EF090D2
:10086200005F740AF0900060740DF09000617449AA
:10087200F0900062746EF09000637476F090006401
:100882007461F0900065746CF09000667469F09089
:1008920000677464F09000687420F09000697452EC
:1008A200F090006A746FF090006B7477F090006CB7
:1008B2007420F090006D744EF090006E7475F0909C
:1008C200006F746DF09000707462F0900071746546
:1008D200F09000727472F0900073E4F090007474FF
:1008E2000AF0900075740DF09000767449F0900053
:1008F20077746EF09000787476F09000797461F0FD
:1009020090007A746CF090007B7469F090007C74B3
:1009120064F090007D7420F090007E7443F09000AB
:100922007F746FF0900080746CF09000817475F0A9
:10093200900082746DF0900083746EF09000847465
:1009420020F0900085744EF09000867475F090004F
:1009520087746DF09000887462F09000897465F07D
:1009620090008A7472F090008BE4F090008C748096
:10097200F090008D74C0F090008E7490F090008F13
:1009820074D0F090005DE0FABA1000400690007456
:1009920002263490005EE0FBBB0400400690005F3C
:1009A200022634EB248CF582E43400F583E0FBEA82
:1009B2002BFAF582020731E582900090F01204B022
:1009C2007A007B80900090E0FC8A828B83F022E5A3
:1009D20082900091F01204B07A007BA0900091E026
:1009E200FC8A828B83F0900024E0FA900024740148
:1009F2002AF0900024E0FABA1000400312046B229D
:100A0200AA83E582900092F0A3EAF0900092E0FAC5
:100A1200A3E0FB8A828B83E0FC601C8C82C002C054
:100A2200031209D1D003D0020ABA00010B9000923E
:100A3200EAF0A3EBF080DC900092EAF0A3EBF02264
:100A42007582011209B9900025E4F0900024F02289
:100A5200E582900094F0900095740AF090009674EC
:100A62000DF09000977445F0900098746EF090002D
:100A7200997474F090009A7465F090009B7472F00F
:100A820090009C7420F090009D7462F090009E741F
:100A920061F090009F7473F09000A07465F0900074
:100AA200A17420F09000A2746FF09000A37466F01D
:100AB2009000A47420F09000A57479F09000A674C0
:100AC2006FF09000A77475F09000A87472F0900017
:100AD200A97420F09000AA7464F09000AB7461F0E5
:100AE2009000AC7474F09000AD7461F09000AE743C
:100AF20020F09000AF7465F09000B0746EF090003A
:100B0200B17474F09000B27472F09000B37479F022
:100B12009000B4E4F09000B5740AF09000B6740D41
:100B2200F09000B77443F09000B87468F09000B988
:100B32007461F09000BA7472F09000BB7461F0902E
:100B420000BC7463F09000BD7474F09000BE7465D4
:100B5200F09000BF7472F09000C07420F09000C159
:100B6200E4F09000C2740AF09000C3740DF090009B
:100B7200C47452F09000C5746FF09000C67477F0A0
:100B82009000C77420F09000C8E4F0120A4290006E
:100B92009512263475820A122750AA82AB839000DE
:100BA20094E0FB7C00C3EC9B4003020CC49000B5B4
:100BB200C002C003C004122634D004D003D0028C79
:100BC200057E000DBD00010EEE3395E0FFF88D822B
:100BD2008E838FF0C002C003C004122674D004D0EA
:100BE20003D002ECC40354F8FD4305407E00BE0866
:100BF200004003020C98C0039000C2C002C003C0B0
:100C020004C005C006122634D006D005D004D00395
:100C1200D0028E07780079007B008F82888389F06A
:100C2200EBC002C003C004C005C006122674D00681
:100C3200D005D004D003D0028A82C002C004C0050D
:100C4200C006122750AB82AF83D006D005D004D0A5
:100C520002EEC42354E0FF4203EE4D547FFFF582BF
:100C6200C002C003C004C005C0061209B9D006D034
:100C720005D004D003D0028B82C002C003C004C0DE
:100C820005C0061209D1D006D005D004D003D00287
:100C92000ED003020BF090005DECF0758200C002F2
:100CA200C003C00412085BD004D003D0028C82C0FF
:100CB20002C003C0041209D1D004D003D0020C0236
:100CC2000BA7229000C97403F09000CA7406F0903A
:100CD20000CB740CF09000CC7418F09000CD74101E
:100CE200F09000CE7410F09000CF7410F09000D00D
:100CF2007410F09000D1741FF09000D2E4F09000D4
:100D0200D3F09000D4F09000D5F09000D6E4F090AB
:100D120000D7740FF09000D8740FF09000D9741FB0
:100D2200F09000DAE4F09000DBF09000DCF090004C
:100D3200DDF09000DEE4F09000DF741FF09000E040
:100D4200741FF09000E1741FF09000E27401F090C3
:100D520000E3E4F09000E4F09000E5F09000E6F0AB
:100D62009000E77418F09000E87418F09000E9E43D
:100D7200F09000EA7410F09000EB7418F09000EC20
:100D82007408F09000ED7408F09000EE7408F09092
:100D920000EF7408F09000F07408F09000F1E4F0B5
:100DA2009000F2F09000F3F09000F4F09000F5E47F
:100DB200F09000F6F09000F7F09000F8F09000F953
:100DC200E4F09000FAF09000FBF09000FCF090004C
:100DD200FDE4F09000FEF09000FFF0900100F09032
:100DE20001017410F09001027410F090010374106C
:100DF200F09001047410F09001057410F090010657
:100E02007410F09001077410F09001087410F090C3
:100E12000109740FF090010A740CF090010B740C2C
:100E2200F090010C740CF090010D740CF090010E16
:100E3200740CF090010F740FF0900110740FF09089
:100E42000111741FF0900112E4F0900113F090016F
:100E520014F0900115F0900116E4F0900117F09053
:100E62000118F09001197418F090011A741FF09093
:100E7200011B741FF090011C741FF090011D741F60
:100E8200F090011E741FF090011F7418F090012061
:100E92007418F0900121740FF0900122741EF090EA
:100EA2000123741EF0900124741EF0900125741E1B
:100EB200F0900126741EF0900127740EF090012824
:100EC200740EF0900129741FF090012AE4F0900151
:100ED2002BF090012CF090012DF090012EE4F09077
:100EE200012F7401F09001307401F09001317418F7
:100EF200F09001327408F09001337408F0900134DC
:100F02007408F09001357408F09001367408F0907E
:100F120001377418F0900138E4F09001397410F040
:100F220090013A7410F090013B7410F090013C74FF
:100F320018F090013D740CF090013E7406F090019F
:100F42003F7403F0900140E4F0900141740FF0907F
:100F52000142E4F0900143F0900144F0900145F029
:100F6200900146E4F0900147741FF090014874012B
:100F7200F0900149E4F090014AF090014BF09001A9
:100F82004CF090014DE4F090014EF090014FF09042
:100F92000150F09001517418F0900152E4F0900168
:100FA20053F0900154F0900155F09001567401F005
:100FB200900157741FF0900158741FF090015974FA
:100FC2000EF090015A740EF090015B740EF09001D5
:100FD2005C740EF090015D741EF090015E741EF060
:100FE20090015F741EF0900160741EF090016174B4
:100FF20001F09001627401F09001637401F09001BC
:10100200647401F09001657401F09001667401F05E
:101012009001677401F09001687401F0900169E435
:10102200F090016AF090016BF090016CF090016D0C
:10103200E4F090016EF090016FF0900170F0900179
:1010420071E4F0900172F0900173F0900174F090ED
:101052000175E4F0900176F0900177F0900178F05C
:101062009001797401F090017A7401F090017B741F
:1010720001F090017C7401F090017DE4F090017E1A
:10108200F090017FF0900180F0900181E4F09001F6
:1010920082F0900183F09001847410F090018574C5
:1010A20018F0900186740CF09001877406F090019C
:1010B200887403F0900189741FF090018A741FF004
:1010C20090018BE4F090018CF090018DF090018EF4
:1010D200F090018FE4F0900190741FF090019174F0
:1010E2001EF0900192741EF0900193E4F09001942E
:1010F200F0900195F0900196F0900197E4F0900144
:1011020098741FF09001997401F090019A7401F0A3
:1011120090019B7401F090019C7403F090019D7406
:1011220006F090019E740CF090019F7418F09001EB
:10113200A07410F09001A1E4F09001A2F09001A33C
:10114200F09001A4F09001A5E4F09001A6F09001C6
:10115200A7F09001A8F075820C1209B990002374CF
:1011620001F0900023E0FA7001229001A9E4F0A3BB
:10117200F0A3F0A3F0750B0074FC250B40E4900083
:1011820002E4F5F0122866120A42AB0B7C00BC079F
:1011920000400302128FECC40354F8FD4305409053
:1011A20001A9E0FEA3E0FFA3E0F8A3E0F9750A00BD
:1011B20074F8250A500302124AC003EE24C9F582CC
:1011C200EF3400F583E0FB9001ADF00EBE00090F95
:1011D200BF000508B80001099001A9EEF0A3EFF0E5
:1011E200A3E8F0A3E9F0E50AC42354E0FB9001ADC3
:1011F200E0FA4BF0E50A4D547FFAF582C003C004D1
:10120200C005C006C007C000C0011209B9D001D094
:1012120000D007D006D005D004D0039001ADE0FA8B
:10122200F582C003C004C005C006C007C000C001EB
:101232001209D1D001D000D007D006D005D004D0F9
:1012420003050AD0030211B29001A9EEF0A3EFF058
:10125200A3E8F0A3E9F090005DECF08B82C003C03C
:101262000412085BD004D0038C82C003C0041209AC
:10127200D1D004D00390005D740AF0758200C003DF
:10128200C00412085BD004D0030C021190050B02BB
:02129200117ACF
:0400000002002632A2
:01000B0032C2
:0100130032BA
:01001B0032B2
:030023000229C3EC
:03007F00021294D6
:101294001212A080FE438E0C900000229001B174C3
:1012A4000AF09001B2740DF09001B3744DF0900106
:1012B400B4746FF09001B5746EF09001B67469F077
:1012C4009001B77473F09001B87468F09001B97428
:1012D40020F09001BA744EF09001BB7465F0900157
:1012E400BC746EF09001BD7465F09001BE7420F082
:1012F4009001BF7445F09001C07453F09001C17423
:1013040044F09001C27420F09001C37453F0900132
:10131400C47470F09001C57472F09001C67469F0E1
:101324009001C7746EF09001C87467F09001C9749D
:1013340020F09001CA7432F09001CB7430F0900127
:10134400CC7431F09001CD7438F09001CE7420F05B
:101354009001CF744CF09001D07461F09001D1747D
:1013640062F09001D27420F09001D37434F09001B3
:10137400D47420F09001D57452F09001D67465F0C5
:101384009001D77471F09001D87475F09001D974FC
:1013940069F09001DA7472F09001DB7465F09001E9
:1013A400DC7464F09001DDE4F09001DE744DF090A3
:1013B40001DF746FF09001E0746EF09001E17469E4
:1013C400F09001E27473F09001E37468F09001E42A
:1013D4007420F09001E5744EF09001E67465F0908D
:1013E40001E7746EF09001E87465F09001E97420EF
:1013F400F09001EA7445F09001EB7453F09001EC25
:101404007444F09001ED7420F09001EE7453F09068
:1014140001EF7470F09001F07472F09001F174694E
:10142400F09001F2746EF09001F37467F09001F49F
:101434007427F09001F57431F09001F67438F0904F
:1014440001F77420F09001F8744CF09001F9746184
:10145400F09001FA7462F09001FB7420F09001FCAA
:101464007434F09001FDE4F09001FE740AF09001F0
:10147400FF740DF09002007450F09002017472F049
:101484009002027465F09002037473F09002047485
:1014940073F09002057420F09002067427F0900215
:1014A400077441F09002087427F0900209742DF03B
:1014B40090020A743EF090020B7420F090020C74B7
:1014C4004AF090020D7475F090020E746DF0900263
:1014D4000F7470F09002107420F09002117441F0B7
:1014E4009002127464F09002137464F09002147405
:1014F40072F09002157465F09002167473F0900205
:10150400177473F09002187420F0900219744CF060
:1015140090021A7443F090021B7444F090021C74FD
:101524002CF090021D7420F090021E7427F090029B
:101534001F7442F09002207461F09002217463F0F1
:10154400900222746BF09002237473F0900224745E
:1015540070F09002257461F09002267463F090029A
:10156400277465F09002287427F0900229742DF0F6
:1015740090022A743EF090022B7420F090022C7496
:1015840043F090022D746CF090022E7465F090027A
:101594002F7461F09002307472F09002317420F074
:1015A400900232744CF09002337443F0900234741D
:1015B40044F09002357420F0900236742CF09002BE
:1015C400377427F09002387458F09002397427F079
:1015D40090023A742DF090023B743EF090023C74F9
:1015E40020F090023D744AF090023E7475F090022F
:1015F4003F746DF09002407470F09002417420F0DA
:101604009002427443F0900243746FF09002447469
:101614002DF0900245746FF09002467472F09002BF
:10162400477464F09002487469F0900249746EF053
:1016340090024A7461F090024B7474F090024C74FE
:1016440065F090024D7473F090024E742CF0900289
:101654004F7420F09002507427F09002517444F0BB
:101664009002527427F0900253742DF09002547437
:101674003EF0900255744CF09002567443F0900280
:10168400577444F09002587420F09002597444F056
:1016940090025A7444F090025B7452F090025C74AD
:1016A40041F090025D744DF090025E7420F090025F
:1016B4005F7444F09002607455F0900261744DF0D0
:1016C4009002627450F0900263742CF0900264747F
:1016D40020F09002657427F09002667447F090023F
:1016E400677427F0900268742DF0900269743EF0DC
:1016F40090026A7420F090026B744CF090026C7447
:1017040043F090026D7444F090026E7420F09002E5
:101714006F7443F09002707447F09002717452F049
:101724009002727441F0900273744DF090027474DC
:1017340020F09002757444F09002767455F0900293
:1017440077744DF09002787450F0900279742CF014
:1017540090027A740AF090027B740DF090027C740B
:1017640027F090027D7442F090027E7427F090027C
:101774007F742DF0900280743EF09002817443F0E7
:101784009002827455F09002837420F09002847465
:1017940042F0900285746FF09002867475F09002A6
:1017A40087746CF09002887464F09002897465F018
:1017B40090028A7472F090028B7420F090028C7400
:1017C4004CF090028D746FF090028E7467F090026A
:1017D4008F746FF0900290742CF09002917420F04A
:1017E4009002927427F09002937443F090029474E0
:1017F40027F0900295742DF0900296743EF09002BA
:10180400977443F09002987475F09002997473F091
:1018140090029A7474F090029B746FF090029C741E
:101824006DF090029D7420F090029E7443F090023B
:101834009F7468F09002A07461F09002A17472F039
:101844009002A27461F09002A37463F09002A474F5
:1018540074F09002A57465F09002A67472F0900280
:10186400A77420F09002A87442F09002A97475F055
:101874009002AA7469F09002AB746CF09002AC749C
:1018840064F09002AD7465F09002AE7472F0900250
:10189400AF742CF09002B07420F09002B17427F071
:1018A4009002B27457F09002B37427F09002B474AB
:1018B4002DF09002B5743EF09002B67457F0900289
:1018C400B77472F09002B87469F09002B97474F04D
:1018D4009002BA7465F09002BB7420F09002BC745C
:1018E40044F09002BD7461F09002BE7474F09002F2
:1018F400BF7461F09002C07420F09002C17449F08A
:101904009002C27432F09002C37443F09002C47423
:101914002CF09002C57420F09002C67427F0900257
:10192400C77452F09002C87427F09002C9742DF065
:101934009002CA743EF09002CB7452F09002CC74C0
:1019440065F09002CD7461F09002CE7464F0900260
:10195400CF7420F09002D07444F09002D17461F0FE
:101964009002D27474F09002D37461F09002D47433
:1019740020F09002D57449F09002D67432F09002AF
:10198400D77443F09002D8742CF09002D97420F0EC
:101994009002DA7427F09002DB7449F09002DC7450
:1019A40027F09002DD742DF09002DE743EF0900278
:1019B400DF7420F09002E07445F09002E17445F089
:1019C4009002E27450F09002E37452F09002E474D6
:1019D4004FF09002E5744DF09002E67420F090020E
:1019E400E77444F09002E87455F09002E9744DF005
:1019F4009002EA7450F09002EBE4F09002EC740A66
:101A0400F09002ED740DF09002EE7445F09002EF48
:101A1400746EF09002F07474F09002F17465F090BA
:101A240002F27472F09002F37420F09002F47444A1
:101A3400F09002F57461F09002F67474F09002F77D
:101A44007461F09002F87420F09002F9E4F09002CE
:101A5400FA740AF09002FB740DF09002FC7445F0E5
:101A64009002FD746EF09002FE7474F09002FF74A4
:101A740065F09003007472F09003017420F09003F9
:101A8400027441F09003037464F09003047464F0EE
:101A94009003057472F09003067465F09003077464
:101AA40073F09003087473F09003097420F09003AA
:101AB4000AE4F090030B740AF090030C740DF09098
:101AC400030D7457F090030E7472F090030F746951
:101AD400F09003107474F09003117465F090031285
:101AE4007420F0900313744DF0900314746FF0900D
:101AF40003157464F09003167465F0900317E4F012
:101B0400900318740AF0900319740DF090031A747A
:101B140057F090031B7472F090031C7469F09003E7
:101B24001D7474F090031E7465F090031F7420F00C
:101B34009003207443F0900321746FF09003227497
:101B44006DF09003237470F0900324746CF0900390
:101B5400257465F09003267474F09003277465F07F
:101B64009003287420F0900329E4F090032A740A67
:101B7400F090032B740DF090032C7452F090032D0D
:101B84007465F090032E7461F090032F7464F090E8
:101B940003307420F0900331744DF0900332746F6D
:101BA400F09003337464F09003347465F09003355B
:101BB4007420F0900336E4F0900337740AF0900335
:101BC40038740DF09003397444F090033A7461F062
:101BD40090033B7474F090033C7461F090033D7483
:101BE40020F090033E7472F090033F7465F090030C
:101BF400407461F09003417464F09003427420F0E7
:101C0400900343E4F0900344740AF0900345740D88
:101C1400F09003467452F09003477465F0900348C3
:101C24007461F09003497464F090034A7420F09056
:101C3400034B7443F090034C746FF090034D746D38
:101C4400F090034E7470F090034F746CF090035056
:101C54007465F09003517474F09003527465F090BD
:101C640003537420F0900354E4F0900355740AF085
:101C7400900356740DF0900357744CF0900358740D
:101C840043F09003597444F090035A7420F0900385
:101C94005B7441F090035C7464F090035D7464F0D1
:101CA40090035E7472F090035F7465F09003607447
:101CB40073F09003617473F09003627420F09003E6
:101CC40063744AF09003647475F0900365746DF066
:101CD4009003667470F0900367E4F0900368740AEC
:101CE400F0900369740DF090036A744CF090036BE8
:101CF4007443F090036C7444F090036D7420F0907E
:101D0400036E7463F090036F746FF0900370742D1E
:101D1400F0900371746FF09003727472F090037317
:101D24007464F09003747469F0900375746EF090A9
:101D340003767461F09003777474F090037874659B
:101D4400F09003797473F090037A7420F090037B1D
:101D5400744AF090037C7475F090037D746DF09078
:101D6400037E7470F090037FE4F0900380740AF0B3
:101D7400900381740DF09003827445F09003837492
:101D84006EF09003847474F09003857465F090038E
:101D9400867472F09003877420F09003887458F06E
:101DA4009003897420F090038A7463F090038B7419
:101DB4006FF090038C746FF090038D7472F0900345
:101DC4008E7464F090038F7469F0900390746EF0D5
:101DD4009003917461F09003927474F0900393747F
:101DE40065F09003947428F09003957472F0900356
:101DF40096746FF09003977477F09003987429F0B9
:101E0400900399742DF090039A743EF090039BE430
:101E1400F090039C740AF090039D740DF090039E5F
:101E24007445F090039F746EF09003A07474F09066
:101E340003A17465F09003A27472F09003A374205C
:101E4400F09003A47459F09003A57420F09003A6B5
:101E54007463F09003A7746FF09003A8746FF0900C
:101E640003A97472F09003AA7464F09003AB7469CC
:101E7400F09003AC746EF09003AD7461F09003AE17
:101E84007474F09003AF7465F09003B07428F0900C
:101E940003B17443F09003B2746FF09003B3746CA5
:101EA400F09003B47475F09003B5746DF09003B6BC
:101EB400746EF09003B77429F09003B8742DF09009
:101EC40003B9743EF09003BAE4F09003BB740AF0D3
:101ED4009003BC740DF09003BD7443F09003BE7482
:101EE40075F09003BF7473F09003C07474F09003A2
:101EF400C1746FF09003C2746DF09003C37420F04A
:101F04009003C47443F09003C57468F09003C674DE
:101F140061F09003C77472F09003C87461F0900389
:101F2400C97463F09003CA7474F09003CB7465F0C1
:101F34009003CC7472F09003CD7420F09003CE74AF
:101F44006DF09003CF746FF09003D07464F090033D
:101F5400D17465F09003D2740AF09003D3740DF039
:101F64009003D47448F09003D5746FF09003D67442
:101F740077F09003D77420F09003D8746DF0900339
:101F8400D97461F09003DA746EF09003DB7479F025
:101F94009003DC7420F09003DD7463F09003DE742E
:101FA40075F09003DF7473F09003E07474F09003A1
:101FB400E1746FF09003E2746DF09003E37420F029
:101FC4009003E47463F09003E57468F09003E6749E
:101FD40061F09003E77472F09003E87461F0900389
:101FE400E97463F09003EA7474F09003EB7465F0A1
:101FF4009003EC7472F09003ED7473F09003EE743C
:1020040020F09003EF7464F09003F0746FF0900389
:10201400F17420F09003F27479F09003F3746FF08C
:102024009003F47475F09003F57420F09003F67443
:1020340077F09003F77461F09003F8746EF09003F6
:10204400F97474F09003FA7420F09003FB7474F044
:102054009003FC746FF09003FD7420F09003FE7401
:1020640063F09003FF7472F09004007465F09004C0
:10207400017461F09004027474F09004037465F0C8
:10208400900404743FF09004057428F090040674DE
:1020940075F09004077470F09004087474F0900460
:1020A40009746FF090040A7420F090040B7438F0F3
:1020B40090040C7429F090040DE4F090040E740A5A
:1020C400F090040F740DF09004107449F090041112
:1020D400746EF09004127476F09004137461F090AE
:1020E4000414746CF09004157469F090041674640C
:1020F400F09004177420F09004187445F0900419BB
:10210400746EF090041A7474F090041B7472F0905E
:10211400041C7479F090041DE4F090041E740AF019
:1021240090041F740DF09004207449F090042174FD
:102134006EF09004227476F09004237461F090049D
:1021440024746CF09004257469F09004267464F08F
:102154009004277420F09004287441F090042974AA
:1021640064F090042A7464F090042B7472F0900468
:102174002C7465F090042D7473F090042E7473F035
:1021840090042FE4F012261F9001B112263490011E
:10219400FE1226341204201204059001DE120A02F3
:1021A400122604AA82BA080302223CBA41028032EF
:1021B400BA420302226BBA4303022242BA44030224
:1021C400235EBA4703022364BA490302236ABA525C
:1021D400030222C6BA5703022271BA5802801E02B1
:1021E40023709003551226349002FA122634758215
:1021F40010122750AB82AC8312073180A39003687E
:1022040012263490038012263475820A122750ABAA
:1022140082AC8390039CC003122634D00375820AD7
:10222400C003122750AC82AD83D00390005DECF064
:102234008B8212085B0221A4120A420221A4900399
:10224400BB12263475820A122750AB82AC83EB246E
:10225400F7400BEB60088B82120A520221A490040F
:102264000E1226340221A4120CC50221A490030BE1
:102274001226349002EC122634758210122750ABC9
:1022840082AC839002FAC003122634D00375821004
:10229400C003122750AC82AD83D003C374FF9C7477
:1022A400079D500990041E1226340221A4900007B1
:1022B400EBF08C828D831201A9900318122634024C
:1022C40021A490032A1226349002FA12263475822D
:1022D40010122750AB82AC83C374FF9B74079C50CD
:1022E4000990041E1226340221A48B828C83C0031D
:1022F400C00412020EAD82D004D003900344C00384
:10230400C004C005122634D005D004D0039003378E
:10231400C003C004C005122634D005D004D0037E07
:10232400007F009004347403F08B828C838EF0EF72
:10233400C005122492D00575823AC00512260DD02C
:10234400057B007C007E009004347402F08D828B47
:10235400838CF0EE1224920221A41204B90221A467
:102364001205F50221A412029B0221A48A82C00252
:1023740012260DD0028A821209D10221A4AA83E571
:1023840082900431F0A3EAF0900431E0FAA3E0FB78
:1023940030E703022423C3740F9A74808BF063F034
:1023A4008095F05003022423EA2A2A9023B373026F
:1023B40023E70223E30223EB0223EF0223F30223A6
:1023C400F70223FB0223FF02240302240702240B47
:1023D40002240F02241302241702241B02241F7553
:1023E40082312275823022758232227582332275BF
:1023F400823422758235227582362275823722759F
:102404008238227582392275824122758242227570
:102414008243227582442275824522758246227542
:10242400823022E582900433F0900433E0FABA302B
:1024340000400EEA24C64009EA24D0900433F08018
:1024440046900433E0FABA6100401AEA2499401530
:10245400EA249F900433F0900433E0FA9004337438
:102464000A2AF08022900433E0FABA41004018EAC4
:1024740024994013EA24BF900433F0900433E0FA23
:10248400900433740A2AF0900433E0F58222AA827D
:10249400AB83ACF0FD900435EAF0A3EBF0A3ECF0D1
:1024A400A3EDF0900434E0FA900435E0FBA3E0FCE3
:1024B400A3E0FDA3E0FEC3740F9BE49CE49DE49EB3
:1024C400E433FFC374FF9BE49CE49DE49EE433F88F
:1024D400C374FF9B740F9CE49DE49EE433FBC374BC
:1024E400818AF063F08095F0505FBA0202803EBAB0
:1024F4000302801EBA044FEB704C758230C002C0D8
:1025040003C007C00012260DD000D007D003D002AC
:102514008034E87031758230C002C003C007C00047
:1025240012260DD000D007D003D0028019EF701608
:10253400758230C002C003C007C00012260DD0004F
:10254400D007D003D0021A8095EA2439FEE434047B
:10255400FF900435E0F50CA3E0F50DA3E0F50EA320
:10256400E0F50F740F550CF97B007C007D00898227
:102574008B83C002C006C007122381AB82D007D070
:1025840006D0028E828F83EBF0AB0CE50DC4CBC476
:10259400540F6BCB540FCB6BCBFCE50EC454F04CF7
:1025A400FCAD0EE50FC4CDC4540F6DCD540FCD6DED
:1025B400CDFE900435EBF0A3ECF0A3EDF0A3EEF028
:1025C4000A900435E0FBA3E0FCA3E0FDA3E0FEEBEE
:1025D4004C4D4E600302254DEA14900443F09004E0
:1025E40043E0FAEA20E718EA2439F582E43404F5F2
:1025F40083E0FBF582C00212260DD0021A80E42289
:1026040010980280FB85998222E582900444F03080
:1026140099FD900444E0F599C2992243A88043B8F7
:1026240010438920439850438840758DFDD29922E8
:10263400AA83E582900445F0A3EAF0900445E0FA09
:10264400A3E0FB8A828B83E0FC601C8C82C002C006
:102654000312260DD003D0020ABA00010B900445E0
:10266400EAF0A3EBF080DC900445EAF0A3EBF0225F
:10267400AA82AB83ACF0FD900447EAF0A3EBF0A38D
:10268400ECF0A3EDF07A00EA244BFEE43404FF906E
:102694000447E0F510A3E0F511A3E0F512A3E0F57B
:1026A40013900477740AF0E4A3F0A3F0A3F0851068
:1026B400828511838512F0E513C002C006C007129B
:1026C40029D5A982AB83ACF0FDD007D006D0027423
:1026D4003029F98E828F83F0900480740AF0E4A389
:1026E400F0A3F0A3F08510828511838512F0E51321
:1026F400C002122BEFAB82AC83ADF0FED00290048B
:1027040047EBF0A3ECF0A3EDF0A3EEF00A9004473E
:10271400E0FBA3E0FCA3E0FDA3E0FEEB4C4D4E6028
:102724000302268BEA14900455F0900455E0FAEA6B
:1027340020E718EA244BF582E43404F583E0FBF542
:1027440082C00212260DD0021A80E422E58290048F
:1027540056F0900457E4F090046CF090046DF0A3EC
:10276400F0900457E0FABA0D030227F6122604AAE1
:1027740082900457EAF0BA30004005EA24C65014A7
:10278400BA61004005EA2499500ABA4100403CEA83
:1027940024B940378A82C00212260DD00290046CFC
:1027A400E0FB2458FCE43404FD8A82C003C004C066
:1027B40005122427AE82D005D004D0038C828D83E9
:1027C400EEF090046C74012BF08096BA080280033A
:1027D40002276575820812260D75822012260D7552
:1027E400820812260D90046CE0FA1490046CF00236
:1027F4002765900456E0FA90046CE0FB7C00C3EC7F
:102804009B505390046DE0FDA3E0FE90048CEAF02D
:10281400A3E4F08D828E83C002C003C004122D672E
:10282400E5828583F0D004D003D00290046DF0A338
:10283400E5F0F0EC2458F582E43404F583E0FD7E01
:102844000090046DE0FFA3E0F890046DED2FF0EE2E
:1028540038A3F00C80A890046DE0FAA3E08A82F516
:102864008322AA82AB83ACF0FD90046FEAF0A3EB61
:10287400F0A3ECF0A3EDF090046FE0FAA3E0FBA367
:10288400E0FCA3E0FD7E007F0078007900C3EE9AAF
:10289400EF9BE89CE99D5038751C60751D04751EFE
:1028A40000751F00151C74FFB51C0C151DB51D0704
:1028B400151EB51E02151FE51C451D451E451F703E
:1028C400E30EBE00C80FBF00C408B800C00980BD35
:1028D40022AA82AB83ACF0FD900473EAF0A3EBF080
:1028E400A3ECF0A3EDF0900473E0F514A3E0F51568
:1028F400A3E0F516A3E0F5177E007F0078007900C9
:102904008514828515838516F0E517C006C007C0B7
:1029140000C001122D24AA82AB83ACF0FDD001D0FB
:1029240000D007D006C006C007C000C0017429C08B
:10293400E0745CC0E0748FC0E0743FC0E08A828BB6
:10294400838CF0ED122B1E85821885831985F01A6D
:10295400F51BE58124FCF581D001D000D007D00619
:102964008E828F8388F0E9C006C007C000C00112C0
:102974002D24AA82AB83ACF0FDD001D000D007D0C7
:1029840006C006C007C000C001C018C019C01AC0E4
:102994001B8A828B838CF0ED122D37AA82E5812469
:1029A400FCF581D001D000D007D006EA60100EBE3D
:1029B40000090FBF000508B800010902290422C05C
:1029C400E0C082C083900430E4F0D083D082D0E0B1
:1029D40032AA82AB83ACF0FD90047BEAF0A3EBF067
:1029E400A3ECF0A3EDF090047FE4F090047BE0FA14
:1029F400A3E0FBA3E0FCA3E0FD7E00900477E0F5F8
:102A04001CA3E0F51DA3E0F51EA3E0F51FE51F23BD
:102A14005401FF7078C006E51C25E0FFE51D33F87E
:102A2400E51E33F9E51F33FE900477EFF0A3E8F0D9
:102A3400A3E9F0A3EEF0900477E0F51CA3E0F51D04
:102A4400A3E0F51EA3E0F51FC3EA951CEB951DEC6E
:102A5400951EED951FE433D0066029E51FC313F5D9
:102A64001FE51E13F51EE51D13F51DE51C13F51CCE
:102A7400900477E51CF0A3E51DF0A3E51EF0A3E5A3
:102A84001FF080090E90047FEEF00229FF90047F6E
:102A9400E0FA90047BE0FBA3E0FCA3E0FDA3E0FEEE
:102AA400900477E0F51CA3E0F51DA3E0F51EA3E078
:102AB400F51FC3EB951CEC951DED951EEE951F407F
:102AC4001790047BEBC3951CF0EC951DA3F0ED95DA
:102AD4001EA3F0EE951FA3F0900477E0FBA3E0FCA7
:102AE400A3E0FDA3E0FEC313FEED13FDEC13FCEB2A
:102AF40013FB900477F0A3ECF0A3EDF0A3EEF08ABF
:102B0400031AEB708D90047BE0FAA3E0FBA3E0FCD6
:102B1400A3E0FD8A828B838CF022122BC1BC0003BC
:102B2400022DF1EF60FA30D502B2D1E583B4FF0390
:102B3400022E07E582B4FF03022E072583400724F3
:102B440082400B022DF12483145003022E07F582D8
:102B5400EA8DF0A4A8F0EA8EF0A428F8E435F0F9A0
:102B6400EB8DF0A428E935F0F9E433CA8FF0A429F9
:102B7400F9EA35F0FAEBF88EF0A429F9EA35F0FA1F
:102B8400E433FBEC8DF0A429F9EA35F0FAE43BFBDD
:102B9400E88FF0A42AFAEB35F0FBE433CCFD8EF099
:102BA400A42AFAEB35F0FBE43CFCED8FF0A42BFBFC
:102BB400EC35F0FC20E703122CFB022DD0AA82ABEB
:102BC40083A2F73392D16002D2F7F582ACF0E581AB
:102BD40024F9F8E6FD08E6FE0886F008E6A2F733D5
:102BE40092D56002D2F7F583AFF022AA82AB83AC10
:102BF400F0FD900484EAF0A3EBF0A3ECF0A3EDF075
:102C0400900488E4F0A3F0A3F0A3F0900480E0FA29
:102C1400A3E0FBA3E0FCA3E0FD751C20900484E08A
:102C2400FFA3E0F8A3E0F9A3E0FE339200EF2FFF47
:102C3400E833F8E933F9EE33FE900484EFF0A3E8C7
:102C4400F0A3E9F0A3EEF0900488E0FEA3E0FFA374
:102C5400E0F8A3E0F9EE2EFEEF33FFE833F8E933B2
:102C6400F9900488EEF0A3EFF0A3E8F0A3E9F030C4
:102C7400001E900488E0FFA3E0F8A3E0F9A3E0FEBF
:102C840090048874014FF0A3E8F0A3E9F0A3EEF0F8
:102C9400900488E0FEA3E0FFA3E0F8A3E0F9C3EE0C
:102CA4009AEF9BE89CE99D4031900488EEC39AF02A
:102CB400EF9BA3F0E89CA3F0E99DA3F0900484E0CB
:102CC400FEA3E0FFA3E0F8A3E0F990048474014EAE
:102CD400F0A3EFF0A3E8F0A3E9F0D51C028003020F
:102CE4002C20900484E0FAA3E0FBA3E0FCA3E0FD25
:072CF4008A828B838CF02221
:06005500E478FFF6D8FD7F
:102CFB007804EC700DC9CACBFCE58224F8F582D8B8
:102D0B00F122782020E7111582C3E933F9EA33FA6F
:092D1B00EB33FBEC33FCD8EC2295
:100033007900E94400601B7A00902E1F788E75A02A
:1000430004E493F2A308B8000205A0D9F4DAF27528
:02005300A0FF0C
:102D2400FCABF0AA83A982749EC2D1F582122CFB5B
:102D3400022DD0FFA8811818122DA5D2D133E64058
:102D44000730E70B7582002220E70675820122C254
:102D5400D1122D87E97003F5822220D101B3E43327
:102D6400F58222AA83AB828BF090048CE0A4F8A9AC
:102D7400F08AF0E0A429F98BF0A3E0A429F5838874
:032D840082222286
:10005B007800E84400600A790075A000E4F309D841
:10006B00FC788EE84404600C7905900000E4F0A362
:04007B00D8FCD9FADA
:102D87007901AA82E68F82B5821318E6B5F00E188C
:102D9700E6B5830918E68A82B58202790022B480F3
:102DA7000FE5F0700AE5837006E58270027F00EF99
:102DB700B6801518B6001018B6000B18B60006082E
:102DC700080876002208080822B98003EA13B340EE
:102DD70010EA2401FAE43BFBE43CFC50047C800548
:102DE70082BC000EBB000BBA0008E4F5F0F583F5D2
:102DF7008222A2D1E582138CF092F78B838A8222FA
:102E0700E4F583F58275F080F4A2D11322E4F5830B
:082E1700F58275F0C0747F2202
:0D002600758120121299E582600302129488
:00000001FF
