:10052500D292C292221205252094FD22C292D29423
:10053500D292C29422D294D292C294C29222C294EE
:10054500D292D294C29222E582900008F0C2927AA9
:1005550000BA08005023900008E0FB30E704D2946D
:100565008002C294C002120525D002900008E02541
:10057500E0FB900008F00A80D8C29422900009E4BC
:10058500F0D2947A00BA08005027D292900009E080
:1005950025E0FB900009F030940A900009E0FB4447
:1005A50001F08008900009E0FB54FEF0C2920A8039
:1005B500D4900009E0F58222AA83E58290000BF031
:1005C500A3EAF090000BE0FAA3E0FB90000DEAF03F
:1005D500EBA2E7CA33CA33CA5401FB90000BEAF019
:1005E500A3EBF090000BE0FAA3E0FB74A04A54AE35
:1005F500FAC00212053AD0028A8212054C12052A67
:1006050090000DE0FAF58212054C12052A90000AB9
:10061500E0FAF58212054C12052A020543AA83E584
:100625008290000EF0A3EAF090000EE0FAA3E0FB42
:10063500900010EAF0EBA2E7CA33CA33CA5401FBB3
:1006450090000EEAF0A3EBF090000EE0FAA3E0FBB9
:1006550074A04A54AEFAC00212053AD0028A82C08A
:100665000212054CD002C00212052AD002900010D9
:10067500E0FBF582C00212054CD002C00212052A29
:10068500D002430201C00212053AD0028A82120545
:100695004C12052A120581AA82C002120531D00228
:1006A500C002120543D0028A8222900011740AF01A
:1006B500900012740DF09000137449F090001474BA
:1006C50032F09000157443F09000167420F09000FD
:1006D500177445F09000187445F09000197450F0A7
:1006E50090001A7452F090001B744FF090001C7427
:1006F5004DF090001D7420F090001E7448F090009D
:100705001F7465F09000207478F09000217464F0F7
:100715009000227475F0900023746DF0900024749D
:1007250070F0900025E4F0900011122EDE7A007B27
:10073500007C00BC8000400302081875820AC002D4
:10074500C003C004122EB7D004D003D00275820DA9
:10075500C002C003C004122EB7D004D003D0028A51
:10076500058B067F0078009004E67403F08D828E79
:10077500838FF0E8C002C003C004122D3CD004D022
:1007850003D00275823AC002C003C004122EB7D04E
:1007950004D003D0028A088B097F00BF100050687F
:1007A500C004758220C002C003C004C007122EB762
:1007B500D007D004D003D0028F007900E82508F8CF
:1007C500E93509F988828983C002C003C004C007DE
:1007D500120622A882D007D004D003D00279007C6B
:1007E500007D009004E67402F0888289838CF0ED28
:1007F500C002C003C004C007122D3CD007D004D0EE
:1008050003D0020FD004809374102AFAE43BFB0C4A
:100815000207382212053A7A00BA0900500CD29420
:10082500C002120525D0020A80EF020543E5829039
:100835000026F012053A75827012054C12052A90B1
:100845000026E0FAF58212054C12052A020543122C
:10085500053A75827112054C12052A120581AA8284
:10086500C002120531D002C002120543D0028A82AD
:010875002260
:10007F009000E27403F09000E37406F09000E474D3
:10008F000CF09000E57418F09000E67410F09000FA
:10009F00E77410F09000E87410F09000E97410F01D
:1000AF009000EA741FF09000EBE4F09000ECF090F9
:1000BF0000EDF09000EEF09000EFE4F09000F0749F
:1000CF000FF09000F1740FF09000F2741FF0900099
:1000DF00F3E4F09000F4F09000F5F09000F6F0905B
:1000EF0000F7E4F09000F8741FF09000F9741FF01F
:1000FF009000FA741FF09000FB7401F09000FCE484
:10010F00F09000FDF09000FEF09000FFF0900100E5
:10011F007418F09001017418F0900102E4F090014E
:10012F00037410F09001047418F09001057408F036
:10013F009001067408F09001077408F0900108749C
:10014F0008F09001097408F090010AE4F090010B97
:10015F00F090010CF090010DF090010EE4F0900181
:10016F000FF0900110F0900111F0900112E4F09057
:10017F000113F0900114F0900115F0900116E4F0C6
:10018F00900117F0900118F0900119F090011A7476
:10019F0010F090011B7410F090011C7410F090017E
:1001AF001D7410F090011E7410F090011F7410F068
:1001BF009001207410F09001217410F090012274BE
:1001CF000FF0900123740CF0900124740CF0900147
:1001DF0025740CF0900126740CF0900127740CF02C
:1001EF00900128740FF0900129740FF090012A7478
:1001FF001FF090012BE4F090012CF090012DF09066
:10020F00012EF090012FE4F0900130F0900131F0C9
:10021F009001327418F0900133741FF09001347410
:10022F001FF0900135741FF0900136741FF090018C
:10023F0037741FF09001387418F09001397418F06A
:10024F0090013A740FF090013B741EF090013C74D2
:10025F001EF090013D741EF090013E741EF090014F
:10026F003F741EF0900140740EF0900141740EF037
:10027F00900142741FF0900143E4F0900144F0901C
:10028F000145F0900146F0900147E4F09001487469
:10029F0001F09001497401F090014A7418F0900137
:1002AF004B7408F090014C7408F090014D7408F0F5
:1002BF0090014E7408F090014F7408F09001507443
:1002CF0018F0900151E4F09001527410F090015326
:1002DF007410F09001547410F09001557418F09050
:1002EF000156740CF09001577406F0900158740386
:1002FF00F0900159E4F090015A740FF090015BE413
:10030F00F090015CF090015DF090015EF090015F64
:10031F00E4F0900160741FF09001617401F090019E
:10032F0062E4F0900163F0900164F0900165F09049
:10033F000166E4F0900167F0900168F0900169F0B8
:10034F0090016A7418F090016BE4F090016CF090DA
:10035F00016DF090016EF090016F7401F0900170DB
:10036F00741FF0900171741FF0900172740EF09071
:10037F000173740EF0900174740EF0900175740E89
:10038F00F0900176741EF0900177741EF090017852
:10039F00741EF0900179741EF090017A7401F09040
:1003AF00017B7401F090017C7401F090017D740168
:1003BF00F090017E7401F090017F7401F090018044
:1003CF007401F09001817401F0900182E4F09001CA
:1003DF0083F0900184F0900185F0900186E4F09015
:1003EF000187F0900188F0900189F090018AE4F084
:1003FF0090018BF090018CF090018DF090018EE4C4
:10040F00F090018FF0900190F0900191F090019297
:10041F007401F09001937401F09001947401F090C5
:10042F0001957401F0900196E4F0900197F090011E
:10043F0098F0900199F090019AE4F090019BF09060
:10044F00019CF090019D7410F090019E7418F09033
:10045F00019F740CF09001A07406F09001A1740339
:10046F00F09001A2741FF09001A3741FF09001A4EB
:10047F00E4F09001A5F09001A6F09001A7F0900193
:10048F00A8E4F09001A9741FF09001AA741EF090D7
:10049F0001AB741EF09001ACE4F09001ADF090014F
:1004AF00AEF09001AFF09001B0E4F09001B1741F85
:1004BF00F09001B27401F09001B37401F09001B4A7
:1004CF007401F09001B57403F09001B67406F090CA
:1004DF0001B7740CF09001B87418F09001B9741052
:1004EF00F09001BAE4F09001BBF09001BCF09001E4
:1004FF00BDF09001BEE4F09001BFF09001C0F0900C
:03050F0001C1F037
:10087600AA82AB83ACF0FD900030EAF0A3EBF0A3C4
:10088600ECF0A3EDF090002FE0F50A900030E0FBCD
:10089600A3E0FCA3E0FDA3E0FE8B078C008D018E98
:1008A60002C374099FE498E499E49AE433F50B8B48
:1008B600078C008D018E02C374639FE498E499E46B
:1008C6009AE433FAC374E79B74039CE49DE49EE4C4
:1008D60033FBAC0AC374818CF063F08095F0503F13
:1008E600C002C003C004120ACFD004D003D002BC99
:1008F6000202801EBC0302800EBC0420EB701D9019
:10090600A0007430F08015EA701290A0007430F0E8
:10091600800AE50B700690A0007430F01C80B58C40
:1009260002EA2434FEE43400FF900030E0F50CA324
:10093600E0F50DA3E0F50EA3E0F50F900529740A86
:10094600F0E4A3F0A3F0A3F0850C82850D83850E59
:10095600F0E50FC002C006C0071232DFA982AB83E2
:10096600ACF0FDD007D006D002743029F98E828F04
:1009760083F090053A740AF0E4A3F0A3F0A3F0859F
:100986000C82850D83850EF0E50FC00212358CAB07
:1009960082AC83ADF0FED002900030EBF0A3ECF019
:1009A600A3EDF0A3EEF00A900030E0FBA3E0FCA379
:1009B600E0FDA3E0FEC3E49BE49CE49D74808EF01E
:1009C60063F08095F05003020927EA1490003EF088
:1009D60090003EE0FAC374808AF063F08095F05090
:1009E6001FC002120ACFD0027B007CA0EA2434F595
:1009F60082E43400F583E0FD8B828C83F01A80D587
:100A06002290000FE4F5F01231709080007430F0FF
:100A1600900005E4F5F01231709080007430F0908B
:100A26000001E4F5F01231709080007430F07582A8
:100A360038120FE5758208120FE575820F120FE561
:100A4600758206120FE5758201020FE590003F746C
:100A560080F090004074C0F09000417490F09000D7
:100A66004274D0F0120ACF900029E0FABA030F9030
:100A76000028E0FBBB0807900029E4F0801FEA2469
:100A8600FC500E900555120622E582900029F08052
:100A96000CBA0300500790002974012AF0120ACFFD
:100AA600900029E0FA900076E4F08A82120E1B90FC
:100AB6000029E0FA90000AF09005551205BD900055
:100AC6000AE4F09007770205BD909000E0FA20E76F
:100AD600F822900043740AF0900044740DF09000E0
:100AE600457444F09000467444F09000477452F008
:100AF6009000487441F0900049744DF090004A749B
:100B060020F090004B7448F090004C7465F0900013
:100B16004D7478F090004E7464F090004F7475F048
:100B2600900050746DF09000517470F0900052E493
:100B3600F0758280120FE5900043122EDE7A807BDC
:100B4600007C00BC05004003020C0175820AC0024D
:100B5600C003C004122EB7D004D003D00275820D94
:100B6600C002C003C004122EB7D004D003D0028A3C
:100B7600058B067F0078009004E67402F08D828E65
:100B8600838FF0E8C002C003C004122D3CD004D00D
:100B960003D00275823AC002C003C004122EB7D039
:100BA60004D003D0027D00BD10005044758220C0E1
:100BB60002C003C004C005122EB7D005D004D0036E
:100BC600D00290B000E0FE7F00780079009004E645
:100BD6007402F08E828F8388F0E9C002C003C004DD
:100BE600C005122D3CD005D004D003D0020D80B72D
:100BF60074102AFAE43BFB0C020B49900029E0FA38
:100C0600900028E0FB900076F08A82020E1B90008E
:100C160053740AF0900054740DF09000557443F02C
:100C26009000567447F09000577452F09000587434
:100C360041F0900059744DF090005A7420F09000E5
:100C46005B7448F090005C7465F090005D7478F019
:100C560090005E7464F090005F7475F090006074AC
:100C66006DF09000617470F0900062E4F07582405F
:100C7600120FE5900053122EDE7A007B007C00BC3A
:100C860004004003020D3D75820AC002C003C00481
:100C9600122EB7D004D003D00275820DC002C00355
:100CA600C004122EB7D004D003D0028A058B067F6B
:100CB6000078009004E67402F08D828E838FF0E84F
:100CC600C002C003C004122D3CD004D003D002756C
:100CD600823AC002C003C004122EB7D004D003D09B
:100CE600027D00BD10005044758220C002C003C0C2
:100CF60004C005122EB7D005D004D003D00290B0A0
:100D060000E0FE7F00780079009004E67402F08E21
:100D1600828F8388F0E9C002C003C004C005122D8B
:100D26003CD005D004D003D0020D80B774102AFA47
:100D3600E43BFB0C020C85900029E0FA900028E0C9
:100D4600FB900076F08A82020E1BE582900063F02B
:100D5600900064740AF0900065740DF0900066745B
:100D660049F0900067746EF09000687476F0900019
:100D7600697461F090006A746CF090006B7469F0AD
:100D860090006C7464F090006D7420F090006E74A6
:100D960041F090006F7464F09000707464F09000FD
:100DA600717472F09000727465F09000737473F051
:100DB6009000747473F0900075E4F0900063E0FAAC
:100DC600BA90004005EA2460502D900063E0FABA1C
:100DD600D0004005EA2420501E900063E0FABAC015
:100DE600004005EA2430500F900063E0FABA800014
:100DF600401CEA24704017120ACF900063E0FA44C0
:100E060080F0900063E0FAF582120FE5800690000C
:100E160064122EDE22E582900077F0900078740A44
:100E2600F0900079740DF090007A7449F090007B90
:100E3600746EF090007C7476F090007D7461F09092
:100E4600007E746CF090007F7469F090008074648A
:100E5600F09000817420F09000827452F09000832C
:100E6600746FF09000847477F09000857420F09091
:100E76000086744EF09000877475F0900088746D4B
:100E8600F09000897462F090008A7465F090008B8F
:100E96007472F090008CE4F090008D740AF090006B
:100EA6008E740DF090008F7449F0900090746EF07F
:100EB6009000917476F09000927461F090009374B3
:100EC6006CF09000947469F09000957464F0900052
:100ED600967420F09000977443F0900098746FF029
:100EE600900099746CF090009A7475F090009B7461
:100EF6006DF090009C746EF090009D7420F0900050
:100F06009E744EF090009F7475F09000A0746DF082
:100F16009000A17462F09000A27465F09000A37432
:100F260072F09000A4E4F09000A57480F09000A602
:100F360074C0F09000A77490F09000A874D0F012DE
:100F46000ACF900076E0FABA1000400C90077712AC
:100F56000622E582900076F0900077E0FABA040067
:100F6600400C900555120622E582900077F090001D
:100F760077E0FA24A5F582E43400F583E0FA9000E0
:100F860076E0FB2AFABA90004005EA2460501EBAC1
:100F9600D0004005EA24285014BAC0004005EA24CF
:100FA60030500ABA80004036EA247040318A8212F4
:100FB6000D50900076E0FA900028F0900077E0FB64
:100FC600900029F090000AEAF0900777C003120516
:100FD600BDD00390000AEBF09005551205BD22E541
:100FE600829000A9F0120ACF7A007B809000A9E0D7
:100FF600FC8A828B83F022E5829000AAF0120ACF47
:10100600900029E0FABA030A900028E0FBBB08002A
:101016004005BA0300503B120ACF7A007BA090002D
:10102600AAE0FC8A828B83F0900028E0FA900028E0
:1010360074012AF0900028E0FA90000AF0900777F1
:101046001205BD900029E0FA90000AF090055512AD
:1010560005BD900028E0FABA1000400A900029E089
:10106600FABA03004012900028E0FABA0800400BD2
:10107600900029E0FABA0303120A5222AA83E582F3
:101086009000ABF0A3EAF09000ABE0FAA3E0FB8A95
:10109600828B83E0FC601C8C82C002C003120FFDB1
:1010A600D003D0020ABA00010B9000ABEAF0A3EB22
:1010B600F080DC9000ABEAF0A3EBF022758201121F
:1010C6000FE5900029E4F090000AF090055512050E
:1010D600BD900028E4F090000AF09007770205BD65
:1010E600E5829000ADF09000AE740AF09000AF7407
:1010F6000DF09000B07445F09000B1746EF0900061
:10110600B27474F09000B37465F09000B47472F029
:101116009000B57420F09000B67462F09000B77439
:1011260061F09000B87473F09000B97465F09000A7
:10113600BA7420F09000BB746FF09000BC7466F037
:101146009000BD7420F09000BE7479F09000BF74DA
:101156006FF09000C07475F09000C17472F090004A
:10116600C27420F09000C37464F09000C47461F0FF
:101176009000C57474F09000C67461F09000C77456
:1011860020F09000C87465F09000C9746EF090006D
:10119600CA7474F09000CB7472F09000CC7479F03D
:1011A6009000CDE4F09000CE740AF09000CF740D5C
:1011B600F09000D07443F09000D17468F09000D2A3
:1011C6007461F09000D37472F09000D47461F09062
:1011D60000D57463F09000D67474F09000D77465EF
:1011E600F09000D87472F09000D97420F09000DA74
:1011F600E4F09000DB740AF09000DC740DF09000CF
:10120600DD7452F09000DE746FF09000DF7477F0BA
:101216009000E07420F09000E1E4F01210C290001B
:10122600AE122EDE75820A12305AAA82AB83900065
:10123600ADE0FB7C00C3EC9B40030213589000CE4C
:10124600C002C003C004122EDED004D003D0028C2C
:10125600057E000DBD00010EEE3395E0FFF88D8290
:101266008E838FF0C002C003C004122F1ED004D09C
:1012760003D002ECC40354F8FD4305407E00BE08CB
:1012860000400302132CC0039000DBC002C003C061
:1012960004C005C006122EDED006D005D004D00349
:1012A600D0028E07780079007B008F82888389F0D0
:1012B600EBC002C003C004C005C006122F1ED00634
:1012C600D005D004D003D0028A82C002C004C00573
:1012D600C00612305AAB82AF83D006D005D004D0F8
:1012E60002EEC42354E0FF4203EE4D547FFFF58225
:1012F600C002C003C004C005C006120FE5D006D068
:1013060005D004D003D0028B82C002C003C004C043
:1013160005C006120FFDD006D005D004D003D002BA
:101326000ED003021284900076ECF0758200C002A3
:10133600C003C004120E1BD004D003D0028C82C09E
:1013460002C003C004120FFDD004D003D0020C0269
:10135600123B2275820C120FE59000277401F09063
:101366000027E0FA7001229001C2E4F0A3F0A3F096
:10137600A3F075110074FC251140E4900001E4F51A
:10138600F01231701210C2AB117C00BC0700400392
:10139600021490ECC40354F8FD4305409001C2E0EA
:1013A600FEA3E0FFA3E0F8A3E0F975100074F825AA
:1013B60010500302144BC003EE24E2F582EF340012
:1013C600F583E0FB9001C6F00EBE00090FBF0005D5
:1013D60008B80001099001C2EEF0A3EFF0A3E8F00F
:1013E600A3E9F0E510C42354E0FB9001C6E0FA4BF4
:1013F600F0E5104D547FFAF582C003C004C005C065
:1014060006C007C000C001120FE5D001D000D0070A
:10141600D006D005D004D0039001C6E0FAF582C00C
:1014260003C004C005C006C007C000C001120FFDFE
:10143600D001D000D007D006D005D004D0030510C7
:10144600D0030213B39001C2EEF0A3EFF0A3E8F0CD
:10145600A3E9F0900076ECF08B82C003C004120E74
:101466001BD004D0038C82C003C004120FFDD0042D
:10147600D003900076740AF0758200C003C004128F
:0F1486000E1BD004D0030C021391051102137B2F
:0400000002002632A2
:03000B000229A81F
:0100130032BA
:01001B0032B2
:030023000232CDD9
:030522000214952B
:101495001214A180FE438E0C900000229001CF749F
:1014A5000AF09001D0740DF09001D1744DF09001C7
:1014B500D2746FF09001D3746EF09001D47469F01A
:1014C5009001D57473F09001D67468F09001D774CB
:1014D50020F09001D8744EF09001D97465F0900118
:1014E500DA746EF09001DB7465F09001DC7420F025
:1014F5009001DD7445F09001DE7453F09001DF74C6
:1015050044F09001E07420F09001E17453F09001F3
:10151500E27470F09001E37472F09001E47469F084
:101525009001E5746EF09001E67467F09001E77440
:1015350020F09001E87432F09001E97430F09001E8
:10154500EA7431F09001EB7438F09001EC7420F0FE
:101555009001ED744CF09001EE7461F09001EF7420
:1015650062F09001F07420F09001F17434F0900174
:10157500F27420F09001F37452F09001F47465F068
:101585009001F57471F09001F67475F09001F7749F
:1015950069F09001F87472F09001F97465F09001AA
:1015A500FA7464F09001FBE4F09001FC744DF09046
:1015B50001FD746FF09001FE746EF09001FF746987
:1015C500F09002007473F09002017468F0900202CA
:1015D5007420F0900203744EF09002047465F0904C
:1015E5000205746EF09002067465F090020774208F
:1015F500F09002087445F09002097453F090020AC5
:101605007444F090020B7420F090020C7453F09027
:10161500020D7470F090020E7472F090020F7469EE
:10162500F0900210746EF09002117467F09002123F
:101635007427F09002137431F09002147438F0900E
:1016450002157420F0900216744CF0900217746124
:10165500F09002187462F09002197420F090021A4A
:101665007434F090021BE4F090021C740AF09002AE
:101675001D740DF090021E7450F090021F7472F0EC
:101685009002207465F09002217473F09002227428
:1016950073F09002237420F09002247420F09002DD
:1016A500257427F09002267442F09002277461F0A9
:1016B5009002287463F0900229746BF090022A74EA
:1016C50073F090022B7470F090022C7461F090020C
:1016D5002D7463F090022E7465F090022F7427F03C
:1016E500900230742DF0900231743EF09002327405
:1016F50020F09002337443F0900234746CF0900241
:10170500357465F09002367461F09002377472F0AA
:101715009002387420F0900239744CF090023A74BB
:1017250043F090023B7444F090023C7420F0900228
:101735003D742CF090023E7427F090023F7458F0EF
:101745009002407427F0900241742DF0900242748B
:101755003EF09002437420F0900244744AF09002E7
:10176500457475F0900246746DF09002477470F000
:101775009002487420F09002497443F090024A7434
:101785006FF090024B742DF090024C746FF0900244
:101795004D7472F090024E7464F090024F7469F0CB
:1017A500900250746EF09002517461F09002527480
:1017B50074F09002537465F09002547473F09002C3
:1017C50055742CF09002567420F09002577427F04F
:1017D5009002587444F09002597427F090025A749C
:1017E5002DF090025B743EF090025C744CF0900218
:1017F5005D7443F090025E7444F090025F7420F0D3
:101805009002607444F09002617444F09002627436
:1018150052F09002637441F0900264744DF09002AE
:10182500657420F09002667444F09002677455F078
:10183500900268744DF09002697450F090026A74D9
:101845002CF090026B7420F090026C7427F09002DB
:101855006D7447F090026E7427F090026F742DF04E
:10186500900270743EF09002717420F090027274D0
:101875004CF09002737443F09002747444F090023B
:10188500757420F09002767443F09002777447F0F7
:101895009002787452F09002797441F090027A7453
:1018A5004DF090027B7420F090027C7444F090021D
:1018B5007D7455F090027E744DF090027F7450F067
:1018C500900280742CF0900281740AF09002827468
:1018D5000DF09002837427F09002847442F0900218
:1018E500857427F0900286742DF0900287743EF07F
:1018F5009002887443F09002897455F090028A74BE
:1019050020F090028B7442F090028C746FF090027C
:101915008D7475F090028E746CF090028F7464F083
:101925009002907465F09002917472F09002927436
:1019350020F0900293744CF0900294746FF0900232
:10194500957467F0900296746FF0900297742CF07E
:101955009002987420F09002997427F090029A747E
:1019650043F090029B7427F090029C742DF0900236
:101975009D743EF090029E7443F090029F7475F042
:101985009002A07473F09002A17474F09002A27496
:101995006FF09002A3746DF09002A47420F0900291
:1019A500A57443F09002A67468F09002A77461F0E4
:1019B5009002A87472F09002A97461F09002AA7462
:1019C50063F09002AB7474F09002AC7465F0900211
:1019D500AD7472F09002AE7420F09002AF7442F0D4
:1019E5009002B07475F09002B17469F09002B2740F
:1019F5006CF09002B37464F09002B47465F09002D8
:101A0500B57472F09002B6742CF09002B77420F0A1
:101A15009002B87427F09002B97457F09002BA7426
:101A250027F09002BB742DF09002BC743EF090023A
:101A3500BD7457F09002BE7472F09002BF7469F0E5
:101A45009002C07474F09002C17465F09002C27483
:101A550020F09002C37444F09002C47461F09002C7
:101A6500C57474F09002C67461F09002C77420F0DA
:101A75009002C87449F09002C97432F09002CA7499
:101A850043F09002CB742CF09002CC7420F09002BD
:101A9500CD7427F09002CE7452F09002CF7427F0E7
:101AA5009002D0742DF09002D1743EF09002D27461
:101AB50052F09002D37465F09002D47461F09002F4
:101AC500D57464F09002D67420F09002D77444F077
:101AD5009002D87461F09002D97474F09002DA74AF
:101AE50061F09002DB7420F09002DC7449F0900202
:101AF500DD7432F09002DE7443F09002DF742CF056
:101B05009002E07420F09002E17427F09002E274F4
:101B150049F09002E37427F09002E4742DF09002EE
:101B2500E5743EF09002E67420F09002E77445F00B
:101B35009002E87445F09002E97450F09002EA745E
:101B450052F09002EB744FF09002EC744DF090025D
:101B5500ED7420F09002EE7444F09002EF7455F0AD
:101B65009002F0744DF09002F17450F09002F2740E
:101B750020F09002F3740AF09002F4740DF09002D4
:101B8500F57427F09002F67454F09002F77427F07C
:101B95009002F8742DF09002F9743EF09002FA74F8
:101BA50053F09002FB7474F09002FC7461F09002A3
:101BB500FD7472F09002FE7474F09002FF7420F0D0
:101BC500900300746FF09003017472F09003027437
:101BD50020F09003037453F09003047474F09003A1
:101BE50005746FF09003067470F09003077420F08D
:101BF5009003087454F09003097469F090030A7413
:101C05006DF090030B7465F090030C742CF0900349
:101C15000D7420F090030E7427F090030F7459F0A3
:101C25009003107427F0900311742DF09003127433
:101C35003EF09003137420F09003147452F0900357
:101C4500157465F09003167473F09003177465F0BE
:101C55009003187474F09003197420F090031A74AB
:101C650054F090031B7469F090031C746DF090039D
:101C75001D7465F090031E742CF090031F7420F002
:101C85009003207427F09003217450F09003227480
:101C950027F0900323742DF0900324743EF09003F5
:101CA500257420F09003267457F09003277472F082
:101CB5009003287469F09003297474F090032A74D2
:101CC50065F090032B7420F090032C7474F090034E
:101CD5002D746FF090032E7420F090032F7469F02B
:101CE500900330746FF09003317420F090033274D8
:101CF50065F09003337478F09003347470F09003BA
:101D0500357461F0900336746EF09003377464F0A7
:101D15009003387465F09003397472F090033A7447
:101D250020F090033B7450F090033C746FF09003E7
:101D35003D7472F090033E7474F090033F742CF080
:101D45009003407420F09003417427F0900342748F
:101D550051F09003437427F0900344742DF09003E1
:101D650045743EF09003467420F09003477452F09A
:101D75009003487465F09003497461F090034A74C8
:101D850064F090034B7420F090034C7466F090035C
:101D95004D7472F090034E746FF090034F746DF0B4
:101DA5009003507420F09003517469F090035274BD
:101DB5006FF09003537420F09003547465F0900312
:101DC500557478F09003567470F09003577461F071
:101DD500900358746EF09003597464F090035A742C
:101DE50065F090035B7472F090035C7420F09003CF
:101DF5005D7470F090035E746FF090035F7472F021
:101E05009003607474F0900361742CF09003627415
:101E150020F09003637427F0900364743FF09003FF
:101E2500657427F0900366742DF0900367743EF097
:101E35009003687420F09003697444F090036A7409
:101E450069F090036B7473F090036C7470F09003F9
:101E55006D746CF090036E7461F090036F7479F09B
:101E65009003707420F0900371744DF090037274B8
:101E750065F0900373746EF09003747475F09003BD
:101E850075E4F0900376740AF0900377740DF09082
:101E950003787445F0900379746EF090037A747446
:101EA500F090037B7465F090037C7472F090037D71
:101EB5007420F090037E7444F090037F7461F09079
:101EC50003807474F09003817461F0900382742030
:101ED500F0900383E4F0900384740AF09003857412
:101EE5000DF09003867445F0900387746EF09003AF
:101EF500887474F09003897465F090038A7472F0A5
:101F050090038B7420F090038C7441F090038D74D2
:101F150064F090038E7464F090038F7472F09003F4
:101F2500907465F09003917473F09003927473F05C
:101F35009003937420F0900394E4F0900395740A51
:101F4500F0900396740DF09003977457F0900398F2
:101F55007472F09003997469F090039A7474F09018
:101F6500039B7465F090039C7420F090039D744D61
:101F7500F090039E746FF090039F7464F09003A03B
:101F85007465F09003A1E4F09003A2740AF0900345
:101F9500A3740DF09003A47457F09003A57472F028
:101FA5009003A67469F09003A77474F09003A87465
:101FB50065F09003A97420F09003AA7443F0900390
:101FC500AB746FF09003AC746DF09003AD7470F06A
:101FD5009003AE746CF09003AF7465F09003B07429
:101FE50074F09003B17465F09003B27420F090031F
:101FF500B3E4F09003B4740AF09003B5740DF09057
:1020050003B67452F09003B77465F09003B8746129
:10201500F09003B97464F09003BA7420F09003BB98
:10202500744DF09003BC746FF09003BD7464F09030
:1020350003BE7465F09003BF7420F09003C0E4F014
:102045009003C1740AF09003C2740DF09003C37439
:1020550044F09003C47461F09003C57474F0900368
:10206500C67461F09003C77420F09003C87472F0D1
:102075009003C97465F09003CA7461F09003CB7442
:1020850064F09003CC7420F09003CDE4F09003CE7F
:10209500740AF09003CF740DF09003D07452F09051
:1020A50003D17465F09003D27461F09003D3746426
:1020B500F09003D47420F09003D57443F09003D6C8
:1020C500746FF09003D7746DF09003D87470F0902E
:1020D50003D9746CF09003DA7465F09003DB7474C3
:1020E500F09003DC7465F09003DD7420F09003DE5E
:1020F500E4F09003DF740AF09003E0740DF09003B0
:10210500E1744CF09003E27443F09003E37444F0FF
:102115009003E47420F09003E57441F09003E674B5
:1021250064F09003E77464F09003E87472F0900330
:10213500E97465F09003EA7473F09003EB7473F03F
:102145009003EC7420F09003ED744AF09003EE7464
:1021550075F09003EF746DF09003F07470F09003D8
:10216500F1E4F09003F2740AF09003F3740DF0902B
:1021750003F4744CF09003F57443F09003F6744443
:10218500F09003F77420F09003F87463F09003F96E
:10219500746FF09003FA742DF09003FB746FF09058
:1021A50003FC7472F09003FD7464F09003FE74698F
:1021B500F09003FF746EF09004007461F0900401D8
:1021C5007474F09004027465F09004037473F090D5
:1021D50004047420F0900405744AF09004067475A4
:1021E500F0900407746DF09004087470F090040981
:1021F500E4F090040A740AF090040B740DF0900456
:102205000C7445F090040D746EF090040E7474F027
:1022150090040F7465F09004107472F090041174BA
:1022250020F09004127458F09004137420F0900478
:10223500147463F0900415746FF0900416746FF0C5
:102245009004177472F09004187464F09004197473
:1022550069F090041A746EF090041B7461F0900498
:102265001C7474F090041D7465F090041E7428F0BD
:1022750090041F7472F0900420746FF09004217420
:1022850077F09004227429F0900423742DF09004C3
:1022950024743EF0900425E4F0900426740AF0902E
:1022A5000427740DF09004287445F0900429746E89
:1022B500F090042A7474F090042B7465F090042C4B
:1022C5007472F090042D7420F090042E7459F090DF
:1022D500042F7420F09004307463F0900431746F0F
:1022E500F0900432746FF09004337472F0900434FB
:1022F5007464F09004357469F0900436746EF0904F
:1023050004377461F09004387474F090043974657E
:10231500F090043A7428F090043B7443F090043C28
:10232500746FF090043D746CF090043E7475F090F9
:10233500043F746DF0900440746EF090044174296C
:10234500F0900442742DF0900443743EF0900444E0
:10235500E4F0900445740AF0900446740DF090047E
:10236500477443F09004487475F09004497473F011
:1023750090044A7474F090044B746FF090044C749C
:102385006DF090044D7420F090044E7443F0900469
:102395004F7468F09004507461F09004517472F0B9
:1023A5009004527461F09004537463F09004547473
:1023B50074F09004557465F09004567472F09004AE
:1023C500577420F0900458746DF0900459746FF0B0
:1023D50090045A7464F090045B7465F090045C7426
:1023E5000AF090045D740DF090045E7448F090045A
:1023F5005F746FF09004607477F09004617420F05E
:10240500900462746DF09004637461F090046474D8
:102415006EF09004657479F09004667420F0900471
:10242500677463F09004687475F09004697473F0D0
:1024350090046A7474F090046B746FF090046C747B
:102445006DF090046D7420F090046E7463F0900448
:102455006F7468F09004707461F09004717472F098
:102465009004727461F09004737463F09004747452
:1024750074F09004757465F09004767472F09004AD
:10248500777473F09004787420F09004797464F094
:1024950090047A746FF090047B7420F090047C743F
:1024A50079F090047D746FF090047E7475F090045B
:1024B5007F7420F09004807477F09004817461F04B
:1024C500900482746EF09004837474F090048474A4
:1024D50020F09004857474F0900486746FF0900475
:1024E500877420F09004887463F09004897472F006
:1024F50090048A7465F090048B7461F090048C7478
:1025050074F090048D7465F090048E743FF090041F
:102515008F7428F09004907475F09004917470F0A5
:102525009004927474F0900493746FF09004947412
:1025350020F09004957438F09004967429F0900476
:1025450097E4F0900498740AF0900499740DF09053
:10255500049A7449F090049B746EF090049C747610
:10256500F090049D7461F090049E746CF090049F4B
:102575007469F09004A07464F09004A17420F09044
:1025850004A27445F09004A3746EF09004A47474CE
:10259500F09004A57472F09004A67479F09004A7E5
:1025A500E4F09004A8740AF09004A9740DF0900466
:1025B500AA7449F09004AB746EF09004AC7476F094
:1025C5009004AD7461F09004AE746CF09004AF7437
:1025D50069F09004B07464F09004B17420F0900434
:1025E500B27441F09004B37464F09004B47464F070
:1025F5009004B57472F09004B67465F09004B774E5
:1026050073F09004B87473F09004B9E4F09004BAD0
:10261500740AF09004BB740DF09004BC7444F090FF
:1026250004BD7441F09004BE7443F09004BF74205F
:10263500F09004C07469F09004C17473F09004C202
:102645007420F09004C3744FF09004C4746EF0903D
:1026550004C5E4F09004C6740AF09004C7740DF044
:102665009004C87444F09004C97441F09004CA748D
:1026750043F09004CB7420F09004CC7469F090047E
:10268500CD7473F09004CE7420F09004CF744FF0A5
:102695009004D07466F09004D17466F09004D2E48E
:1026A500F0122EC99001CF122EDE90021C122EDEE2
:1026B500120A071208199001FC1210827582801205
:1026C500083290000A740FF09007771205BD90004C
:1026D5000A7401F09005551205BD9001CA7401F008
:1026E500122A49122EAEAA829001CAE0FBBB010252
:1026F500C28CBA0803022830BA3F028049BA4203A5
:1027050002285FBA4303022836BA440302296FBA86
:102715004703022974BA4903022979BA5002802F66
:10272500BA51028056BA52030228CEBA5403022780
:10273500BCBA570302286FBA58030227EBBA5903EC
:102745000227DB02298890021C122EDE02299690B0
:1027550001CAE0FBBB0102D28C900395122EDE90DC
:102765000376122EDE75821012305AAB82AC8312BC
:1027750008329003A2122EDE0229969001CAE0FBD0
:10278500BB0102D28C120854AB829003CEC0031257
:102795002EDED0039003C1C003122EDED0037C00D1
:1027A5007D007E009004E67402F08B828C838DF0B0
:1027B500EE122D3C0229969001CAE0FBBB010B12DB
:1027C5002BD49001CAE4F0022996122BD79001CAA6
:1027D5007401F00229969001CAE0FBBB0102D28C7C
:1027E500122BDA0229969001CAE0FBBB0102D28CBA
:1027F5009003F2122EDE90040A122EDE75820A1262
:10280500305AAB82AC83900426C003122EDED0036F
:1028150075820AC00312305AAC82AD83D003900092
:1028250076ECF08B82120E1B0229961210C2022939
:1028350096900445122EDE75820A12305AAB82AC90
:1028450083EB24F7400BEB60088B821210E602291C
:1028550096900498122EDE0229969001CAE0FBBBE1
:102865000102D28C1213590229969001CAE0FBBBD2
:102875000102D28C900395122EDE900376122EDE85
:1028850075821012305AAB82AC83900384C0031258
:102895002EDED003758210C00312305AAC82AD8390
:1028A500D003C374FF9C74079D50099004A8122E91
:1028B500DE02299690000AEBF08C828D831205BD0D
:1028C5009003A2122EDE0229969001CAE0FBBB01FD
:1028D50002D28C9003B4122EDE900384122EDE7584
:1028E500821012305AAB82AC83C374FF9B74079C71
:1028F50050099004A8122EDE0229968B828C83C083
:1029050003C004120622AD82D004D0039003CEC0CA
:1029150003C004C005122EDED005D004D0039003F9
:10292500C1C003C004C005122EDED005D004D003FB
:102935007E007F009004E67403F08B828C838EF01A
:10294500EFC005122D3CD00575823AC005122EB791
:10295500D0057B007C007E009004E67402F08D8239
:102965008B838CF0EE122D3C8027120AD880221220
:102975000C14801D9001CAE0FBBB0102D28C12062B
:10298500AF800E8A82C002122EB7D0028A82120F41
:10299500FD9001CAE0FABA010280030226E8D28C52
:0329A5000226E81F
:100512009004DBE4F0A3F09004E0E4F09004E1F056
:1029A800C0E0C0F0C082C083C002C003C004C0053C
:1029B800C006C007C000C001C0D075D000C28CC21C
:1029C8008D758AEF758C739004DBE0FAA3E0FBBA8F
:1029D8000147BB00449004D7E0FCA3E0FDA3E0FE60
:1029E800A3E0FF9004D774012CF0E43DA3F0E43E8B
:1029F800A3F0E43FA3F0B290122A5D9004DBE4F068
:102A0800A3F0120854E582FC20E71974FFC39C4424
:102A180080FCF582120832800B9004DB74012AF0E6
:102A2800E43BA3F0D28CD0D0D001D000D007D006A0
:102A3800D005D004D003D002D083D082D0F0D0E02B
:102A48003243A8824389015389F1758AEF758C73E3
:102A5800D28C022BDA900555120622858213900734
:102A6800771206228582129004D7E0FCA3E0FDA32A
:102A7800E0FEA3E0FF900531740AF0E4A3F0A3F0B0
:102A8800A3F08C828D838EF0EFC004C005C006C011
:102A9800071233A0A882A983ABF0FAD007D006D0DA
:102AA80005D0049004DDE8F0900542740AF0E4A330
:102AB800F0A3F0A3F08C828D838EF0EF123685AAF6
:102AC80082AB83ACF0FD900531743CF0E4A3F0A335
:102AD800F0A3F08A828B838CF0ED1233A0AA82AB2C
:102AE80083ACF0FD9004DEEAF0120ACF7582DF12A3
:102AF8000D50120ACF9004DDE0FA7B007C007D00C7
:102B080090002F7401F08A828B838CF0ED12087686
:102B18009004DEE0FA9004E0E0FBEAB50303022B40
:102B2800C8C002120ACFD0027582DCC002120D5052
:102B3800D0028A037C007D007E0090002F7402F092
:102B48008B828C838DF0EEC002120876D00290043E
:102B5800E0EAF09004D7E0FAA3E0FBA3E0FCA3E0EE
:102B6800FD9005427458F0A37402F0A3E4F0A3F0BA
:102B78008A828B838CF0ED123685AA82AB83ACF007
:102B8800FD9004DFEAF09004E1E0FBEAB50302807F
:102B98002F120ACF7582D9120D509004DFE0FA8AFD
:102BA800037C007D007E0090002F7402F08B828CE5
:102BB800838DF0EEC002120876D0029004E1EAF0AC
:102BC800900076E512F0851382020E1BC28C22D289
:102BD8008C227582D9120D5090002F7402F090004B
:102BE80000E4F5F0120876120ACF90A000743AF0CB
:102BF80090002F7402F0900000E4F5F012087612AD
:102C08000ACF90A000742EF090002F7401F090006D
:102C180000E4F5F01208769004D7E4F0A3F0A3F0EE
:102C2800A3F022AA83E5829004E3F0A3EAF09004DB
:102C3800E3E0FAA3E0FB30E703022CCDC3740F9A5C
:102C480074808BF063F08095F05003022CCDEA2A53
:102C58002A902C5D73022C91022C8D022C95022C4B
:102C680099022C9D022CA1022CA5022CA9022CADA4
:102C7800022CB1022CB5022CB9022CBD022CC102C7
:102C88002CC5022CC9758231227582302275823298
:102C980022758233227582342275823522758236F6
:102CA80022758237227582382275823922758241CF
:102CB800227582422275824322758244227582459A
:102CC800227582462275823022E5829004E5F090D2
:102CD80004E5E0FABA3000400EEA24C64009EA24C6
:102CE800D09004E5F080469004E5E0FABA6100402F
:102CF8001AEA24994015EA249F9004E5F09004E527
:102D0800E0FA9004E5740A2AF080229004E5E0FADB
:102D1800BA41004018EA24994013EA24BF9004E518
:102D2800F09004E5E0FA9004E5740A2AF09004E5CE
:102D3800E0F58222AA82AB83ACF0FD9004E7EAF0CA
:102D4800A3EBF0A3ECF0A3EDF09004E6E0FA900416
:102D5800E7E0FBA3E0FCA3E0FDA3E0FEC3740F9B48
:102D6800E49CE49DE49EE433FFC374FF9BE49CE48D
:102D78009DE49EE433F8C374FF9B740F9CE49DE4C8
:102D88009EE433FBC374818AF063F08095F0505F52
:102D9800BA0202803EBA0302801EBA044FEB704C9E
:102DA800758230C002C003C007C000122EB7D00021
:102DB800D007D003D0028034E87031758230C00269
:102DC800C003C007C000122EB7D000D007D003D070
:102DD800028019EF7016758230C002C003C007C0A8
:102DE80000122EB7D000D007D003D0021A8095EA7F
:102DF80024EBFEE43404FF9004E7E0F521A3E0F5BA
:102E080022A3E0F523A3E0F524740F5521F97B00F4
:102E18007C007D0089828B83C002C006C007122C0B
:102E28002BAB82D007D006D0028E828F83EBF0AB1B
:102E380021E522C4CBC4540F6BCB540FCB6BCBFC16
:102E4800E523C454F04CFCAD23E524C4CDC4540F91
:102E58006DCD540FCD6DCDFE9004E7EBF0A3ECF0F3
:102E6800A3EDF0A3EEF00A9004E7E0FBA3E0FCA3D7
:102E7800E0FDA3E0FEEB4C4D4E6003022DF7EA1493
:102E88009004F5F09004F5E0FAEA20E718EA24EB5C
:102E9800F582E43404F583E0FBF582C002122EB714
:102EA800D0021A80E42210980280FB85998222E5DC
:102EB800829004F6F03099FD9004F6E0F599C299F5
:102EC8002243A88043B81043892043985043884040
:102ED800758DFDD29922AA83E5829004F7F0A3EAC2
:102EE800F09004F7E0FAA3E0FB8A828B83E0FC60B1
:102EF8001C8C82C002C003122EB7D003D0020ABABB
:102F080000010B9004F7EAF0A3EBF080DC9004F7E3
:102F1800EAF0A3EBF022AA82AB83ACF0FD9004F9AF
:102F2800EAF0A3EBF0A3ECF0A3EDF09004F9E0FADB
:102F3800A3E0FBA3E0FCA3E0FD30E74375822DC0CE
:102F480002C003C004C005122EB7D005D004D003B8
:102F5800D00290055074FFF0A3F0A374FFF0A3F023
:102F68008A828B838CF0ED12381DAA82AB83ACF079
:102F7800FD9004F9EAF0A3EBF0A3ECF0A3EDF07AEE
:102F880000EA24FDFEE43404FF9004F9E0F525A3EB
:102F9800E0F526A3E0F527A3E0F528900529740AB3
:102FA800F0E4A3F0A3F0A3F0852582852683852786
:102FB800F0E528C002C006C0071232DFA982AB8341
:102FC800ACF0FDD007D006D002743029F98E828F7C
:102FD80083F090053A740AF0E4A3F0A3F0A3F08517
:102FE80025828526838527F0E528C00212358CAB1B
:102FF80082AC83ADF0FED0029004F9EBF0A3ECF0C4
:10300800A3EDF0A3EEF00A9004F9E0FBA3E0FCA323
:10301800E0FDA3E0FEC3E49BE49CE49D74808EF095
:1030280063F08095F05003022F89EA14900507F0A9
:10303800900507E0FAEA20E718EA24FDF582E4346F
:1030480004F583E0FBF582C002122EB7D0021A8085
:10305800E422E582900508F0900509E4F090051E49
:10306800F090051FF0A3F0900509E0FABA0D0302ED
:103078003100122EAEAA82900509EAF0BA3000405B
:1030880005EA24C65014BA61004005EA2499500A9A
:10309800BA4100403CEA24B940378A82C002122E65
:1030A800B7D00290051EE0FB240AFCE43405FD8A33
:1030B80082C003C004C005122CD1AE82D005D00452
:1030C800D0038C828D83EEF090051E74012BF08066
:1030D80096BA0802800302306F758208122EB775FF
:1030E8008220122EB7758208122EB790051EE0FABC
:1030F8001490051EF002306F900508E0FA90051E46
:10310800E0FB7C00C3EC9B505390051FE0FDA3E05F
:10311800FE90054EEAF0A3E4F08D828E83C002C0D3
:1031280003C0041237FDE5828583F0D004D003D0B4
:103138000290051FF0A3E5F0F0EC240AF582E434D0
:1031480005F583E0FD7E0090051FE0FFA3E0F89001
:10315800051FED2FF0EE38A3F00C80A890051FE0B6
:10316800FAA3E08A82F58322AA82AB83ACF0FD90B1
:103178000521EAF0A3EBF0A3ECF0A3EDF090052114
:10318800E0FAA3E0FBA3E0FCA3E0FD7E007F00786B
:10319800007900C3EE9AEF9BE89CE99D50387531A1
:1031A80060753204753300753400153174FFB5311C
:1031B8000C1532B532071533B533021534E53145F0
:1031C800324533453470E30EBE00C80FBF00C40853
:1031D800B800C00980BD22AA82AB83ACF0FD90057F
:1031E80025EAF0A3EBF0A3ECF0A3EDF0900525E0C1
:1031F800F529A3E0F52AA3E0F52BA3E0F52C7E0042
:103208007F0078007900852982852A83852BF0E55F
:103218002CC006C007C000C0011237BAAA82AB830F
:10322800ACF0FDD001D000D007D006C006C007C062
:1032380000C0017429C0E0745CC0E0748FC0E07401
:103248003FC0E08A828B838CF0ED1234E985822DB1
:1032580085832E85F02FF530E58124FCF581D0019A
:10326800D000D007D0068E828F8388F0E9C006C0D0
:1032780007C000C0011237BAAA82AB83ACF0FDD0F8
:1032880001D000D007D006C006C007C000C001C0EA
:103298002DC02EC02FC0308A828B838CF0ED123760
:1032A800CDAA82E58124FCF581D001D000D007D0D9
:1032B80006EA60100EBE00090FBF000508B800013D
:1032C8000902320E22C0E0C082C0839004E2E4F01A
:1032D800D083D082D0E032AA82AB83ACF0FD9005D7
:1032E8002DEAF0A3EBF0A3ECF0A3EDF090052DE0B0
:1032F800FAA3E0FBA3E0FCA3E0FD30E70FC3E49AE8
:10330800FEE49BFFE49CF8E49DF980088A068B079D
:103318008C008D018E028F0388048905900529E0B1
:10332800FEA3E0FFA3E0F8A3E0F930E713C3E49EAF
:10333800F514E49FF515E498F516E499F517800857
:103348008E148F1588168917900531E514F0A3E5BA
:1033580015F0A3E516F0A3E517F08A828B838CF0AD
:10336800ED1233A0AA82AB83ACF0FD90052DE0FEF0
:10337800A3E0FFA3E0F8A3E0F930E714C3E49AFE62
:10338800E49BFFE49CF8E49DF98E828F8388F02209
:103398008A828B838CF0ED22AA82AB83ACF0FD90FD
:1033A8000535EAF0A3EBF0A3ECF0A3EDF0900539B6
:1033B800E4F0900535E0FAA3E0FBA3E0FCA3E0FD10
:1033C8007E00900531E0F531A3E0F532A3E0F53356
:1033D800A3E0F534E534235401FF7078C006E531E5
:1033E80025E0FFE53233F8E53333F9E53433FE9071
:1033F8000531EFF0A3E8F0A3E9F0A3EEF090053172
:10340800E0F531A3E0F532A3E0F533A3E0F534C3EA
:10341800EA9531EB9532EC9533ED9534E433D006EB
:103428006029E534C313F534E53313F533E5321376
:10343800F532E53113F531900531E531F0A3E53288
:10344800F0A3E533F0A3E534F080090E900539EEDA
:10345800F00233CA900539E0FA900535E0FBA3E0A5
:10346800FCA3E0FDA3E0FE900531E0F531A3E0F513
:1034780032A3E0F533A3E0F534C3EB9531EC953294
:10348800ED9533EE95344017900535EBC39531F043
:10349800EC9532A3F0ED9533A3F0EE9534A3F090BC
:1034A8000531E0FBA3E0FCA3E0FDA3E0FEC313FEAF
:1034B800ED13FDEC13FCEB13FB900531F0A3ECF0DE
:1034C800A3EDF0A3EEF08A031AEB708D900535E0BA
:1034D800FAA3E0FBA3E0FCA3E0FD8A828B838CF0D7
:1034E80022123657BC00030238F3EF60FA30D502D7
:1034F800B2D1E583B4FF03023909E582B4FF0302C0
:103508003909258340072482400B0238F3248314A9
:103518005003023909F582EA8DF0A4A8F0EA8EF08A
:10352800A428F8E435F0F9EB8DF0A428E935F0F992
:10353800E433CA8FF0A429F9EA35F0FAEBF88EF0F3
:10354800A429F9EA35F0FAE433FBEC8DF0A429F963
:10355800EA35F0FAE43BFBE88FF0A42AFAEB35F001
:10356800FBE433CCFD8EF0A42AFAEB35F0FBE43C07
:10357800FCED8FF0A42BFBEC35F0FC20E7031237B1
:10358800910238D2AA82AB83ACF0FD90053EEAF0F6
:10359800A3EBF0A3ECF0A3EDF090053EE0FAA3E076
:1035A800FBA3E0FCA3E0FD30E70FC3E49AFEE49B35
:1035B800FFE49CF8E49DF980088A068B078C008D4F
:1035C800018E028F038804890590053AE0FEA3E086
:1035D800FFA3E0F8A3E0F933E433F518E518601326
:1035E800C3E49EF519E49FF51AE498F51BE499F5F0
:1035F8001C80088E198F1A881B891C900542E519B2
:10360800F0A3E51AF0A3E51BF0A3E51CF08A828B72
:10361800838CF0ED123685AA82AB83ACF0FD900561
:103628003EE0FEA3E0FFA3E0F8A3E0F933E433654E
:10363800186014C3E49AFEE49BFFE49CF8E49DF947
:103648008E828F8388F0228A828B838CF0ED22AA67
:1036580082AB83A2F73392D16002D2F7F582ACF045
:10366800E58124F9F8E6FD08E6FE0886F008E6A2FA
:10367800F73392D56002D2F7F583AFF022AA82AB76
:1036880083ACF0FD900546EAF0A3EBF0A3ECF0A3C1
:10369800EDF090054AE4F0A3F0A3F0A3F090054202
:1036A800E0FAA3E0FBA3E0FCA3E0FD753120900560
:1036B80046E0FFA3E0F8A3E0F9A3E0FE339200EFB1
:1036C8002FFFE833F8E933F9EE33FE900546EFF0C3
:1036D800A3E8F0A3E9F0A3EEF090054AE0FEA3E02A
:1036E800FFA3E0F8A3E0F9EE2EFEEF33FFE833F88E
:1036F800E933F990054AEEF0A3EFF0A3E8F0A3E967
:10370800F030001E90054AE0FFA3E0F8A3E0F9A31B
:10371800E0FE90054A74014FF0A3E8F0A3E9F0A396
:10372800EEF090054AE0FEA3E0FFA3E0F8A3E0F97D
:10373800C3EE9AEF9BE89CE99D403190054AEEC3A1
:103748009AF0EF9BA3F0E89CA3F0E99DA3F0900505
:1037580046E0FEA3E0FFA3E0F8A3E0F99005467475
:10376800014EF0A3EFF0A3E8F0A3E9F0D531028011
:10377800030236B6900546E0FAA3E0FBA3E0FCA3FB
:09378800E0FD8A828B838CF022A3
:06005500E478FFF6D8FD7F
:103791007804EC700DC9CACBFCE58224F8F582D817
:1037A100F122782020E7111582C3E933F9EA33FACF
:0937B100EB33FBEC33FCD8EC22F5
:100033007900E94400601B7A00903921785475A057
:1000430005E493F2A308B8000205A0D9F4DAF27527
:02005300A0FF0C
:1037BA00FCABF0AA83A982749EC2D1F5821237911A
:1037CA000238D2FFA88118181238A7D2D133E6409E
:1037DA000730E70B7582002220E70675820122C2B4
:1037EA00D1123889E97003F5822220D101B3E4337A
:1037FA00F58222AA83AB828BF090054EE0A4F8A949
:10380A00F08AF0E0A429F98BF0A3E0A429F58388D3
:10381A00822222A882A983AAF0FB88F0900550E0B0
:10382A00A4FCADF089F0E0A42DFDE435F0FE88F0AB
:10383A00A3E0A42DFDE5F03EFEE433FF89F0E0A409
:10384A002EFEE5F03FFF88F0A3E0A42EFEE5F03F50
:10385A00FF8AF0900550E0A42EFEE5F03FFF8BF0C2
:10386A00E0A42FFF8AF0A3E0A42FFF89F0A3E0A42D
:0F387A002FFF88F0A3E0A42F8EF08D838C822285
:10005B007800E84400600A790075A000E4F309D841
:10006B00FC7854E84405600C7906900000E4F0A39A
:04007B00D8FCD9FADA
:103889007901AA82E68F82B5821318E6B5F00E187F
:10389900E6B5830918E68A82B58202790022B480E6
:1038A9000FE5F0700AE5837006E58270027F00EF8C
:1038B900B6801518B6001018B6000B18B600060821
:1038C900080876002208080822B98003EA13B340E1
:1038D90010EA2401FAE43BFBE43CFC50047C80053B
:1038E90082BC000EBB000BBA0008E4F5F0F583F5C5
:1038F9008222A2D1E582138CF092F78B838A8222ED
:10390900E4F583F58275F080F4A2D11322E4F583FE
:08391900F58275F0C0747F22F5
:0D00260075813412149AE58260030214956E
:00000001FF
