:03000000020003F8
:07005C00900536E4F0A3F06B
:0300630002006632
:050066001215F780FEF9
:0E006B00E582900400F07AFF7BFF900400E035
:07007900FC8A828B83F02258
:07008000438E0C90000022EA
:0E0087009009F8E0FABAFF089009F87480F0CA
:020095008007E2
:070097009009F874012AF042
:0A009E009009F8E0FAF58202006B09
:0E00A8009009F7E0FABA7F079009F7E4F080BC
:0100B6000742
:0700B7009009F774012AF023
:0A00BE009009F7E0FAF58202006BEA
:0300C8001200879C
:0500CB0010980280FB0B
:0400D000859982226A
:0900D400E582900520F01200877E
:0C00DD003099FD900520E0F599C29922B1
:0E00E900438920439850438840758DFDD2997D
:0100F70022E6
:0E00F800AAF0AB83E582900523F0A3EBF0A302
:0E010600EAF0120087900523E0FAA3E0FBA3C5
:07011400E0FC0ABA00010B38
:0E011B00900521E0FDA3E0FE8D828E83C002E0
:0E012900C003C004122E2BAD82AE83D004D0D2
:0D01370003D0027F008A828B838CF0ED12D2
:0A0144002F67A3EE122F67A3EF123E
:0E014E002F67BD000ABE0007BF0004758203C4
:01015C002280
:04015D007582022283
:0E016100AAF0AB83E582900527F0A3EBF0A394
:0E016F00EAF0900527E0FAA3E0FBA3E0FC8A8B
:0D017D00828B838CF01202BDAA82C0021298
:0A018A000087D002EA7003F582221C
:0E019400900527E0FAA3E0FBA3E0FC740C2A20
:0D01A200FDE43BFE8C078D828E838FF012F2
:0D01AF002FA0F8A3122FA0F908B800010935
:0D01BC008D828E838FF0E8122F67A3E91269
:0701C9002F670ABA00010BC9
:0E01D0008A828B838CF0122FA0FDA3122FA029
:0E01DE00FEA3122FA0FF900526E0F88D828E62
:0B01EC00838FF0122F670DBD00010E85
:0D01F7008A828B838CF0ED122F67A3EE122D
:0B0204002F67A3EF122F677582022204
:0E020F00AAF0AB83E58290052DF0A3EBF0A3DF
:0E021D00EAF090052DE0FAA3E0FBA3E0FC8AD6
:0D022B00828B838CF01202BDAA82C00212E9
:0E0238000087D002EA701990052AE0FAA3E0D0
:0E024600FBA3E0FC8A828B838CF0E4122F670E
:04025400758201228C
:0902580090052AE0F508A3E0F589
:0602610009A3E0F50A907C
:0E026700052DE0FDA3E0FEA3E0FF0DBD0001AC
:010275000E7A
:0E0276008D828E838FF0122FA0F8A3122FA07E
:0D028400F9A3122FA0FA888289838AF01254
:070291002FA0FB8508828508
:060298000983850AF01243
:07029E002F6708B8000109F9
:0D02A5008D828E838FF0E8122F67A3E9127F
:0B02B2002F67A3EA122F67758202225B
:0E02BD00AAF0AB83E582900530F0A3EBF0A32E
:0E02CB00EAF0120087900530E0FAA3E0FBA3F2
:0E02D900E0FC74012AFDE43BFE8C078D828E52
:0E02E700838FF0122FA0FDA3122FA0FEA312F2
:0E02F5002FA0FF74072AFAE43BFB8A828B835A
:0D0303008CF0122FA0FAA3122FA0FBA31262
:080310002FA0FC0ABA00010B4A
:0E031800EDB5020CEEB50308EFB504047582D6
:020326000022B3
:0403280075820222B6
:0E032C00AAF0AB83E582900533F0A3EBF0A3BB
:0E033A00EAF0120087900533E0FAA3E0FBA37F
:07034800E0FC0ABA00010B02
:0E034F008A828B838CF0122FA0FDA3122FA0A8
:0E035D00FEA3122FA0FF8D828E838FF0C002B0
:0E036B00C003C004122B02D004D003D0028ABB
:0E037900828B838CF0E4122F67A3E4122F67AF
:09038700A3E4122F677582022223
:0D039000900538740AF0900539740DF09056
:0C039D00053A7445F090053B746EF0903A
:0C03A900053C7474F090053D7465F09004
:0C03B500053E7472F090053F7420F0903B
:0C03C10005407474F09005417468F090E1
:0C03CD0005427465F09005437420F09028
:0C03D90005447473F09005457469F090C1
:0C03E5000546747AF09005477465F090AE
:0C03F10005487420F09005497466F090F7
:0C03FD00054A746FF090054B7472F0908C
:0C040900054C7420F090054D7462F090DA
:0C041500054E7475F090054F7466F09071
:0C04210005507466F09005517465F09071
:0C042D0005527472F09005537420F0909A
:0C04390005547430F09005557420F090CC
:0C04450005567461F0900557746EF0903D
:0C04510005587464F09005597420F09078
:0C045D00055A7462F090055B7475F09015
:0C046900055C7466F090055D7466F09010
:0C047500055E7465F090055F7472F090F5
:0C04810005607420F09005617431F0906B
:0B048D000562E4F09005637420F0901D
:0C04980005647462F09005657465F090D6
:0C04A40005667474F09005677477F090A2
:0C04B00005687465F09005697465F090B3
:0C04BC00056A746EF090056B7420F090DF
:0C04C800056C7433F090056D7432F090F8
:0C04D400056E7420F090056F7474F090B9
:0C04E0000570746FF09005717420F090AE
:0C04EC0005727433F09005737432F090C8
:0C04F80005747430F09005757430F090BD
:0C05040005767420F09005777462F0908A
:0C05100005787479F09005797474F0900F
:0C051C00057A7465F090057B7473F09014
:0C052800057C7420F090057D7461F0905B
:0C053400057E746EF090057F7464F090FA
:0C05400005807420F09005817461F0903B
:0C054C0005827420F0900583746DF0901F
:0C05580005847475F0900585746CF090BB
:0C05640005867474F09005877469F090AF
:0C05700005887470F0900589746CF090A0
:0C057C00058A7465F090058B7420F090E7
:0C058800058C746FF090058D7466F09087
:0C059400058E7420F090058F7433F090F9
:0C05A00005907432F0900591743AF090D0
:0B05AC000592E4F0900593740AF090B3
:0C05B7000594740DF09005957469F090A7
:0C05C3000596746EF09005977476F09029
:0C05CF0005987461F0900599746CF09030
:0C05DB00059A7469F090059B7464F09020
:0C05E700059C7420F090059D746EF0904F
:0C05F300059E7475F090059F746DF090EB
:0C05FF0005A07462F09005A17465F090F6
:0C060B0005A27472F09005A3742EF0900C
:0C06170005A4740AF09005A5740DF09085
:0C06230005A67452F09005A77465F090D5
:0C062F0005A8742DF09005A97465F090EA
:0C063B0005AA746EF09005AB7474F0908A
:0C06470005AC7465F09005AD7472F09085
:0C06530005AE7420F09005AF746EF090BE
:0C065F0005B07475F09005B1746DF0905A
:0C066B0005B27462F09005B37465F09065
:0C06770005B47472F09005B5743AF09070
:0B06830005B6E4F09005B7740AF09093
:0C068E0005B8740DF09005B97445F090AB
:0C069A0005BA746EF09005BB7474F0900B
:0C06A60005BC7465F09005BD7472F09006
:0C06B20005BE7420F09005BF7474F09039
:0C06BE0005C07468F09005C17465F090F0
:0C06CA0005C27420F09005C37473F0901A
:0C06D60005C47469F09005C5747AF090BA
:0C06E20005C67465F09005C77420F09008
:0C06EE0005C87466F09005C9746FF090A8
:0C06FA0005CA7472F09005CB7420F090DB
:0C07060005CC7462F09005CD7475F09085
:0C07120005CE7466F09005CF7466F09080
:0C071E0005D07465F09005D17472F09065
:0B072A0005D27420F09005D3E4F0909D
:0C07350005D47420F09005D57462F0909B
:0C07410005D67465F09005D77474F09034
:0C074D0005D87477F09005D97465F09021
:0C07590005DA7465F09005DB746EF0901A
:0C07650005DC7420F09005DD7432F0908B
:0C07710005DE7430F09005DF7420F0907D
:0C077D0005E07474F09005E1746FF090DA
:0C07890005E27420F09005E37434F09059
:0C07950005E47430F09005E57430F0903D
:0C07A10005E67420F09005E77462F0900B
:0C07AD0005E87479F09005E97474F09090
:0C07B90005EA7465F09005EB7473F09095
:0B07C50005EC743AF09005EDE4F090B4
:0C07D00005EE740AF09005EF740DF09037
:0C07DC0005F0744DF09005F17465F0908C
:0C07E80005F2746DF09005F3746FF09052
:0C07F40005F47472F09005F57479F09033
:0C08000005F67420F09005F77441F090AC
:0C080C0005F8746CF09005F9746CF09025
:0C08180005FA746FF09005FB7463F0901B
:0C08240005FC7461F09005FD7474F09008
:0C08300005FE7469F09005FF746FF090F5
:0C083C000600746EF09006017420F0902D
:0C08480006027466F09006037461F090E4
:0C08540006047469F0900605746CF090C6
:0C08600006067465F09006077464F090C2
:0C086C0006087420F09006097466F090F5
:0C087800060A746FF090060B7472F0908A
:0C088400060C7420F090060D7462F090D9
:0C089000060E7475F090060F7466F09070
:0C089C0006107466F09006117465F09070
:0C08A80006127472F09006137420F09099
:0B08B4000614E4F0900615740AF090A2
:0C08BF000616740DF09006177448F090B7
:0C08CB0006187465F09006197461F09036
:0C08D700061A7470F090061B7420F0905C
:0C08E300061C7473F090061D7469F09000
:0C08EF00061E747AF090061F7465F090ED
:0C08FB0006207420F0900621746DF0902F
:0C09070006227461F09006237478F090D2
:0C09130006247420F09006257469F09012
:0C091F0006267473F09006277420F090F8
:0C092B0006287434F09006297430F09017
:0C093700062A7430F090062B7430F0900B
:0C094300062C7420F090062D7473F090C8
:0C094F00062E746FF090062F7420F090BC
:0C095B0006307462F09006317475F09064
:0C09670006327466F09006337466F0905F
:0C09730006347465F09006357472F09044
:0C097F0006367473F09006377420F09078
:0C098B0006387463F09006397461F09037
:0C099700063A746EF090063B7427F09056
:0C09A300063C7474F090063D7420F09047
:0C09AF00063E7462F090063F7465F09004
:0C09BB0006407420F09006417463F09038
:0C09C70006427472F09006437465F090D4
:0C09D30006447461F09006457474F090C6
:0C09DF0006467465F09006477464F090C2
:0C09EB000648742EF09006497420F0902D
:0C09F700064A7452F090064B7465F090B4
:0C0A0300064C742DF090064D7465F090C8
:0C0A0F00064E746EF090064F7474F09068
:0C0A1B0006507465F09006517472F09063
:0C0A270006527420F09006537461F090A9
:0C0A330006547420F09006557473F09087
:0C0A3F000656746DF09006577461F0903C
:0C0A4B000658746CF0900659746CF09022
:0C0A5700065A7465F090065B7472F09013
:0C0A6300065C7420F090065D7476F09044
:0C0A6F00065E7461F090065F746CF090FD
:0C0A7B0006607475F09006617465F090E0
:0C0A870006627420F0900663746CF0901E
:0C0A930006647465F09006657473F090C2
:0C0A9F0006667473F09006677420F090F7
:0C0AAB0006687474F09006697468F0909E
:0C0AB700066A7461F090066B746EF0909B
:0C0AC300066C7420F090066D7431F09009
:0C0ACF00066E7439F090066F7438F090D9
:0C0ADB0006707434F0900671743AF090CC
:0B0AE7000672E4F0900673740AF090B1
:0C0AF2000674740DF09006757444F090CA
:0C0AFE0006767465F0900677746CF0903A
:0C0B0A0006787465F09006797474F09021
:0C0B1600067A7465F090067B7464F09021
:0C0B2200067C7420F090067D7442F09078
:0C0B2E00067E7475F090067F7466F090EF
:0C0B3A0006807466F09006817465F090EF
:0C0B460006827472F09006837420F09018
:0B0B52000684E4F0900685740AF09021
:0C0B5D000686740DF09006877443F0903B
:0C0B690006887472F09006897465F090A4
:0C0B7500068A7461F090068B7474F09096
:0C0B8100068C7465F090068D7464F09092
:0C0B8D00068E7420F090068F7442F090E9
:0C0B990006907475F09006917466F09060
:0C0BA50006927466F09006937465F09060
:0C0BB10006947472F09006957420F09089
:0B0BBD000696E4F09006977420F0907C
:0C0BC80006987469F09006997473F09020
:0C0BD400069A7420F090069B7466F09066
:0C0BE000069C7475F090069D746CF090FB
:0C0BEC00069E746CF090069F742EF09032
:0B0BF80006A0E4F09006A17420F0902D
:0C0C030006A27477F09006A37469F090CC
:0C0C0F0006A47474F09006A57468F090C0
:0B0C1B0006A67420F09006A7E4F090FD
:0C0C260006A87420F09006A97462F090FB
:0C0C320006AA7479F09006AB7474F09080
:0C0C3E0006AC7465F09006AD7473F09085
:090C4A0006AEE4F09006AFF012D2
:020C5300008718
:0A0C55009006AFE0FA6003020D28DC
:080C5F009009F9E0FABA020065
:050C67004003020CD562
:0A0C6C00EA701C9005381213F7908F
:060C760005631213F712E2
:0E0C7C001519E5828583F0900536F0A3E5F0AA
:010C8A00F079
:0E0C8B00900536E0FAA3E0FBC3EA9420EB9458
:0E0C990000401674809A740C9B400E741F5A13
:0B0CA700FC7D00BC0005BD00028008C1
:080CB2009005931213F7809BDB
:0D0CBA00C374C09A74079B50099006151270
:050CC70013F7020C55BB
:090CCC009006AF7401F0020C5512
:070CD5009005B71213F79020
:0E0CDC0009F9E0FA7B007C007D008A828B83A0
:0A0CEA008CF0ED12143A9005D412BC
:0A0CF40013F7121519AA82AB8390C2
:0E0CFE000536EAF0A3EBF0C3EA9414EB940081
:0A0D0C00400874909A74019B50098E
:070D16009005931213F70290
:020D1D000C5573
:090D1F009006AF7401F0020C55BE
:0C0D28009009F9E0FA75F00EA42401FA1D
:0C0D3400740435F0FB7C00900536E0FDF7
:0E0D4000A3E0FE900521EDF0A3EEF08A828B79
:0A0D4E00838CF01200F885820D90EE
:0C0D580009F9E0FB75F00EA42401FC7406
:0C0D64000435F0FD74042CFAE43DFF8C13
:0E0D7000828D83A3E0F8A3E0F9A3E0FE8A825F
:0E0D7E008F83E8F0A3E9F0A3EEF074072CF5E4
:060D8C000BE43DF50C90A4
:0E0D92000536E0FAA3E0FFEA28F8EF39F9850C
:0A0DA0000B82850C83E8F0A3E9F054
:0E0DAA00A3EEF0740C2CF582E43DF583E4F02A
:0E0DB800A3F0740A2CF582E43DF583EAF0A363
:0E0DC600EFF08C828D83EBF09009FAE0FAC317
:080DD4009B50059009FAEBF0B9
:090DDC00E50DB403169005EE12BA
:0E0DE50013F79009F9E0FA74302AFAF5821239
:040DF30000D480495F
:070DF7009006851213F7902E
:0E0DFE0009F9E0FA7B007C007D008A828B837D
:0A0E0C008CF0ED12143A9006A112CA
:0E0E160013F7900536E0FAA3E0FB7C007D00A8
:0E0E24008A828B838CF0ED12143A9006A8128D
:080E320013F79009F9E0FA90B2
:060E3A0009F974012AF021
:040E4000850D822278
:0E0E4400E5829006B0F09006B0E0FA75F00E70
:0A0E5200A4FAABF0EA2401FCEB3433
:0C0E5C0004FD900519ECF0A3EDF074010A
:080E68002CF50EE43DF50F85A9
:0A0E70000E82850F83E0F8A3E0F97D
:0E0E7A00A3E0FE90051BE8F0A3E9F0A3EEF064
:0E0E88008C828D83A3A3A3A3E0FCA3E0FDA3B3
:0A0E9600E0FE850E82850F83ECF06C
:060EA000A3EDF0A3EEF04B
:0A0EA600EA2401FCEB3404FD7E0099
:0E0EB000900526E4F08C828D838EF0C002C087
:0E0EBE0003120161AC82D003D002BC00DBEA5B
:0A0ECC002401FAEB3404FB740C2A35
:0E0ED600F582E43BF583E4F0A3F0900519E00B
:0E0EE400FAA3E0FB74012AFCE43BFD8A828B3A
:0E0EF20083A3A3A3A3E0FAA3E0FBA3E0FE8C7E
:0C0F0000828D83EAF0A3EBF0A3EEF02258
:0E0F0C00AA83E5829006B1F0A3EAF0120087F6
:0E0F1A009006B1E0FAA3E0FB30E703020FB14E
:0E0F2800C3740F9A74808BF063F08095F050C4
:040F360003020FB1F2
:070F3A00EA2A2A900F41731F
:070F4100020F75020F71029F
:060F48000F79020F7D028B
:060F4E000F81020F850275
:060F54000F89020F8D025F
:060F5A000F91020F950249
:060F60000F99020F9D0233
:060F66000FA1020FA5021D
:050F6C000FA9020FAD0A
:040F71007582312232
:040F7500758230222F
:040F79007582322229
:040F7D007582332224
:040F8100758234221F
:040F8500758235221A
:040F89007582362215
:040F8D007582372210
:040F9100758238220B
:040F95007582392206
:040F990075824122FA
:040F9D0075824222F5
:040FA10075824322F0
:040FA50075824422EB
:040FA90075824522E6
:040FAD0075824622E1
:040FB10075823022F3
:0E0FB500AA82AB83ACF0FD9006B3EAF0A3EB8A
:0C0FC300F0A3ECF0A3EDF01200877A0020
:090FCF00EA24B7FEE43406FF90A9
:080FD80006B3E0F510A3E0F5FB
:080FE00011A3E0F512A3E0F5F6
:0A0FE80013740F5510F97B007C0014
:0D0FF2007D0089828B83C002C006C00712FB
:0E0FFF000F0CAB82D007D006D0028E828F83FB
:0A100D00EBF0AB10E511C4CBC454A6
:0C1017000F6BCB540FCB6BCBFCE512C46D
:0A10230054F04CFCAD12E513C4CDEF
:0E102D00C4540F6DCD540FCD6DCDFE9006B3A3
:0D103B00EBF0A3ECF0A3EDF0A3EEF00A90B3
:0E10480006B3E0FBA3E0FCA3E0FDA3E0FEEB9B
:081056004C4D4E6003020FCF68
:0B105E00EA149006C1F09006C1E0FA11
:0B106900EA20E718EA24B7F582E4341F
:0C10740006F583E0FBF582C0021200D4F8
:05108000D0021A80E41B
:011085002248
:0D108600E5829006C2F09006C3740AF09057
:0C10930006C4740DF09006C57444F09083
:0C109F0006C67465F09006C7746CF090F3
:0C10AB0006C87465F09006C97474F090DB
:0C10B70006CA7465F09006CB7464F090DB
:0C10C30006CC7420F09006CD7442F09032
:0C10CF0006CE7475F09006CF7466F090A9
:0C10DB0006D07466F09006D17465F090A9
:0C10E70006D27472F09006D37420F090D2
:0810F30006D4E4F0120087901E
:0C10FB0006C2E0FA75F00EA42401FB749C
:0C1107000435F0FC7D008B828C838DF0A1
:0D111300C00212032CAB82D002BB0222905E
:0E11200006C3C002C0031213F7D003D0027C36
:0E112E00007D007E008A828C838DF0EEC0036F
:05113C0012143AD0037B
:031141008B82227C
:0C114400E5829006D5F09006D6E4F0900D
:0D11500006D5E0FA75F00EA4FAABF0EA2423
:07115D0001FCEB3404FD90DE
:0C1164000519ECF0A3EDF074012CF5145B
:08117000E43DF51585148285AC
:0B1178001583E0F8A3E0F9A3E0FE906F
:0E118300051BE8F0A3E9F0A3EEF08C828D834B
:0D119100A3A3A3A3E0FCA3E0FDA3E0FE8563
:0A119E001482851583ECF0A3EDF038
:0E11A800A3EEF0C002C003120087D003D002F5
:0E11B60075820AC002C0031200D4D003D0021A
:0E11C40075820DC002C0031200D4D003D00209
:0A11D200EA2401FCEB3404FD8C82DA
:0E11DC008D83A3E0FCA3E0FDA3E07E007F0076
:0E11EA008C828D838EF0EFC002C003120FB511
:0E11F800D003D00275823AC002C0031200D4A8
:06120600D003D0027C10B1
:0E120C00758220C002C003C0041200D4D004BA
:0A121A00D003D002EA2401FDEB34FA
:0812240004FE7F0090052A740E
:0A122C00D6F0A37406F0A37400F0DE
:0D1236008D828E838FF0C002C003C00412B1
:0E124300020FAD82D004D003D0029006D6E098
:0E125100FE7F00780079008E828F8388F0E99E
:0E125F00C002C003C004C005120FB5D005D0F8
:0C126D0004D003D002DC98BD0102800315
:031279000211B6A9
:0D127C00900519E0FAA3E0FB0ABA00010B8F
:0E12890090051BE0FCA3E0FEA3E0FF8A828B31
:0C12970083ECF0A3EEF0A3EFF08D8222B8
:0C12A300E5829006D7F09006D8E4F090A9
:0D12AF0006D7E0FA75F00EA4FAABF0EA24C1
:0712BC0001FCEB3404FD907E
:0C12C3000519ECF0A3EDF074012CF516F9
:0812CF00E43DF5178516828548
:0B12D7001783E0F8A3E0F9A3E0FE900D
:0E12E200051BE8F0A3E9F0A3EEF08C828D83EB
:0D12F000A3A3A3A3E0FCA3E0FDA3E0FE8503
:0A12FD001682851783ECF0A3EDF0D4
:0E130700A3EEF0C002C003120087D003D00294
:0E13150075820AC002C0031200D4D003D002B9
:0E13230075820DC002C0031200D4D003D002A8
:0A133100EA2401FCEB3404FD8C8279
:0E133B008D83A3E0FCA3E0FDA3E07E007F0015
:0E1349008C828D838EF0EFC002C00312143A26
:0E135700D003D00275823AC002C0031200D447
:06136500D003D0027C4021
:0E136B00758220C002C003C0041200D4D0045A
:0A137900D003D002EA2401FDEB349A
:0813830004FE7F0090052A74AE
:0A138B00D8F0A37406F0A37400F07C
:0D1395008D828E838FF0C002C003C0041251
:0E13A200020FAD82D004D003D0029006D8E036
:0E13B000FEF582C002C003C004C0051200D4C6
:0E13BE00D005D004D003D002DCA3BD01028014
:0113CC00031D
:0313CD00021315F3
:0D13D000900519E0FAA3E0FB0ABA00010B3A
:0E13DD0090051BE0FCA3E0FEA3E0FF8A828BDC
:0C13EB0083ECF0A3EEF0A3EFF08D822263
:0E13F700AA83E5829006D9F0A3EAF0120087DF
:081405009006D9E0FAA3E0FB18
:0E140D008A828B83E0FC601C8C82C002C003CC
:0C141B001200D4D003D0020ABA00010B6A
:0A1427009006D9EAF0A3EBF080DC98
:091431009006D9EAF0A3EBF022C9
:0E143A00AA82AB83ACF0FD9006DBEAF0A3EBD8
:0C144800F0A3ECF0A3EDF01200877A0096
:09145400EA24DFFEE43406FF90F7
:08145D0006DBE0F518A3E0F541
:0814650019A3E0F51AA3E0F55C
:0C146D001B9009D1740AF0E4A3F0A3F076
:09147900A3F08518828519838512
:0A1482001AF0E51BC002C006C00707
:0E148C00122B55A982AB83ACF0FDD007D00621
:0E149A00D002743029F98E828F83F09009DA27
:0C14A800740AF0E4A3F0A3F0A3F0851890
:0814B40082851983851AF0E519
:0C14BC001BC002122C9EAB82AC83ADF072
:0E14C800FED0029006DBEBF0A3ECF0A3EDF0FB
:0E14D600A3EEF00A9006DBE0FBA3E0FCA3E02F
:0D14E400FDA3E0FEEB4C4D4E6003021454DE
:0B14F100EA149006E9F09006E9E0FA2A
:0B14FC00EA20E718EA24DFF582E43460
:0C15070006F583E0FBF582C0021200D460
:05151300D0021A80E483
:0115180022B0
:0A1519009006EAE4F09006F5F09069
:0815230006F6F0A3F0120087A8
:0A152B009006EAE0FABA0D02805AB9
:0D1535001200C8AA829006EAEAF0BA30005F
:0E154200402AEA24C640258A82C0021200D444
:0C155000D0029006F5E0FB24EBF582E4ED
:0C155C003406F583EA24D0FCF09006F57C
:0615680074012BF080BDB0
:0D156E00BA08BA7582081200D475822012E6
:09157B0000D47582081200D4901E
:0B15840006F5E0FA149006F5F0809CDC
:07158F009006F5E0FA7B0075
:0E159600C3EB9A50509006F6E0FCA3E0FD90E7
:0E15A40009F5740AF0E4A3F08C828D83C00276
:0E15B200C003122F80E5828583F0D003D002A3
:0C15C0009006F6F0A3E5F0F0EB24EBF54C
:0B15CC0082E43406F583E0FC7D009013
:0E15D70006F6E0FEA3E0FF9006F6EC2EF0ED27
:0615E5003FA3F00B80ABF8
:0C15EB009006F6E0FAA3E08A82F5832265
:0E15F7009006F8E4F09006F9F0A3F0A3F0A33C
:0E160500F09006FD740AF09006FE740DF09051
:0C16130006FF744DF0900700746FF0901B
:0C161F000701746EF09007027469F090EF
:0C162B0007037473F09007047468F090DB
:0C16370007057420F0900706744EF09038
:0C16430007077465F0900708746EF090C3
:0C164F0007097465F090070A7420F09001
:0C165B00070B7445F090070C7453F090DE
:0C166700070D7444F090070E7420F09002
:0C167300070F7453F09007107470F09093
:0C167F0007117472F09007127469F0906B
:0C168B000713746EF09007147467F09061
:0C16970007157420F09007167432F090D4
:0C16A30007177430F09007187431F090B5
:0C16AF0007197438F090071A7420F090AE
:0C16BB00071B744CF090071C7461F09049
:0C16C700071D7462F090071E7420F09064
:0B16D300071F7433F0900720E4F09034
:0C16DE000721740AF0900722740DF090B0
:0C16EA0007237445F0900724746EF09004
:0C16F60007257474F09007267465F090CE
:0C17020007277472F09007287420F09004
:0C170E0007297474F090072A7468F090AA
:0C171A00072B7465F090072C7420F090F1
:0C172600072D7473F090072E7469F0908A
:0C173200072F747AF09007307465F09077
:0C173E0007317420F09007327466F090C0
:0C174A000733746FF09007347472F09055
:0C17560007357420F09007367462F090A4
:0C17620007377475F09007387466F0903B
:0C176E0007397466F090073A7465F0903B
:0C177A00073B7472F090073C7420F09064
:0C178600073D7430F090073E7420F09096
:0C179200073F7461F0900740746EF09007
:0C179E0007417464F09007427420F09042
:0C17AA0007437462F09007447475F090DF
:0C17B60007457466F09007467466F090DA
:0C17C20007477465F09007487472F090BF
:0C17CE0007497420F090074A7431F09035
:0B17DA00074BE4F090074C7420F090E7
:0C17E500074D7462F090074E7465F090A0
:0C17F100074F7474F09007507477F0906C
:0C17FD0007517465F09007527465F0907D
:0C1809000753746EF09007547420F090A8
:0C18150007557433F09007567432F090C1
:0C18210007577420F09007587474F09082
:0C182D000759746FF090075A7420F09077
:0C183900075B7433F090075C7432F09091
:0C184500075D7430F090075E7430F09086
:0C185100075F7420F09007607462F09054
:0C185D0007617479F09007627474F090D9
:0C18690007637465F09007647473F090DE
:0C18750007657420F09007667461F09025
:0C1881000767746EF09007687464F090C4
:0C188D0007697420F090076A7461F09005
:0C189900076B7420F090076C746DF090E9
:0C18A500076D7475F090076E746CF09085
:0C18B100076F7474F09007707469F09079
:0C18BD0007717470F0900772746CF0906A
:0C18C90007737465F09007747420F090B1
:0C18D5000775746FF09007767466F09051
:0C18E10007777420F09007787433F090C3
:0C18ED0007797432F090077A743AF0909A
:0B18F900077BE4F090077C7420F09067
:0C190400077D7462F090077E7465F0901F
:0C191000077F7474F09007807477F090EB
:0C191C0007817465F09007827465F090FC
:0C1928000783746EF09007847420F09028
:0C19340007857432F09007867430F09044
:0C19400007877420F09007887474F09002
:0C194C000789746FF090078A7420F090F7
:0C195800078B7434F090078C7430F09012
:0C196400078D7430F090078E7420F09016
:0C197000078F7462F09007907479F0907B
:0C197C0007917474F09007927465F0906D
:0C19880007937473F0900794743AF09089
:0B1994000795E4F0900796740AF090AD
:0C199F000797740DF09007987469F090A1
:0C19AB000799746EF090079A7476F09023
:0C19B700079B7461F090079C746CF0902A
:0C19C300079D7469F090079E7464F0901A
:0C19CF00079F7420F09007A0746EF09049
:0C19DB0007A17475F09007A2746DF090E5
:0C19E70007A37462F09007A47465F090F0
:0C19F30007A57472F09007A6742EF09007
:0C19FF0007A7740AF09007A8740DF09080
:0C1A0B0007A97452F09007AA7465F090CF
:0C1A170007AB742DF09007AC7465F090E4
:0C1A230007AD746EF09007AE7474F09084
:0C1A2F0007AF7465F09007B07472F0907F
:0C1A3B0007B17420F09007B2746EF090B8
:0C1A470007B37475F09007B4746DF09054
:0C1A530007B57462F09007B67465F0905F
:0C1A5F0007B77472F09007B8743AF0906A
:0B1A6B0007B9E4F09007BA740AF0908D
:0C1A760007BB740DF09007BC7427F090C3
:0C1A820007BD742BF09007BE7427F09095
:0C1A8E0007BF7420F09007C07441F09076
:0C1A9A0007C17464F09007C27464F090FF
:0C1AA60007C37420F09007C47442F09055
:0C1AB20007C57475F09007C67466F090CC
:0C1ABE0007C77466F09007C87465F090CC
:0C1ACA0007C97472F09007CA742CF090E9
:0C1AD60007CB7420F09007CC7427F09030
:0C1AE20007CD742DF09007CE7427F09013
:0C1AEE0007CF7420F09007D07444F090F3
:0C1AFA0007D17465F09007D2746CF09076
:0C1B060007D37465F09007D47474F0905D
:0C1B120007D57465F09007D67420F090A1
:0C1B1E0007D77442F09007D87475F0905F
:0C1B2A0007D97466F09007DA7466F0903A
:0C1B360007DB7465F09007DC7472F0901F
:0C1B420007DD742CF09007DE7420F0909A
:0C1B4E0007DF7427F09007E0743DF09072
:0C1B5A0007E17427F09007E27420F0907F
:0C1B660007E37444F09007E47475F090FD
:0C1B720007E5746DF09007E67470F090C9
:0C1B7E0007E77420F09007E87442F09034
:0C1B8A0007E97475F09007EA7466F090AB
:0C1B960007EB7466F09007EC7465F090AB
:0C1BA20007ED7472F09007EE7420F090D4
:0C1BAE0007EF7430F09007F0742CF090FA
:0C1BBA0007F17420F09007F27427F090FF
:0C1BC60007F3743FF09007F47427F090D0
:0C1BD20007F57420F09007F67442F090C4
:0C1BDE0007F77475F09007F87466F0903B
:0C1BEA0007F97466F09007FA7465F0903B
:0C1BF60007FB7472F09007FC7420F09064
:0C1C020007FD7451F09007FE7475F0901F
:0C1C0E0007FF7465F09008007472F090FD
:0C1C1A0008017479F0900802742CF0901E
:0C1C260008037420F09008047427F0906C
:0C1C320008057440F09008067427F0903C
:0C1C3E0008077420F09008087452F09021
:0C1C4A0008097465F090080A7473F090AB
:0C1C5600080B7465F090080C7474F0909A
:0C1C6200080D7420F090080E7443F09000
:0C1C6E00080F746FF09008107464F09080
:0B1C7A0008117465F0900812E4F0906F
:0C1C85000813740AF0900814740DF0901D
:0C1C91000815744DF09008167465F09072
:0C1C9D000817746DF0900818746FF09038
:0C1CA90008197472F090081A7479F09019
:0C1CB500081B7420F090081C7441F09093
:0C1CC100081D746CF090081E746CF0900C
:0C1CCD00081F746FF09008207463F09002
:0C1CD90008217461F09008227474F090EF
:0C1CE50008237469F0900824746FF090DC
:0C1CF1000825746EF09008267420F09016
:0C1CFD0008277466F09008287461F090CD
:0C1D090008297469F090082A746CF090AE
:0C1D1500082B7465F090082C7464F090AA
:0C1D2100082D7420F090082E7466F090DD
:0C1D2D00082F746FF09008307472F09072
:0C1D390008317420F09008327462F090C1
:0C1D450008337475F09008347466F09058
:0C1D510008357466F09008367465F09058
:0C1D5D0008377472F09008387420F09081
:0B1D69000839E4F090083A740AF0908A
:0C1D7400083B740DF090083C7457F09090
:0C1D8000083D7468F090083E7461F0901B
:0C1D8C00083F7474F09008407420F09040
:0C1D980008417469F09008427473F090E8
:0C1DA40008437420F09008447474F09020
:0C1DB00008457468F09008467465F090D7
:0C1DBC0008477420F09008487462F09012
:0C1DC80008497475F090084A7466F090A9
:0C1DD400084B7466F090084C7465F090A9
:0C1DE000084D7472F090084E7420F090D2
:0C1DEC00084F7469F09008507464F09087
:0C1DF80008517420F0900852746FF090B5
:0C1E040008537466F09008547420F090AD
:0C1E100008557474F09008567468F09047
:0C1E1C0008577465F09008587420F0908E
:0C1E280008597462F090085A7475F0902C
:0C1E3400085B7466F090085C7466F09027
:0C1E4000085D7465F090085E7472F0900C
:0C1E4C00085F7420F09008607479F0903A
:0C1E58000861746FF09008627475F090DF
:0C1E640008637420F09008647477F0901C
:0C1E700008657461F0900866746EF090D4
:0C1E7C0008677474F09008687420F090FF
:0C1E880008697474F090086A746FF090A0
:0C1E9400086B7420F090086C7464F090EF
:0C1EA000086D7465F090086E746CF09092
:0C1EAC00086F7465F09008707474F0907A
:0C1EB80008717465F0900872743FF0909F
:0C1EC40008737428F0900874744EF090BD
:0C1ED0000875746FF09008767474F09040
:0C1EDC0008777465F0900878743AF09074
:0C1EE80008797420F090087A7442F090A1
:0C1EF400087B7475F090087C7466F09018
:0C1F0000087D7466F090087E7465F09017
:0C1F0C00087F7472F09008807420F09040
:0C1F180008817430F09008827420F09072
:0C1F240008837463F09008847461F090EE
:0C1F30000885746EF09008867427F0900D
:0C1F3C0008877474F09008887420F090FE
:0C1F480008897462F090088A7465F090BB
:0C1F5400088B7420F090088C7464F090EE
:0C1F6000088D7465F090088E746CF09091
:0C1F6C00088F7465F09008907474F09079
:0C1F780008917465F09008927464F09079
:0C1F84000893742EF09008947429F090DB
:0B1F90000895E4F0900896740AF090A9
:0C1F9B000897740DF09008987443F090C3
:0C1FA70008997472F090089A7465F0902C
:0C1FB300089B7461F090089C7474F0901E
:0C1FBF00089D7465F090089E7464F0901A
:0C1FCB00089F7420F09008A07442F09071
:0C1FD70008A17475F09008A27466F090E8
:0C1FE30008A37466F09008A47465F090E8
:0C1FEF0008A57472F09008A67420F09011
:0B1FFB0008A7E4F09008A8740AF0901A
:0C20060008A9740DF09008AA7442F09034
:0C20120008AB7475F09008AC7466F09098
:0C201E0008AD7466F09008AE7465F09098
:0C202A0008AF7472F09008B07420F090C1
:0B20360008B1E4F09008B27420F090B4
:0C20410008B37469F09008B47473F09058
:0C204D0008B57420F09008B67466F0909E
:0C20590008B77475F09008B8746CF09033
:0C20650008B9746CF09008BA742EF0906A
:0B20710008BBE4F09008BC7420F09065
:0C207C0008BD7477F09008BE7469F09005
:0C20880008BF7474F09008C07468F090F9
:0B20940008C17420F09008C2E4F09036
:0C209F0008C37420F09008C47462F09034
:0C20AB0008C57479F09008C67474F090B9
:0C20B70008C77465F09008C87473F090BE
:0B20C30008C9E4F09008CA740AF0900D
:0C20CE0008CB740DF09008CC7442F09028
:0C20DA0008CD7475F09008CE7466F0908C
:0C20E60008CF7466F09008D07465F0908C
:0C20F20008D17472F09008D27420F090B5
:0C20FE0008D3746EF09008D47475F09054
:0C210A0008D5746DF09008D67462F09057
:0C21160008D77465F09008D87472F0903F
:0C21220008D97420F09008DA743DF090A9
:0B212E0008DB7420F09008DCE4F09067
:0C21390008DD740AF09008DE740DF090D0
:0C21450008DF7442F09008E07475F09020
:0C21510008E17466F09008E27466F090FB
:0C215D0008E37465F09008E47472F090E0
:0C21690008E57420F09008E67453F09034
:0C21750008E77474F09008E87461F090C2
:0C21810008E97472F09008EA7474F090A1
:0C218D0008EB7420F09008EC7441F09016
:0C21990008ED7464F09008EE7464F0909F
:0C21A50008EF7472F09008F07465F09080
:0C21B10008F17473F09008F27473F09061
:0C21BD0008F37420F09008F4743DF090DA
:0B21C90008F57420F09008F6E4F09098
:0C21D40008F7740AF09008F8740DF09001
:0C21E00008F97442F09008FA7475F09051
:0C21EC0008FB7466F09008FC7466F0902C
:0C21F80008FD7465F09008FE7472F09011
:0C22040008FF7420F09009007445F09071
:0C2210000901746EF09009027464F090F3
:0C221C0009037420F09009047441F09054
:0C22280009057464F09009067464F090DD
:0C22340009077472F09009087465F090BE
:0C22400009097473F090090A7473F0909F
:0C224C00090B7420F090090C743DF09018
:0B225800090D7420F090090EE4F090D6
:0C226300090F740AF0900910740DF0903F
:0C226F0009117441F0900912746CF09099
:0C227B000913746CF0900914746FF0905B
:0C22870009157463F09009167461F09062
:0C22930009177474F09009187465F0903D
:0C229F0009197464F090091A7420F09082
:0C22AB00091B7453F090091C7470F09033
:0C22B700091D7461F090091E7463F09022
:0C22C300091F7465F0900920743DF09034
:0B22CF0009217420F0900922E4F09037
:0C22DA000923740AF0900924740DF090A0
:0C22E60009257455F09009267473F090DF
:0C22F20009277465F09009287464F090CE
:0C22FE0009297420F090092A7453F09014
:0C230A00092B7470F090092C7461F090A5
:0C231600092D7463F090092E7465F0909E
:0C232200092F7420F0900930743DF090F9
:0B232E0009317420F0900932E4F090B7
:0C2339000933740AF0900934740DF09020
:0C23450009357455F0900936746EF09064
:0C23510009377475F09009387473F0902F
:0C235D0009397465F090093A7464F0903E
:0C236900093B7420F090093C7453F09084
:0C237500093D7470F090093E7461F09016
:0C238100093F7463F09009407465F0900F
:0C238D0009417420F0900942743DF0906A
:0B23990009437420F0900944E4F09028
:0C23A4000945740AF0900946740DF09091
:0C23B0000947744EF09009487475F090D5
:0C23BC000949746DF090094A7462F090B9
:0C23C800094B7465F090094C7472F090A1
:0C23D400094D7420F090094E746FF090D9
:0C23E000094F7466F09009507420F090D2
:0C23EC0009517443F09009527468F0909D
:0C23F80009537461F09009547472F09065
:0C24040009557461F09009567463F09063
:0C24100009577474F09009587465F0903E
:0C241C0009597472F090095A7473F09022
:0C242800095B7420F090095C7465F09072
:0C243400095D746EF090095E7474F09005
:0C244000095F7465F09009607472F09000
:0C244C0009617465F09009627464F090FE
:0C24580009637420F09009647461F09036
:0C24640009657466F09009667474F090CD
:0C24700009677465F09009687472F090C0
:0C247C0009697420F090096A7474F090F3
:0C248800096B7468F090096C7465F090AA
:0C249400096D7420F090096E746CF090DB
:0C24A000096F7461F09009707473F09083
:0C24AC0009717474F09009727420F090B3
:0C24B80009737427F0900974743FF090D1
:0C24C40009757427F09009767420F090E0
:0C24D0000977743DF09009787420F090BA
:0B24DC000979E4F090097A740AF0908E
:0C24E700097B740DF090097C744DF0909E
:0C24F300097D7465F090097E746DF09016
:0C24FF00097F746FF09009807472F090F7
:0C250B0009817479F09009827420F0902E
:0C25170009837441F0900984746CF0900A
:0C2523000985746CF0900986746FF090CC
:0C252F0009877463F09009887461F090D3
:0C253B0009897474F090098A7469F090AA
:0C254700098B746FF090098C746EF0909A
:0C255300098D7420F090098E7446F09001
:0C255F00098F7461F09009907469F0908D
:0C256B000991746CF09009927465F09076
:0C25770009937464F0900994742EF090A5
:0C25830009957420F09009967454F090B3
:0C258F000997746FF0900998746FF09039
:0C259B0009997420F090099A746CF0907B
:0C25A700099B7461F090099C7472F09024
:0C25B300099D7467F090099E7465F0901B
:0C25BF00099F7420F09009A07476F09041
:0C25CB0009A17461F09009A2746CF090FA
:0C25D70009A37475F09009A47465F090DD
:0C25E30009A57420F09009A67466F09021
:0C25EF0009A7746FF09009A87472F090B6
:0C25FB0009A97420F09009AA7462F09005
:0C26070009AB7475F09009AC7466F0909B
:0C26130009AD7466F09009AE7465F0909B
:0C261F0009AF7472F09009B0742EF090B6
:0C262B0009B17420F09009B27445F090E1
:0C26370009B3746EF09009B47474F09054
:0C26430009B57465F09009B67472F0904F
:0C264F0009B77420F09009B87473F09083
:0C265B0009B9746DF09009BA7461F09038
:0C26670009BB746CF09009BC746CF0901E
:0C26730009BD7465F09009BE7472F0900F
:0C267F0009BF7420F09009C07476F09040
:0C268B0009C17461F09009C2746CF090F9
:0C26970009C37475F09009C47465F090DC
:0B26A30009C57473F09009C6E4F090C4
:0826AE0009F7F09009F8F09023
:0926B60009F9F09009FAE4F09032
:0E26BF00051EE0FAA3E0FB9009E87480F0A38A
:0D26CD00740CF08A828B83122DAA1200E992
:0726DA009006FD1213F71238
:0E26E1000390AA82BA0210120390AA82BA02D3
:0926EF000E9006F87401F080065B
:0626F80090097A1213F7AD
:0526FE009006F8E0FA6F
:0C270300EA60FD9006F8E4F09007BA12BE
:02270F0013F7BE
:092711001200A81200C8AA82906F
:0E271A0006F9E0FBA3E0FCA3E0FDA3E0FE90C7
:0E27280006F974012BF0E43CA3F0E43DA3F0AD
:0A273600E43EA3F0BA2B0302292FA2
:06274000BA2D0302297707
:05274600BA3D02800E07
:05274B00BA3F028012FC
:06275000BA40030229DF7C
:03275600022A4113
:09275900758200121144022A7B72
:0C2762009009FAE0FB9009F974012BF0DB
:0B276E009009F9E0FB149009F9F090CD
:0C27790009F9E0FB75F00EA42401FB74CC
:0C2785000435F0FC900519EBF0A3ECF01B
:0E2791008B828C83A3E0FBA3E0FCA3E0FDBBE6
:0B279F000009BC0006BD00030228EE8C
:0727AA009008CA1213F7901A
:0E27B10009F9E0FB7C007D007E008B828C83AA
:0A27BF008DF0EE12143A9008DD12BE
:0C27C90013F79009F9E0FB75F00EA42452
:0A27D50001FB740435F0FC8B828CCC
:0E27DF0083A3A3A3A3E0FBA3E0FCA3E07D0083
:0D27ED007E008B828C838DF0EE12143A90EA
:0627FA0008F71213F7902E
:0C28000009F9E0FB75F00EA42401FB7444
:0C280C000435F0FC74072BF582E43CF569
:0E28180083E0FBA3E0FCA3E07D007E008B824A
:0C2826008C838DF0EE12143A90090F1212
:0C28320013F79009F9E0FB75F00EA424E8
:0A283E0001FB740435F0FC740A2B52
:0E284800F582E43CF583E0FBA3E0FC7D007E1E
:0E285600008B828C838DF0EE12143A9008C332
:072864001213F79009231283
:0C286B0013F79009F9E0FB75F00EA424AF
:0A28770001FB740435F0FC740C2B17
:0E288100F582E43CF583E0FBA3E0FC3395E038
:0E288F00FDFE8B828C838DF012143A9008C3EC
:07289D001213F7900933123A
:0C28A40013F79009F9E0FB75F00EA42476
:0A28B00001FB740435F0FC740A2BE0
:0E28BA00F582E43CF583E0FDA3E0FE740C2BF8
:0E28C800F582E43CF583E0FBA3E0FCEDC39B4E
:0E28D600FDEE9CFE7B007C008D828E838BF0DD
:0828E400EC12143A9008C31233
:0228EC0013F7E0
:0A28EE009009F9E0FB600302276E79
:0D28F8007582001212A3758200120E44902A
:0629050009451213F790D2
:0E290B0006F9E0FBA3E0FCA3E0FDA3E0FE8BD9
:0E291900828C838DF012143A9006F9E4F0A33C
:08292700F0A3F0A3F0022A7BEB
:0C292F009009F9E0FB75F00EA42401FBF8
:0C293B00740435F0FC900519EBF0A3ECDF
:0E294700F08B828C83A3E0FBA3E0FCA3E0FDF9
:0B295500BB0008BC0005BD0002800CA8
:0C2960009009FAE0FB9009F974012BF0DB
:0B296C00120390AB82BB02BB022A7B6F
:0629770090083A1213F76C
:0E297D00121519AB82AC839009F9EBF0EB75E3
:0A298B00F00EA42401FC740435F0E2
:0E299500FD900519ECF0A3EDF08C828D83A36C
:0E29A300E0FCA3E0FDA3E0FEBC0008BD0005C3
:0529B100BE00028012CF
:0529B600BB0002800DD2
:0D29BB008B82121086E5829009C7F0800C17
:0729C8009007961213F7902F
:0529CF0009C77404F0CB
:0B29D4009009C7E0FBBB02A1022A7BB8
:0C29DF009009FAE0FB9009F974012BF05C
:0B29EB009009F9E0FB149009F9F0904E
:0C29F60009F9E0FB75F00EA42401FC744C
:0C2A02000435F0FD900519ECF0A3EDF098
:0E2A0E008C828D83A3E0FCA3E0FDA3E0FEBC60
:0A2A1C000008BD0005BE00028005A1
:052A26008B82121086F6
:092A2B009009F9E0FB600280B79C
:0D2A34009009FAE4F09006F87401F0803A81
:032A4100BA410097
:0E2A44004035EA24A540308A82C0021200D438
:0E2A5200D002900526EAF090040175F0001203
:0A2A60000161E58270159008A812CC
:0C2A6A0013F7900000E4F5F012143A900D
:052A760008B21213F785
:0A2A7B009006F8E0FA70030227113C
:082A85009006F8E4F00226DAE5
:012FBC000014
:012FBD000013
:012FBE000012
:012FBF000011
:0E2A8D00AA83E5829009CAF0A3EAF09009CA74
:0C2A9B00E0FAA3E0FB4A70049000002267
:0E2AA700EA24FCFAEB34FFFB9009E6E0FCA306
:0E2AB500E0FD9009CCECF0A3EDF09009C8E430
:032AC300F0A3F08D
:0E2AC6009009CCE0FCA3E0FD4C6025EAB504CD
:072AD40006EBB50502801BB3
:0E2ADB009009C8ECF0A3EDF08C828D83E0FC36
:0D2AE900A3E0FD9009CCECF0A3EDF080D04F
:0C2AF6009009CCE0FAA3E08A82F583226C
:0E2B0200AAF0AB83E5829009CEF0A3EBF0A31E
:0E2B1000EAF09009CEE0FAA3E0FBA3E0FC8A15
:0E2B1E00828B83122A8DAA82AB83EA4B602839
:0E2B2C009009C8E0FCA3E0FD4C700B8A828B80
:082B3A0083A3A3E4F0A3F02241
:0E2B42008A828B83E0FAA3E0FB8C828D83EA0B
:042B5000F0A3EBF013
:012B5400225E
:0E2B5500AA82AB83ACF0FD9009D5EAF0A3EBA9
:0D2B6300F0A3ECF0A3EDF09009D9E4F090A0
:0E2B700009D5E0FAA3E0FBA3E0FCA3E0FD7EA4
:012B7E000056
:092B7F009009D1E0F51CA3E0F57A
:082B88001DA3E0F51EA3E0F51A
:0A2B90001FE51F235401FF7078C0F9
:0A2B9A0006E51C25E0FFE51D33F8F9
:092BA400E51E33F9E51F33FE9034
:0E2BAD0009D1EFF0A3E8F0A3E9F0A3EEF09059
:082BBB0009D1E0F51CA3E0F5CF
:082BC3001DA3E0F51EA3E0F5DF
:072BCB001FC3EA951CEB9506
:062BD2001DEC951EED95BF
:0A2BD8001FE433D0066029E51FC397
:072BE20013F51FE51E13F5BA
:052BE9001EE51D13F5BF
:052BEE001DE51C13F5BC
:052BF3001C9009D1E572
:082BF8001CF0A3E51DF0A3E5AC
:082C00001EF0A3E51FF080099E
:092C08000E9009D9EEF0022B7FB9
:052C11009009D9E0FA72
:0E2C16009009D5E0FBA3E0FCA3E0FDA3E0FEE7
:092C24009009D1E0F51CA3E0F5D4
:082C2D001DA3E0F51EA3E0F574
:072C35001FC3EB951CEC9599
:062C3C001DED951EEE9552
:092C42001F40179009D5EBC39562
:092C4B001CF0EC951DA3F0ED95C1
:082C54001EA3F0EE951FA3F092
:0E2C5C009009D1E0FBA3E0FCA3E0FDA3E0FEA5
:0D2C6A00C313FEED13FDEC13FCEB13FB9008
:0E2C770009D1F0A3ECF0A3EDF0A3EEF08A0378
:0E2C85001AEB708D9009D5E0FAA3E0FBA3E0F6
:0B2C9300FCA3E0FD8A828B838CF02202
:0E2C9E00AA82AB83ACF0FD9009DEEAF0A3EB56
:0E2CAC00F0A3ECF0A3EDF09009E2E4F0A3F049
:0E2CBA00A3F0A3F09009DAE0FAA3E0FBA3E098
:072CC800FCA3E0FD751C20D8
:0E2CCF009009DEE0FFA3E0F8A3E0F9A3E0FE29
:0C2CDD00339200EF2FFFE833F8E933F9E1
:0E2CE900EE33FE9009DEEFF0A3E8F0A3E9F071
:0E2CF700A3EEF09009E2E0FEA3E0FFA3E0F8F8
:0E2D0500A3E0F9EE2EFEEF33FFE833F8E933DA
:0E2D1300F99009E2EEF0A3EFF0A3E8F0A3E9D7
:0C2D2100F030001E9009E2E0FFA3E0F893
:0E2D2D00A3E0F9A3E0FE9009E274014FF0A3C9
:082D3B00E8F0A3E9F0A3EEF0BB
:0E2D43009009E2E0FEA3E0FFA3E0F8A3E0F9B0
:0E2D5100C3EE9AEF9BE89CE99D40319009E2A9
:0E2D5F00EEC39AF0EF9BA3F0E89CA3F0E99D71
:0E2D6D00A3F09009DEE0FEA3E0FFA3E0F8A3D0
:0E2D7B00E0F99009DE74014EF0A3EFF0A3E83A
:042D8900F0A3E9F0DA
:052D8D00D51C028003CB
:032D9200022CCF41
:0E2D95009009DEE0FAA3E0FBA3E0FCA3E0FD62
:072DA3008A828B838CF02271
:06003200E478FFF6D8FDA2
:080010007904E94400601B7A49
:0500180001902FBC78EF
:03001D00F775A0D4
:0A00200009E493F2A308B8000205FA
:08002A00A0D9F4DAF275A0FF81
:0E2DAA00AA83E5829009EAF0A3EAF09009EA14
:0E2DB800E0FAA3E0FB9009ECEAF0A3EBF0EAEE
:0E2DC6004B70209009EC74012AF0E43BA3F05E
:0D2DD4009009E8E0FAA3E0FB1ABAFF011B2A
:082DE1009009E8EAF0A3EBF011
:0E2DE9009009ECE0FAA3E0FB9009E6EAF0A303
:0E2DF700EBF09009E8E0FCA3E0FDEC2AFCED17
:0E2E05003BFDEC24FEFCED34FFFD8A828B8346
:0E2E1300ECF0A3EDF08C828D83E4F0A3F08A46
:0A2E2100828B83A3A3E4F0A3F02248
:0E2E2B00AA83E5829009EEF0A3EAF09009EE8A
:0E2E3900E0FAA3E0FBC374FB9A74FF9B500405
:042E470090000022D5
:0E2E4B009009EE74042AF0E43BA3F09009E62F
:0E2E5900E0FAA3E0FB9009F0EAF0A3EBF090A2
:082E670009EEE0F51CA3E0F503
:012E6F001D45
:0E2E70009009F0E0FCA3E0FD8C828D83E0FE73
:0E2E7E00A3E0FF8E008F018C028D03E8C39A43
:0E2E8C00F8E99BF98C828D83A3A3E0FAA3E002
:0C2E9A00FBE8C39AF8E99BF9C3E8951C1B
:0C2EA600E9951D400D9009F274042CF019
:062EB200E43DA3F08023C3
:0E2EB8009009F0EEF0A3EFF09009F0E0FAA31D
:0E2EC600E0FB8A828B83E0FAA3E0FB4A709C5B
:072ED4009009F2E4F0A3F005
:0E2EDB009009F2E0FAA3E0FB4A7003022F5BBD
:0E2EE9009009F0E0FAA3E0FB74022AFCE43B3F
:0E2EF700FD8C828D83E0FEA3E0FF4E701390F1
:0E2F050009EEE0F8A3E0F98C828D83E8F0A3DA
:042F1300E9F080441D
:0E2F1700EE2AFEEF3BFF8A828B83E0FCA3E0F4
:0E2F2500FD8E828F83ECF0A3EDF08A828B8309
:0D2F3300EEF0A3EFF074022EFAE43FFB90E5
:0E2F400009EEE0FCA3E0FD8A828B83ECF0A397
:0D2F4E00EDF09009F274042EF0E43FA3F0C2
:0C2F5B009009F2E0FAA3E08A82F58322DC
:0E2F670020F71030F6118883A88220F507F6B7
:052F7500A88375830034
:012F7A002234
:032F7B00F280F7EA
:022F7E00F0223F
:0E2F8000AA83AB828BF09009F5E0A4F8A9F0CB
:0E2F8E008AF0E0A429F98BF0A3E0A429F583D2
:042F9C0088822222E3
:080038007800E84400600A7939
:030040000075A0A8
:0600430000E4F309D8FC03
:0800490078F7E84405600C792A
:0B00510006900400E4F0A3D8FCD9FAEC
:03000300758120E4
:0A000600120080E58260030200662C
:0E2FA00020F71430F6148883A88220F507E687
:062FAE00A88375830022D8
:032FB400E280F7C1
:032FB700E493227E
:022FBA00E02213
:00000001FF
