:05052500D292C29222F7
:03052A0012052592
:04052D002094FD22F7
:09053100C292D294D292C294222B
:09053A00D294D292C294C2922222
:09054300C294D292D294C2922219
:0A054C00E582900008F0C2927A00E8
:03055600BA0800E0
:0E0559005023900008E0FB30E704D2948002AB
:02056700C2943C
:0E056900C002120525D002900008E025E0FB3C
:07057700900008F00A80D893
:03057E00C2942202
:09058100900009E4F0D2947A0024
:03058A00BA0800AC
:0E058D005027D292900009E025E0FB90000973
:0E059B00F030940A900009E0FB4401F0800863
:0805A900900009E0FB54FEF094
:0505B100C2920A80D493
:0705B600900009E0F582222C
:0E05BD00AA83E58290000BF0A3EAF090000BF9
:0E05CB00E0FAA3E0FB90000DEAF0EBA2E7CA15
:0E05D90033CA33CA5401FB90000BEAF0A3EBC7
:0E05E700F090000BE0FAA3E0FB74A04A54AEC3
:0E05F500FAC00212053AD0028A8212054C1298
:0A060300052A90000DE0FAF58212BE
:06060D00054C12052A90C5
:0A061300000AE0FAF58212054C120D
:05061D00052A0205435F
:0E062200AA83E58290000EF0A3EAF090000E8D
:0E063000E0FAA3E0FB900010EAF0EBA2E7CAAC
:0E063E0033CA33CA5401FB90000EEAF0A3EB5E
:0E064C00F090000EE0FAA3E0FB74A04A54AE5A
:0D065A00FAC00212053AD0028A82C00212D4
:0C066700054CD002C00212052AD00290FF
:0E0673000010E0FBF582C00212054CD002C060
:0E0681000212052AD002430201C00212053AFD
:0B068F00D0028A8212054C12052A12CC
:0E069A000581AA82C002120531D002C00212F0
:0706A8000543D0028A822203
:0D06AF00900011740AF0900012740DF0908C
:0C06BC0000137449F09000147432F090A8
:0C06C80000157443F09000167420F090B0
:0C06D40000177445F09000187445F09079
:0C06E00000197450F090001A7452F09051
:0C06EC00001B744FF090001C744DF09047
:0C06F800001D7420F090001E7448F0906B
:0C070400001F7465F09000207478F090E5
:0C07100000217464F09000227475F090D9
:0C071C000023746DF09000247470F090C5
:080728000025E4F0900011121D
:080730001CFB7A007B007C0039
:03073800BC800082
:05073B00400302081854
:0E07400075820AC002C003C004121CD1D0048E
:0E074E00D003D00275820DC002C003C0041299
:0E075C001CD1D004D003D0028A058B067F008A
:0E076A0078009002307403F08D828E838FF041
:0E077800E8C002C003C004121B56D004D00318
:0E078600D00275823AC002C003C004121CD11A
:0A079400D004D003D0028A088B09BC
:02079E007F00DA
:0307A000BF100087
:0E07A3005068C004758220C002C003C004C0AC
:0E07B10007121CD1D007D004D003D0028F0055
:0A07BF007900E82508F8E93509F98A
:0D07C90088828983C002C003C004C00712EB
:0E07D6000622A882D007D004D003D0027900FA
:0E07E4007C007D009002307402F088828983D0
:0E07F2008CF0EDC002C003C004C007121B56FD
:0D080000D007D004D003D0020FD0048093A5
:0B080D0074102AFAE43BFB0C020738D1
:0108180022BD
:0508190012053A7A000F
:03081E00BA090014
:0E082100500CD294C002120525D0020A80EFBE
:03082F000205437C
:0D083200E582900026F012053A75827012E2
:06083F00054C12052A9091
:0A0845000026E0FAF58212054C12BD
:05084F00052A0205432B
:0A08540012053A75827112054C126C
:0A085E00052A120581AA82C00212C9
:0E0868000531D002C002120543D0028A82225E
:0D007F009000E27403F09000E37406F0902E
:0C008C0000E4740CF09000E57418F09093
:0C00980000E67410F09000E77410F09087
:0C00A40000E87410F09000E97410F09077
:0B00B00000EA741FF09000EBE4F090F9
:0800BB0000ECF09000EDF09064
:0900C30000EEF09000EFE4F09073
:0C00CC0000F0740FF09000F1740FF09041
:0B00D80000F2741FF09000F3E4F090C1
:0800E30000F4F09000F5F0902C
:0900EB0000F6F09000F7E4F0903B
:0C00F40000F8741FF09000F9741FF090E9
:0C01000000FA741FF09000FB7401F090F6
:09010C0000FCE4F09000FDF0900D
:0801150000FEF09000FFF090E5
:0C011D0001007418F09001017418F090BB
:0B0129000102E4F09001037410F0905C
:0C01340001047418F09001057408F090AC
:0C01400001067408F09001077408F090AC
:0C014C0001087408F09001097408F0909C
:09015800010AE4F090010BF090A3
:08016100010CF090010DF0907B
:09016900010EE4F090010FF0908A
:080172000110F0900111F09062
:09017A000112E4F0900113F09071
:080183000114F0900115F09049
:09018B000116E4F0900117F09058
:080194000118F0900119F09030
:0C019C00011A7410F090011B7410F09018
:0C01A800011C7410F090011D7410F09008
:0C01B400011E7410F090011F7410F090F8
:0C01C00001207410F09001217410F090E8
:0C01CC000122740FF0900123740CF090DD
:0C01D8000124740CF0900125740CF090D0
:0C01E4000126740CF0900127740CF090C0
:0C01F0000128740FF0900129740FF090AA
:0B01FC00012A741FF090012BE4F0902A
:08020700012CF090012DF09094
:09020F00012EF090012FE4F090A3
:080218000130F0900131F0907B
:0C02200001327418F0900133741FF0904C
:0C022C000134741FF0900135741FF09035
:0C0238000136741FF0900137741FF09025
:0C02440001387418F09001397418F09023
:0C025000013A740FF090013B741EF09016
:0C025C00013C741EF090013D741EF090F7
:0C026800013E741EF090013F741EF090E7
:0C0274000140740EF0900141740EF090F7
:0B0280000142741FF0900143E4F09075
:08028B000144F0900145F090E0
:090293000146F0900147E4F090EF
:0C029C0001487401F09001497401F090D9
:0C02A800014A7418F090014B7408F090AB
:0C02B400014C7408F090014D7408F090AB
:0C02C000014E7408F090014F7408F0909B
:0B02CC0001507418F0900151E4F09014
:0C02D70001527410F09001537410F0906C
:0C02E30001547410F09001557418F09054
:0C02EF000156740CF09001577406F0905A
:0B02FB0001587403F0900159E4F090EA
:0B030600015A740FF090015BE4F090CE
:08031100015CF090015DF09029
:09031900015EF090015FE4F09038
:0C0322000160741FF09001617401F09004
:09032E000162E4F0900163F0901B
:080337000164F0900165F090F3
:09033F000166E4F0900167F09002
:080348000168F0900169F090DA
:0B035000016A7418F090016BE4F0905B
:08035B00016CF090016DF090BF
:0A036300016EF090016F7401F0903C
:0C036D000170741FF0900171741FF0907B
:0C0379000172740EF0900173740EF0908D
:0C0385000174740EF0900175740EF0907D
:0C0391000176741EF0900177741EF0904D
:0C039D000178741EF0900179741EF0903D
:0C03A900017A7401F090017B7401F09067
:0C03B500017C7401F090017D7401F09057
:0C03C100017E7401F090017F7401F09047
:0C03CD0001807401F09001817401F09037
:0903D9000182E4F0900183F09030
:0803E2000184F0900185F09008
:0903EA000186E4F0900187F09017
:0803F3000188F0900189F090EF
:0903FB00018AE4F090018BF090FE
:08040400018CF090018DF090D5
:09040C00018EE4F090018FF090E4
:080415000190F0900191F090BC
:0C041D0001927401F09001937401F090C2
:0C04290001947401F09001957401F090B2
:090435000196E4F0900197F090AB
:08043E000198F0900199F09083
:09044600019AE4F090019BF09092
:0A044F00019CF090019D7410F090E4
:0C045900019E7418F090019F740CF0904C
:0C04650001A07406F09001A17403F09057
:0C04710001A2741FF09001A3741FF09012
:09047D0001A4E4F09001A5F09047
:0804860001A6F09001A7F0901F
:0B048E0001A8E4F09001A9741FF09099
:0C04990001AA741EF09001AB741EF090DC
:0904A50001ACE4F09001ADF0900F
:0804AE0001AEF09001AFF090E7
:0B04B60001B0E4F09001B1741FF09061
:0C04C10001B27401F09001B37401F090DE
:0C04CD0001B47401F09001B57403F090CC
:0C04D90001B67406F09001B7740CF090AE
:0C04E50001B87418F09001B97410F09088
:0904F10001BAE4F09001BBF090A7
:0804FA0001BCF09001BDF0907F
:0905020001BEE4F09001BFF0908D
:07050B0001C0F09001C1F0F6
:0E087600AA82AB83ACF0FD900030EAF0A3EB59
:0C088400F0A3ECF0A3EDF090002FE0F5E5
:0C0890000A900030E0FBA3E0FCA3E0FDB8
:0E089C00A3E0FE8B078C008D018E02C3740951
:0C08AA009FE498E499E49AE433F50B8B8A
:0E08B600078C008D018E02C374639FE498E4EA
:0E08C40099E49AE433FAC374E79B74039CE44E
:0808D2009DE49EE433FBAC0A37
:0E08DA00C374818CF063F08095F0503FC00233
:0E08E800C003C004120ACFD004D003D002BC5B
:0408F6000202801E5C
:0508FA00BC0302800EAA
:0E08FF00BC0420EB701D90A0007430F080153A
:0B090D00EA701290A0007430F0800A25
:0A091800E50B700690A0007430F0AB
:030922001C80B581
:020925008C0242
:09092700EA2434FEE43400FF90E0
:080930000030E0F50CA3E0F536
:080938000DA3E0F50EA3E0F5AC
:0C0940000F900273740AF0E4A3F0A3F01F
:09094C00A3F0850C82850D838562
:0A0955000EF0E50FC002C006C00757
:0E095F001220FCA982AB83ACF0FDD007D006BD
:0E096D00D002743029F98E828F83F0900284BC
:0C097B00740AF0E4A3F0A3F0A3F0850CD4
:0809870082850D83850EF0E569
:0C098F000FC0021223A9AB82AC83ADF0B4
:0E099B00FED002900030EBF0A3ECF0A3EDF0E4
:0E09A900A3EEF00A900030E0FBA3E0FCA3E018
:0E09B700FDA3E0FEC3E49BE49CE49D74808EEF
:0B09C500F063F08095F050030209275A
:0B09D000EA1490003EF090003EE0FAB8
:0E09DB00C374808AF063F08095F0501FC00254
:0C09E900120ACFD0027B007CA0EA24346C
:0C09F500F582E43400F583E0FD8B828C79
:050A010083F01A80D50E
:010A060022CD
:0E0A070090000FE4F5F0121F8D908000743007
:0E0A1500F0900005E4F5F0121F8D9080007443
:0E0A230030F0900001E4F5F0121F8D9080007D
:0D0A31007430F0758238120FE575820812DE
:0C0A3E000FE575820F120FE5758206129D
:080A4A000FE5758201020FE5C2
:0D0A520090003F7480F090004074C0F09060
:0C0A5F0000417490F090004274D0F0123E
:0B0A6B000ACF900029E0FABA030F90B8
:0E0A76000028E0FBBB0807900029E4F0801F79
:0E0A8400EA24FC500E900555120622E58290E1
:050A92000029F0800CBA
:030A9700BA03009F
:090A9A00500790002974012AF0B4
:090AA300120ACF900029E0FA903C
:0A0AAC000076E4F08A82120E1B901F
:0C0AB6000029E0FA90000AF090055512AB
:0B0AC20005BD90000AE4F090077702E9
:020ACD0005BD65
:090ACF00909000E0FA20E7F82203
:0D0AD800900043740AF0900044740DF090FB
:0C0AE50000457444F09000467444F0900A
:0C0AF10000477452F09000487441F090EF
:0C0AFD000049744DF090004A7420F09005
:0C0B0900004B7448F090004C7465F090B4
:0C0B1500004D7478F090004E7464F09075
:0C0B2100004F7475F0900050746DF0905F
:0E0B2D0000517470F0900052E4F07582801256
:060B3B000FE590004312DB
:080B41001CFB7A807B007C00A4
:030B4900BC0500E8
:050B4C004003020C0152
:0E0B510075820AC002C003C004121CD1D00479
:0E0B5F00D003D00275820DC002C003C0041284
:0E0B6D001CD1D004D003D0028A058B067F0075
:0E0B7B0078009002307402F08D828E838FF02D
:0E0B8900E8C002C003C004121B56D004D00303
:0E0B9700D00275823AC002C003C004121CD105
:080BA500D004D003D0027D0052
:030BAD00BD100078
:0E0BB0005044758220C002C003C004C005126C
:0E0BBE001CD1D005D004D003D00290B000E0CE
:0E0BCC00FE7F00780079009002307402F08EF7
:0E0BDA00828F8388F0E9C002C003C004C0050A
:0E0BE800121B56D005D004D003D0020D80B7EA
:0B0BF60074102AFAE43BFB0C020B49D0
:0B0C0100900029E0FA900028E0FB9032
:080C0C000076F08A82020E1B43
:0D0C1400900053740AF0900054740DF0909D
:0C0C210000557443F09000567447F090AA
:0C0C2D0000577452F09000587441F09091
:0C0C39000059744DF090005A7420F090A7
:0C0C4500005B7448F090005C7465F09057
:0C0C5100005D7478F090005E7464F09018
:0C0C5D00005F7475F0900060746DF09002
:0E0C690000617470F0900062E4F07582401239
:060C77000FE5900053128E
:080C7D001CFB7A007B007C00E7
:030C8500BC0400AC
:050C88004003020D3DD8
:0E0C8D0075820AC002C003C004121CD1D0043C
:0E0C9B00D003D00275820DC002C003C0041247
:0E0CA9001CD1D004D003D0028A058B067F0038
:0E0CB70078009002307402F08D828E838FF0F0
:0E0CC500E8C002C003C004121B56D004D003C6
:0E0CD300D00275823AC002C003C004121CD1C8
:080CE100D004D003D0027D0015
:030CE900BD10003B
:0E0CEC005044758220C002C003C004C005122F
:0E0CFA001CD1D005D004D003D00290B000E091
:0E0D0800FE7F00780079009002307402F08EB9
:0E0D1600828F8388F0E9C002C003C004C005CC
:0E0D2400121B56D005D004D003D0020D80B7AC
:0B0D320074102AFAE43BFB0C020C8555
:0B0D3D00900029E0FA900028E0FB90F5
:080D48000076F08A82020E1B06
:0D0D5000E582900063F0900064740AF0905A
:0C0D5D000065740DF09000667449F09081
:0C0D69000067746EF09000687476F090E3
:0C0D750000697461F090006A746CF090EA
:0C0D8100006B7469F090006C7464F090DA
:0C0D8D00006D7420F090006E7441F09036
:0C0D9900006F7464F09000707464F090BF
:0C0DA50000717472F09000727465F090A0
:0C0DB10000737473F09000747473F09081
:0C0DBD000075E4F0900063E0FABA9000CA
:070DC9004005EA2460502DF3
:080DD000900063E0FABAD000C4
:070DD8004005EA2420501E33
:080DDF00900063E0FABAC000C5
:070DE7004005EA2430500F23
:080DEE00900063E0FABA8000F6
:070DF600401CEA24704017C5
:0C0DFD00120ACF900063E0FA4480F090EE
:0B0E09000063E0FAF582120FE580069E
:060E1400900064121CFBBB
:010E1A0022B5
:0D0E1B00E582900077F0900078740AF09066
:0C0E28000079740DF090007A7449F0908D
:0C0E3400007B746EF090007C7476F090EF
:0C0E4000007D7461F090007E746CF090F6
:0C0E4C00007F7469F09000807464F090E6
:0C0E580000817420F09000827452F09031
:0C0E64000083746FF09000847477F090AD
:0C0E700000857420F0900086744EF09015
:0C0E7C0000877475F0900088746DF09091
:0C0E880000897462F090008A7465F0909C
:0B0E9400008B7472F090008CE4F09072
:0C0E9F00008D740AF090008E740DF0902D
:0C0EAB00008F7449F0900090746EF0907D
:0C0EB70000917476F09000927461F0904D
:0C0EC3000093746CF09000947469F0903F
:0C0ECF0000957464F09000967420F09080
:0C0EDB0000977443F0900098746FF09042
:0C0EE7000099746CF090009A7475F09003
:0C0EF300009B746DF090009C746EF090F9
:0C0EFF00009D7420F090009E744EF09056
:0C0F0B00009F7475F09000A0746DF090D1
:0C0F170000A17462F09000A27465F090DC
:0B0F230000A37472F09000A4E4F090B2
:0C0F2E0000A57480F09000A674C0F09044
:0C0F3A0000A77490F09000A874D0F01292
:0A0F46000ACF900076E0FABA10001E
:0E0F5000400C900777120622E582900076F0A2
:080F5E00900077E0FABA0400EC
:0E0F6600400C900555120622E582900077F0AF
:0B0F7400900077E0FA24A5F582E43439
:0C0F7F0000F583E0FA900076E0FB2AFA0F
:030F8B00BA900019
:070F8E004005EA2460501E3B
:030F9500BAD000CF
:070F98004005EA2428501473
:030F9F00BAC000D5
:070FA2004005EA2430500A6B
:030FA900BA80000B
:070FAC004036EA24704031D9
:0B0FB3008A82120D50900076E0FA9048
:090FBE000028F0900077E0FB90A0
:0E0FC7000029F090000AEAF0900777C00312AC
:0D0FD50005BDD00390000AEBF09005551209
:020FE20005BD4B
:010FE40022EA
:0E0FE500E5829000A9F0120ACF7A007B80907E
:0A0FF30000A9E0FC8A828B83F02243
:0A0FFD00E5829000AAF0120ACF90DE
:0E1007000029E0FABA030A900028E0FBBB08BB
:0110150000DA
:02101600400593
:03101800BA030018
:02101B00503B48
:0E101D00120ACF7A007BA09000AAE0FC8A8223
:0E102B008B83F0900028E0FA90002874012AD0
:0E103900F0900028E0FA90000AF0900777127D
:0810470005BD900029E0FA90BC
:09104F00000AF09005551205BDE0
:08105800900028E0FABA100034
:0A106000400A900029E0FABA0300EC
:02106A00401232
:08106C00900028E0FABA080028
:0A107400400B900029E0FABA0303D4
:03107E00120A5201
:01108100224C
:0E108200AA83E5829000ABF0A3EAF09000ABE9
:05109000E0FAA3E0FB03
:0E1095008A828B83E0FC601C8C82C002C00348
:0C10A300120FFDD003D0020ABA00010BAE
:0A10AF009000ABEAF0A3EBF080DC48
:0910B9009000ABEAF0A3EBF02279
:0C10C200758201120FE5900029E4F09007
:0A10CE00000AF09005551205BD90D0
:0C10D8000028E4F090000AF09007770276
:0210E40005BD48
:0D10E600E5829000ADF09000AE740AF0902D
:0C10F30000AF740DF09000B07445F09058
:0C10FF0000B1746EF09000B27474F090B8
:0C110B0000B37465F09000B47472F090B2
:0C11170000B57420F09000B67462F090F7
:0C11230000B77461F09000B87473F09095
:0C112F0000B97465F09000BA7420F090D4
:0C113B0000BB746FF09000BC7466F09074
:0C11470000BD7420F09000BE7479F090A0
:0C11530000BF746FF09000C07475F09045
:0C115F0000C17472F09000C27420F09087
:0C116B0000C37464F09000C47461F09044
:0C11770000C57474F09000C67461F09024
:0C11830000C77420F09000C87465F09064
:0C118F0000C9746EF09000CA7474F090F7
:0C119B0000CB7472F09000CC7479F090DE
:0B11A70000CDE4F09000CE740AF09040
:0C11B20000CF740DF09000D07443F0905A
:0C11BE0000D17468F09000D27461F090D1
:0C11CA0000D37472F09000D47461F090B7
:0C11D60000D57463F09000D67474F090A3
:0C11E20000D77465F09000D87472F09093
:0B11EE0000D97420F09000DAE4F090CB
:0C11F90000DB740AF09000DC740DF09034
:0C12050000DD7452F09000DE746FF09079
:0C12110000DF7477F09000E07420F09093
:08121D0000E1E4F01210C290A0
:0912250000AE121CFB75820A12D6
:0D122E001E77AA82AB839000ADE0FB7C0030
:08123B00C3EC9B4003021358B1
:0E1243009000CEC002C003C004121CFBD004F9
:0D125100D003D0028C057E000DBD00010E03
:0E125E00EE3395E0FFF88D828E838FF0C00294
:0E126C00C003C004121D3BD004D003D002EC1E
:0A127A00C40354F8FD4305407E0054
:03128400BE0800A1
:05128700400302132CDE
:0E128C00C0039000DBC002C003C004C005C058
:0E129A0006121CFBD006D005D004D003D002F3
:0E12A8008E07780079007B008F82888389F0A2
:0E12B600EBC002C003C004C005C006121D3B01
:0E12C400D006D005D004D003D0028A82C0022A
:0E12D200C004C005C006121E77AB82AF83D0E9
:0E12E00006D005D004D002EEC42354E0FF4235
:0E12EE0003EE4D547FFFF582C002C003C00422
:0E12FC00C005C006120FE5D006D005D004D004
:0E130A0003D0028B82C002C003C004C005C025
:0E13180006120FFDD006D005D004D003D0027F
:061326000ED00302128448
:0E132C00900076ECF0758200C002C003C00491
:0E133A00120E1BD004D003D0028C82C002C061
:0E13480003C004120FFDD004D003D0020C022B
:02135600123B48
:011358002272
:0C13590075820C120FE59000277401F063
:08136500900027E0FA7001225C
:0C136D009001C2E4F0A3F0A3F0A3F0751F
:02137900110061
:0C137B0074FC251140E4900001E4F5F042
:07138700121F8D1210C2AB12
:03138E00117C00CF
:03139100BC070096
:0513940040030214906B
:0E139900ECC40354F8FD4305409001C2E0FE91
:0C13A700A3E0FFA3E0F8A3E0F97510003C
:0913B30074F82510500302144BDC
:0A13BC00C003EE24E2F582EF3400D6
:0E13C600F583E0FB9001C6F00EBE00090FBFDC
:0713D400000508B800010943
:0E13DB009001C2EEF0A3EFF0A3E8F0A3E9F05A
:0C13E900E510C42354E0FB9001C6E0FABC
:0C13F5004BF0E5104D547FFAF582C00368
:0D140100C004C005C006C007C000C0011235
:0E140E000FE5D001D000D007D006D005D004E5
:0E141C00D0039001C6E0FAF582C003C004C000
:0E142A0005C006C007C000C001120FFDD001B2
:0D143800D000D007D006D005D004D00305A9
:0614450010D0030213B3F6
:0E144B009001C2EEF0A3EFF0A3E8F0A3E9F0E9
:0E145900900076ECF08B82C003C004120E1BD4
:0E146700D004D0038C82C003C004120FFDD04D
:0E14750004D003900076740AF0758200C00364
:0D148300C004120E1BD004D0030C02139104
:05149000051102137BB1
:0400000002002632A2
:03000B000216F9E1
:0100130032BA
:01001B0032B2
:030023000220EACE
:030522000214952B
:051495001214A180FE0D
:07149A00438E0C90000022BC
:0E14A1007A009001CF740AF09001D0740DF023
:0D14AF009001D1744DF09001D2746FF09057
:0C14BC0001D3746EF09001D47469F090BC
:0C14C80001D57473F09001D67468F090A8
:0C14D40001D77420F09001D8744EF09005
:0C14E00001D97465F09001DA746EF09090
:0C14EC0001DB7465F09001DC7420F090CE
:0C14F80001DD7445F09001DE7453F090AB
:0C15040001DF7444F09001E07420F090CE
:0C15100001E17453F09001E27470F0905F
:0C151C0001E37472F09001E47469F09037
:0C15280001E5746EF09001E67467F0902D
:0C15340001E77420F09001E87432F090A0
:0C15400001E97430F09001EA7431F09081
:0C154C0001EB7438F09001EC7420F0907A
:0C15580001ED7450F09001EE7472F09000
:0C15640001EF746FF09001F0746AF090D9
:0C15700001F17465F09001F27463F090DA
:0B157C0001F37474F09001F4E4F090AF
:0C15870001F5744DF09001F6746FF090C7
:0C15930001F7746EF09001F87469F0909C
:0C159F0001F97473F09001FA7468F09088
:0C15AB0001FB7420F09001FC744EF090E5
:0C15B70001FD7465F09001FE746EF09070
:0C15C30001FF7465F09002007420F090AD
:0C15CF0002017445F09002027453F09089
:0C15DB0002037444F09002047420F090AD
:0C15E70002057453F09002067470F0903E
:0C15F30002077472F09002087469F09016
:0C15FF000209746EF090020A7467F0900C
:0C160B00020B7431F090020C7438F09067
:0C161700020D7420F090020E7450F09050
:0C162300020F7472F0900210746FF090CF
:0C162F000211746AF09002127465F090D1
:0C163B0002137463F09002147474F090B9
:0C1647000215E4F0C002121CE3D0029077
:0C16530001CFC002121CFBD002C002122A
:0C165F000A07D002C002120819D0029045
:0E166B0001F5C002121082D002900080C00271
:05167900121A01D0026D
:05167E002091FD7B003E
:03168300BB0800A1
:0D1686005011EA2AFA209105430201800369
:031693005302FE01
:031696000B80EADC
:0E1699008A82C002121CD1D0028A037C007D1E
:0D16A700007E008B828C838DF0EEC002125D
:0E16B4001D3BD0028A03E4FCC454F0CBC4CB2F
:0E16C2006BCB54F0CB6BFC430410C295D29757
:0416D000C2937D0044
:0316D400BD100046
:0A16D7005018EC30E704D2968002B0
:0216E100C296AF
:0E16E300D295C295ECCB25E0CB33FC0D80E315
:0816F100D293C297C2958085D7
:0D05120090021EE4F0A3F0900223E4F090AC
:03051F000224F0C3
:0E16F900C0E0C0F0C082C083C002C003C004C5
:0E170700C005C006C007C000C001C0D075D02C
:0E17150000C28CC28D758AEF758C7390021E17
:0E172300E0FAA3E0FBBA0147BB004490021AB3
:0E173100E0FCA3E0FDA3E0FEA3E0FF90021A9F
:0E173F0074012CF0E43DA3F0E43EA3F0E43F7F
:0E174D00A3F0B2901217AE90021EE4F0A3F0CB
:0E175B00120854E582FC20E71974FFC39C4479
:0917690080FCF582120832800BAD
:0B17720090021E74012AF0E43BA3F07B
:0E177D00D28CD0D0D001D000D007D006D0053D
:0E178B00D004D003D002D083D082D0F0D0E0C2
:01179900321D
:0E179A0043A8824389015389F1758AEF758C4B
:0617A80073D28C02192B24
:0C17AE00900555120622858213900777E3
:0717BA001206228582129045
:0E17C100021AE0FCA3E0FDA3E0FEA3E0FF900F
:0E17CF00027B740AF0E4A3F0A3F0A3F08C8276
:0E17DD008D838EF0EFC004C005C006C0071259
:0E17EB0021BDA882A983ABF0FAD007D006D0AA
:0E17F90005D004900220E8F090028C740AF0F3
:0E180700E4A3F0A3F0A3F08C828D838EF0EFAB
:0E1815001224A2AA82AB83ACF0FD90027B7479
:0E1823003CF0E4A3F0A3F0A3F08A828B838C48
:0D183100F0ED1221BDAA82AB83ACF0FD905A
:0B183E000221EAF0120ACF7582DF12CF
:061849000D50120ACF90C1
:0E184F000220E0FA7B007C007D0090002F74E8
:0D185D0001F08A828B838CF0ED12087690EA
:0E186A000221E0FA900223E0FBEAB50303023C
:0218780019193C
:0D187A00C002120ACFD0027582DCC002123B
:0D1887000D50D0028A037C007D007E009091
:0E189400002F7402F08B828C838DF0EEC00268
:0B18A200120876D002900223EAF090BA
:0E18AD00021AE0FAA3E0FBA3E0FCA3E0FD902A
:0E18BB00028C7458F0A37402F0A3E4F0A3F0C2
:0E18C9008A828B838CF0ED1224A2AA82AB835C
:0E18D700ACF0FD900222EAF0900224E0FBEA61
:0518E500B50302802F95
:0A18EA00120ACF7582D9120D50903A
:0D18F4000222E0FA8A037C007D007E009055
:0E190100002F7402F08B828C838DF0EEC002FA
:0A190F00120876D002900224EAF0DC
:07191900900076E512F08555
:051920001382020E1B02
:03192500C28C224F
:03192800D28C223C
:0D192B007582D9120D5090002F7402F090BB
:0E1938000000E4F5F0120876120ACF90A0002D
:0E194600743AF090002F7402F0900000E4F567
:0E195400F0120876120ACF90A000742EF090C8
:0E196200002F7401F0900000E4F5F0120876FA
:0C19700090021AE4F0A3F0A3F0A3F02210
:05197C00D295C2952286
:0E198100AA83E582900226F0A3EAF0C295D276
:05198F0097C2937A00ED
:03199400BA100086
:0E1997005031900226E0FBA3E0FC30E704D2C2
:0319A50096800227
:0219A800C296E5
:0E19AA00C00212197CD002900226E0FBA3E0DE
:0E19B800FCCB25E0CB33FC900226EBF0A3EC39
:0419C600F00A80CAD9
:0719CA00D293C297C29522DF
:0E19D100AA83E582900228F0A3EAF090022893
:0E19DF00E0FAA3E0FBC454F0CAC4CA6ACA54BA
:0E19ED00F0CA6AFB53037F4303105303DF8AE3
:0619FB00828B83021981BA
:0E1A0100AA83E58290022AF0A3EAF090022A5E
:0E1A0F00E0FAA3E0FBC454F0CAC4CA6ACA5489
:0E1A1D00F0CA6AFB4303804303105303DF8AC1
:061A2B00828B8302198189
:0A1A310090029E7402F0E4A3F0227C
:0A1A3B0090029E7401F0E4A3F02273
:02273E00020097
:0E1A4500AA83E58290022DF0A3EAF090022D14
:0B1A5300E0FAA3E0FB30E703021AE713
:0E1A5E00C3740F9A74808BF063F08095F05083
:041A6C0003021AE770
:071A7000EA2A2A901A77739D
:071A7700021AAB021AA702DC
:061A7E001AAF021AB302C8
:061A84001AB7021ABB02B2
:061A8A001ABF021AC3029C
:061A90001AC7021ACB0286
:061A96001ACF021AD30270
:061A9C001AD7021ADB025A
:051AA2001ADF021AE347
:041AA70075823122F1
:041AAB0075823022EE
:041AAF0075823222E8
:041AB30075823322E3
:041AB70075823422DE
:041ABB0075823522D9
:041ABF0075823622D4
:041AC30075823722CF
:041AC70075823822CA
:041ACB0075823922C5
:041ACF0075824122B9
:041AD30075824222B4
:041AD70075824322AF
:041ADB0075824422AA
:041ADF0075824522A5
:041AE30075824622A0
:041AE70075823022B2
:0E1AEB00E58290022FF090022FE0FABA300050
:0E1AF900400EEA24C64009EA24D090022FF0E5
:021B0700804616
:081B090090022FE0FABA61001E
:0E1B1100401AEA24994015EA249F90022FF012
:0E1B1F0090022FE0FA90022F740A2AF0802222
:081B2D0090022FE0FABA41001A
:0E1B35004018EA24994013EA24BF90022FF0D2
:0C1B430090022FE0FA90022F740A2AF0A2
:071B4F0090022FE0F5822255
:0E1B5600AA82AB83ACF0FD900231EAF0A3EB63
:0D1B6400F0A3ECF0A3EDF0900230E0FA9059
:0E1B71000231E0FBA3E0FCA3E0FDA3E0FEC315
:0E1B7F00740F9BE49CE49DE49EE433FFC3746A
:0E1B8D00FF9BE49CE49DE49EE433F8C374FFE8
:0B1B9B009B740F9CE49DE49EE433FB70
:0E1BA600C374818AF063F08095F0505FBA023C
:031BB40002803E6E
:051BB700BA0302801ECC
:0E1BBC00BA044FEB704C758230C002C003C0FB
:0E1BCA0007C000121CD1D000D007D003D002FB
:021BD800803457
:0E1BDA00E87031758230C002C003C007C00041
:0D1BE800121CD1D000D007D003D00280190C
:0E1BF500EF7016758230C002C003C007C0003A
:0B1C0300121CD1D000D007D003D0028B
:031C0E001A8095A4
:091C1100EA2435FEE43402FF90E0
:081C1A000231E0F521A3E0F521
:081C220022A3E0F523A3E0F585
:0A1C2A0024740F5521F97B007C00A3
:0D1C34007D0089828B83C002C006C00712AC
:0E1C41001A45AB82D007D006D0028E828F8368
:0A1C4F00EBF0AB21E522C4CBC45436
:0C1C59000F6BCB540FCB6BCBFCE523C40E
:0A1C650054F04CFCAD23E524C4CD7F
:0E1C6F00C4540F6DCD540FCD6DCDFE900231DB
:0D1C7D00EBF0A3ECF0A3EDF0A3EEF00A9065
:0E1C8A000231E0FBA3E0FCA3E0FDA3E0FEEBD3
:081C98004C4D4E6003021C11CB
:0B1CA000EA1490023FF090023FE0FACF
:0B1CAB00EA20E718EA2435F582E43453
:0C1CB60002F583E0FBF582C002121CD195
:051CC200D0021A80E4CD
:011CC70022FA
:051CC80010980280FBF2
:041CCD008599822251
:061CD100E582900240F0E4
:0C1CD7003099FD900240E0F599C299227E
:0E1CE300758F0143A88043B8104389204398B1
:0A1CF10050438840758DFDD2992202
:0E1CFB00AA83E582900241F0A3EAF090024134
:051D0900E0FAA3E0FB7D
:0E1D0E008A828B83E0FC601C8C82C002C003C2
:0C1D1C00121CD1D003D0020ABA00010B47
:0A1D2800900241EAF0A3EBF080DC2A
:091D3200900241EAF0A3EBF0225B
:0E1D3B00AA82AB83ACF0FD900243EAF0A3EB6A
:0E1D4900F0A3ECF0A3EDF0900243E0FAA3E06B
:0E1D5700FBA3E0FCA3E0FD30E74375822DC046
:0E1D650002C003C004C005121CD1D005D0047A
:0E1D7300D003D00290029A74FFF0A3F0A37484
:0E1D8100FFF0A3F08A828B838CF0ED12263ADD
:0E1D8F00AA82AB83ACF0FD900243EAF0A3EB16
:071D9D00F0A3ECF0A3EDF050
:021DA4007A00C3
:091DA600EA2447FEE43402FF9038
:081DAF000243E0F525A3E0F575
:081DB70026A3E0F527A3E0F5E7
:0C1DBF0028900273740AF0E4A3F0A3F073
:091DCB00A3F0852582852683859D
:0A1DD40027F0E528C002C006C00792
:0E1DDE001220FCA982AB83ACF0FDD007D0062A
:0E1DEC00D002743029F98E828F83F090028429
:0C1DFA00740AF0E4A3F0A3F0A3F0852528
:081E0600828526838527F0E5A3
:0C1E0E0028C0021223A9AB82AC83ADF007
:0E1E1A00FED002900243EBF0A3ECF0A3EDF03B
:0E1E2800A3EEF00A900243E0FBA3E0FCA3E06F
:0E1E3600FDA3E0FEC3E49BE49CE49D74808E5B
:0B1E4400F063F08095F05003021DA633
:0B1E4F00EA14900251F0900251E0FAFA
:0B1E5A00EA20E718EA2447F582E43490
:0C1E650002F583E0FBF582C002121CD1E4
:051E7100D0021A80E41C
:011E76002249
:0C1E7700E582900252F0900253E4F090DB
:091E83000268F0900269F0A3F07E
:0B1E8C00900253E0FABA0D03021F1D84
:0D1E9700121CC8AA82900253EAF0BA300073
:071EA4004005EA24C65014BA
:031EAB00BA610019
:071EAE004005EA2499500AE7
:031EB500BA41002F
:071EB800403CEA24B9403769
:0E1EBF008A82C002121CD1D002900268E0FBA1
:0A1ECD002454FCE43402FD8A82C0B4
:0E1ED70003C004C005121AEBAE82D005D00481
:0E1EE500D0038C828D83EEF090026874012B86
:031EF300F08096E6
:051EF600BA08028003A0
:031EFB00021E8C38
:0E1EFE00758208121CD1758220121CD17582CB
:0B1F0C0008121CD1900268E0FA14904B
:061F17000268F0021E8CBE
:0C1F1D00900252E0FA900268E0FB7C00A9
:0E1F2900C3EC9B5053900269E0FDA3E0FE90D4
:0E1F37000298EAF0A3E4F08D828E83C002C00F
:0E1F450003C00412261AE5828583F0D004D072
:0D1F530003D002900269F0A3E5F0F0EC2449
:0A1F600054F582E43402F583E0FD3D
:0E1F6A007E00900269E0FFA3E0F8900269EDAE
:091F78002FF0EE38A3F00C80A854
:0C1F8100900269E0FAA3E08A82F5832256
:0E1F8D00AA82AB83ACF0FD90026BEAF0A3EBEE
:0E1F9B00F0A3ECF0A3EDF090026BE0FAA3E0EF
:0E1FA900FBA3E0FCA3E0FD7E007F0078007942
:011FB7000029
:0C1FB800C3EE9AEF9BE89CE99D50387541
:061FC40031607532047566
:051FCA00330075340036
:081FCF00153174FFB5310C154A
:051FD70032B5320715D0
:051FDC0033B5330215CE
:011FE10034CB
:051FE200E53145324528
:0A1FE70033453470E30EBE00C80F4E
:0A1FF100BF00C408B800C00980BD9D
:011FFB0022C3
:0E1FFC00AA82AB83ACF0FD90026FEAF0A3EB7B
:0C200A00F0A3ECF0A3EDF090026FE0F505
:0820160029A3E0F52AA3E0F57F
:0A201E002BA3E0F52C7E007F007874
:032028000079003C
:07202B00852982852A8385C7
:0A2032002BF0E52CC006C007C0002B
:0E203C00C0011225D7AA82AB83ACF0FDD00103
:0E204A00D000D007D006C006C007C000C001FD
:0E2058007429C0E0745CC0E0748FC0E0743F77
:0E206600C0E08A828B838CF0ED122306858207
:062074002D85832E85F08E
:0A207A002FF530E58124FCF581D03C
:0E20840001D000D007D0068E828F8388F0E94D
:0E209200C006C007C000C0011225D7AA82AB4D
:0E20A00083ACF0FDD001D000D007D006C00602
:0A20AE00C007C000C001C02DC02E05
:0A20B800C02FC0308A828B838CF0A9
:0E20C200ED1225EAAA82E58124FCF581D00109
:0E20D000D000D007D006EA60100EBE00090F47
:0820DE00BF000508B80001096C
:0320E60002202BAA
:0120E90022D4
:0E20EA00C0E0C082C08390022CE4F0D083D00E
:0420F80082D0E03280
:0E20FC00AA82AB83ACF0FD900277EAF0A3EB72
:0E210A00F0A3ECF0A3EDF0900277E0FAA3E072
:0E211800FBA3E0FCA3E0FD30E70FC3E49AFE5A
:0B212600E49BFFE49CF8E49DF98008B6
:082131008A068B078C008D016A
:0E2139008E028F0388048905900273E0FEA3D6
:0E214700E0FFA3E0F8A3E0F930E713C3E49E45
:09215500F514E49FF515E498F57A
:07215E0016E499F517800853
:052165008E148F1588A7
:03216A00168917BC
:08216D0090027BE514F0A3E5EC
:0821750015F0A3E516F0A3E547
:0C217D0017F08A828B838CF0ED1221BDDC
:0E218900AA82AB83ACF0FD900277E0FEA3E0EB
:0E219700FFA3E0F8A3E0F930E714C3E49AFEDA
:0E21A500E49BFFE49CF8E49DF98E828F838812
:0221B300F02218
:0821B5008A828B838CF0ED227D
:0E21BD00AA82AB83ACF0FD90027FEAF0A3EBA8
:0D21CB00F0A3ECF0A3EDF0900283E4F0909F
:0E21D800027FE0FAA3E0FBA3E0FCA3E0FD7EA3
:0121E60000F8
:0921E70090027BE0F531A3E0F564
:0821F00032A3E0F533A3E0F592
:0A21F80034E534235401FF7078C071
:0A22020006E53125E0FFE53233F870
:09220C00E53333F9E53433FE90AB
:0E221500027BEFF0A3E8F0A3E9F0A3EEF09057
:08222300027BE0F531A3E0F5B8
:08222B0032A3E0F533A3E0F556
:0722330034C3EA9531EB957D
:06223A0032EC9533ED9536
:0A22400034E433D0066029E534C30E
:07224A0013F534E53313F531
:0522510033E53213F536
:0522560032E53113F533
:05225B003190027BE55B
:0822600031F0A3E532F0A3E523
:0822680033F0A3E534F0800916
:092270000E900283EEF00221E75A
:05227900900283E0FA71
:0E227E0090027FE0FBA3E0FCA3E0FDA3E0FEE6
:09228C0090027BE0F531A3E0F5BE
:0822950032A3E0F533A3E0F5EC
:07229D0034C3EB9531EC9511
:0622A40032ED9533EE95CA
:0922AA0034401790027FEBC3954C
:0922B30031F0EC9532A3F0ED9539
:0822BC0033A3F0EE9534A3F00A
:0E22C40090027BE0FBA3E0FCA3E0FDA3E0FEA4
:0D22D200C313FEED13FDEC13FCEB13FB90AA
:0E22DF00027BF0A3ECF0A3EDF0A3EEF08A0377
:0E22ED001AEB708D90027FE0FAA3E0FBA3E0F5
:0B22FB00FCA3E0FD8A828B838CF022A4
:06230600122474BC000368
:03230C0002271095
:08230F00EF60FA30D502B2D1F3
:08231700E583B4FF0302272651
:08231F00E582B4FF030227264A
:0B232700258340072482400B02271092
:08233200248314500302272646
:0E233A00F582EA8DF0A4A8F0EA8EF0A428F84F
:0E234800E435F0F9EB8DF0A428E935F0F9E466
:0E23560033CA8FF0A429F9EA35F0FAEBF88EBD
:0E236400F0A429F9EA35F0FAE433FBEC8DF031
:0E237200A429F9EA35F0FAE43BFBE88FF0A469
:0E2380002AFAEB35F0FBE433CCFD8EF0A42AF4
:0E238E00FAEB35F0FBE43CFCED8FF0A42BFBEA
:0A239C00EC35F0FC20E7031225AE3B
:0323A6000226EF1D
:0E23A900AA82AB83ACF0FD900288EAF0A3EBB1
:0E23B700F0A3ECF0A3EDF0900288E0FAA3E0B2
:0E23C500FBA3E0FCA3E0FD30E70FC3E49AFEAB
:0B23D300E49BFFE49CF8E49DF9800807
:0823DE008A068B078C008D01BB
:0E23E6008E028F0388048905900284E0FEA316
:0C23F400E0FFA3E0F8A3E0F933E433F5C8
:0924000018E5186013C3E49EF511
:0824090019E49FF51AE498F5AF
:072411001BE499F51C800893
:052418008E198F1A88E7
:03241D001B891CFC
:0824200090028CE519F0A3E520
:082428001AF0A3E51BF0A3E587
:0C2430001CF08A828B838CF0ED1224A239
:0E243C00AA82AB83ACF0FD900288E0FEA3E024
:0C244A00FFA3E0F8A3E0F933E4336518C9
:0E2456006014C3E49AFEE49BFFE49CF8E49D4E
:08246400F98E828F8388F022BB
:08246C008A828B838CF0ED22C3
:0D247400AA82AB83A2F73392D16002D2F7A7
:0E248100F582ACF0E58124F9F8E6FD08E6FEF0
:0E248F000886F008E6A2F73392D56002D2F775
:05249D00F583AFF02201
:0E24A200AA82AB83ACF0FD900290EAF0A3EBAF
:0E24B000F0A3ECF0A3EDF0900294E4F0A3F0A2
:0E24BE00A3F0A3F090028CE0FAA3E0FBA3E0F1
:0724CC00FCA3E0FD753120C7
:0E24D300900290E0FFA3E0F8A3E0F9A3E0FE82
:0C24E100339200EF2FFFE833F8E933F9E5
:0E24ED00EE33FE900290EFF0A3E8F0A3E9F0CA
:0E24FB00A3EEF0900294E0FEA3E0FFA3E0F851
:0E250900A3E0F9EE2EFEEF33FFE833F8E933DE
:0E251700F9900294EEF0A3EFF0A3E8F0A3E930
:0C252500F030001E900294E0FFA3E0F8EC
:0E253100A3E0F9A3E0FE90029474014FF0A322
:08253F00E8F0A3E9F0A3EEF0BF
:0E254700900294E0FEA3E0FFA3E0F8A3E0F909
:0E255500C3EE9AEF9BE89CE99D403190029402
:0E256300EEC39AF0EF9BA3F0E89CA3F0E99D75
:0E257100A3F0900290E0FEA3E0FFA3E0F8A329
:0E257F00E0F990029074014EF0A3EFF0A3E893
:04258D00F0A3E9F0DE
:05259100D531028003BA
:032596000224D349
:0E259900900290E0FAA3E0FBA3E0FCA3E0FDBB
:0725A7008A828B838CF02275
:06005500E478FFF6D8FD7F
:0225AE007804AF
:0E25B000EC700DC9CACBFCE58224F8F582D888
:0225BE00F12208
:0225C000782081
:0E25C20020E7111582C3E933F9EA33FAEB334F
:0625D000FBEC33FCD8EC2B
:0125D60022E2
:080033007902E94400601B7A28
:05003B000190273E7852
:030040009E75A00A
:0A00430002E493F2A308B8000205DE
:08004D00A0D9F4DAF275A0FF5E
:0925D700FCABF0AA83A982749EFA
:0225E000C2D166
:0825E200F5821225AE0226EF7E
:0E25EA00FFA88118181226C4D2D133E640078C
:0725F80030E70B75820022A1
:0725FF0020E70675820122AE
:02260600C2D13F
:092608001226A6E97003F58222F6
:0426110020D101B320
:05261500E433F5822210
:0E261A00AA83AB828BF0900298E0A4F8A9F09E
:0E2628008AF0E0A429F98BF0A3E0A429F58341
:042636008882222252
:0E263A00A882A983AAF0FB88F090029AE0A47F
:0E264800FCADF089F0E0A42DFDE435F0FE8835
:0E265600F0A3E0A42DFDE5F03EFEE433FF8985
:0E266400F0E0A42EFEE5F03FFF88F0A3E0A416
:0E2672002EFEE5F03FFF8AF090029AE0A42EC3
:0E268000FEE5F03FFF8BF0E0A42FFF8AF0A3F1
:0E268E00E0A42FFF89F0A3E0A42FFF88F0A3A3
:0A269C00E0A42F8EF08D838C8222C3
:08005B007800E84400600A7916
:030063000075A085
:0600660000E4F309D8FCE0
:08006C00789EE84402600C7963
:0B00740003900000E4F0A3D8FCD9FAD0
:0E26A6007901AA82E68F82B5821318E6B5F09C
:0E26B4000E18E6B5830918E68A82B58202790F
:0126C2000017
:0126C30022F4
:0E26C400B4800FE5F0700AE5837006E58270C1
:0326D200027F0084
:0126D500EF15
:0E26D600B6801518B6001018B6000B18B60026
:0726E4000608080876002239
:0126EB0008E6
:0126EC0008E5
:0126ED0008E4
:0126EE0022C9
:0626EF00B98003EA13B3F9
:0E26F5004010EA2401FAE43BFBE43CFC5004F4
:042703007C8005824F
:09270700BC000EBB000BBA000877
:08271000E4F5F0F583F58222E7
:0E271800A2D1E582138CF092F78B838A822285
:0D272600E4F583F58275F080F4A2D1132252
:0B273300E4F583F58275F0C0747F228E
:03002600758134AD
:0A00290012149AE582600302149598
:00000001FF
